{
  "address": "0x3Aa5ebB10DC797CAC828524e59A333d0A371443c",
  "abi": [
    {
      "anonymous": false,
      "inputs": [
        {
          "indexed": false,
          "internalType": "address",
          "name": "alloSettings",
          "type": "address"
        }
      ],
      "name": "AlloSettingsUpdated",
      "type": "event"
    },
    {
      "anonymous": false,
      "inputs": [
        {
          "indexed": false,
          "internalType": "uint8",
          "name": "version",
          "type": "uint8"
        }
      ],
      "name": "Initialized",
      "type": "event"
    },
    {
      "anonymous": false,
      "inputs": [
        {
          "indexed": true,
          "internalType": "address",
          "name": "previousOwner",
          "type": "address"
        },
        {
          "indexed": true,
          "internalType": "address",
          "name": "newOwner",
          "type": "address"
        }
      ],
      "name": "OwnershipTransferred",
      "type": "event"
    },
    {
      "anonymous": false,
      "inputs": [
        {
          "indexed": true,
          "internalType": "address",
          "name": "roundAddress",
          "type": "address"
        },
        {
          "indexed": true,
          "internalType": "address",
          "name": "ownedBy",
          "type": "address"
        },
        {
          "indexed": true,
          "internalType": "address",
          "name": "roundImplementation",
          "type": "address"
        }
      ],
      "name": "RoundCreated",
      "type": "event"
    },
    {
      "anonymous": false,
      "inputs": [
        {
          "indexed": false,
          "internalType": "address",
          "name": "roundImplementation",
          "type": "address"
        }
      ],
      "name": "RoundImplementationUpdated",
      "type": "event"
    },
    {
      "inputs": [],
      "name": "VERSION",
      "outputs": [
        {
          "internalType": "string",
          "name": "",
          "type": "string"
        }
      ],
      "stateMutability": "view",
      "type": "function"
    },
    {
      "inputs": [],
      "name": "alloSettings",
      "outputs": [
        {
          "internalType": "address",
          "name": "",
          "type": "address"
        }
      ],
      "stateMutability": "view",
      "type": "function"
    },
    {
      "inputs": [
        {
          "internalType": "bytes",
          "name": "encodedParameters",
          "type": "bytes"
        },
        {
          "internalType": "address",
          "name": "ownedBy",
          "type": "address"
        }
      ],
      "name": "create",
      "outputs": [
        {
          "internalType": "address",
          "name": "",
          "type": "address"
        }
      ],
      "stateMutability": "nonpayable",
      "type": "function"
    },
    {
      "inputs": [],
      "name": "initialize",
      "outputs": [],
      "stateMutability": "nonpayable",
      "type": "function"
    },
    {
      "inputs": [],
      "name": "nonce",
      "outputs": [
        {
          "internalType": "uint256",
          "name": "",
          "type": "uint256"
        }
      ],
      "stateMutability": "view",
      "type": "function"
    },
    {
      "inputs": [],
      "name": "owner",
      "outputs": [
        {
          "internalType": "address",
          "name": "",
          "type": "address"
        }
      ],
      "stateMutability": "view",
      "type": "function"
    },
    {
      "inputs": [],
      "name": "renounceOwnership",
      "outputs": [],
      "stateMutability": "nonpayable",
      "type": "function"
    },
    {
      "inputs": [],
      "name": "roundImplementation",
      "outputs": [
        {
          "internalType": "address",
          "name": "",
          "type": "address"
        }
      ],
      "stateMutability": "view",
      "type": "function"
    },
    {
      "inputs": [
        {
          "internalType": "address",
          "name": "newOwner",
          "type": "address"
        }
      ],
      "name": "transferOwnership",
      "outputs": [],
      "stateMutability": "nonpayable",
      "type": "function"
    },
    {
      "inputs": [
        {
          "internalType": "address",
          "name": "newAlloSettings",
          "type": "address"
        }
      ],
      "name": "updateAlloSettings",
      "outputs": [],
      "stateMutability": "nonpayable",
      "type": "function"
    },
    {
      "inputs": [
        {
          "internalType": "address payable",
          "name": "newRoundImplementation",
          "type": "address"
        }
      ],
      "name": "updateRoundImplementation",
      "outputs": [],
      "stateMutability": "nonpayable",
      "type": "function"
    }
  ],
  "transactionHash": "0x1fddca32b0711e18bfebf25fef4d3b7acb5629e50b9b4eed09a8e4dd7edc96aa",
  "args": [],
  "numDeployments": 1,
  "solcInputHash": "c921f1417ace463d64cfccd1853f0d26",
  "bytecode": "0x608060405234801561001057600080fd5b506109b0806100206000396000f3fe608060405234801561001057600080fd5b50600436106100a95760003560e01c8063a858643811610071578063a858643814610110578063affed0e014610123578063bc31bca91461013a578063be8c0b2f1461014d578063f2fde38b14610160578063ffa1ad741461017357600080fd5b80635614ea4e146100ae578063715018a6146100c35780638129fc1c146100cb5780638da5cb5b146100d35780639c3b68ce146100fd575b600080fd5b6100c16100bc3660046107d2565b6101a4565b005b6100c1610201565b6100c1610215565b6033546001600160a01b03165b6040516001600160a01b0390911681526020015b60405180910390f35b6066546100e0906001600160a01b031681565b6065546100e0906001600160a01b031681565b61012c60675481565b6040519081526020016100f4565b6100e06101483660046107f6565b61032f565b6100c161015b3660046107d2565b6104f9565b6100c161016e3660046107d2565b6105a1565b610197604051806040016040528060058152602001640302e322e360dc1b81525081565b6040516100f49190610879565b6101ac610617565b606680546001600160a01b0319166001600160a01b0383169081179091556040519081527fa58967f5e07bd2405f0758a5019f9448cf74c83b2a4ce3bb0744f6d89a66157f906020015b60405180910390a150565b610209610617565b6102136000610671565b565b600054610100900460ff16158080156102355750600054600160ff909116105b8061024f5750303b15801561024f575060005460ff166001145b6102b75760405162461bcd60e51b815260206004820152602e60248201527f496e697469616c697a61626c653a20636f6e747261637420697320616c72656160448201526d191e481a5b9a5d1a585b1a5e995960921b60648201526084015b60405180910390fd5b6000805460ff1916600117905580156102da576000805461ff0019166101001790555b6102e26106c3565b6102ea6106ea565b801561032c576000805461ff0019169055604051600181527f7f26b83ff96e1f2b6a682f133852f6798a09c465da95921460cefb3847402498906020016101f6565b50565b6067805460009182610340836108c7565b90915550506065546001600160a01b03166103995760405162461bcd60e51b81526020600482015260196024820152780e4deeadcc892dae0d8cadacadce8c2e8d2dedc40d2e64060f603b1b60448201526064016102ae565b6066546001600160a01b03166103e65760405162461bcd60e51b81526020600482015260126024820152710c2d8d8dea6cae8e8d2dccee640d2e64060f60731b60448201526064016102ae565b6067546040516bffffffffffffffffffffffff193360601b166020820152603481019190915260009060540160408051601f198184030181529190528051602090910120606554909150600090610446906001600160a01b03168361071a565b6065546040519192506001600160a01b0390811691868216918416907f9ea0518c708ef5dfce96e410b66495be1d381b18199887003dd508e0cc19dc7790600090a460665460405163cce2df0360e01b81526001600160a01b038084169263cce2df03926104bd928b928b929116906004016108ee565b600060405180830381600087803b1580156104d757600080fd5b505af11580156104eb573d6000803e3d6000fd5b509298975050505050505050565b610501610617565b6001600160a01b0381166105535760405162461bcd60e51b81526020600482015260196024820152780e4deeadcc892dae0d8cadacadce8c2e8d2dedc40d2e64060f603b1b60448201526064016102ae565b606580546001600160a01b0319166001600160a01b0383169081179091556040519081527f80dfd4a16b3bbb75be7e2b6efaa25fff123212f0ca69500dd77518910aec82b5906020016101f6565b6105a9610617565b6001600160a01b03811661060e5760405162461bcd60e51b815260206004820152602660248201527f4f776e61626c653a206e6577206f776e657220697320746865207a65726f206160448201526564647265737360d01b60648201526084016102ae565b61032c81610671565b6033546001600160a01b031633146102135760405162461bcd60e51b815260206004820181905260248201527f4f776e61626c653a2063616c6c6572206973206e6f7420746865206f776e657260448201526064016102ae565b603380546001600160a01b038381166001600160a01b0319831681179093556040519116919082907f8be0079c531659141344cd1fd0a4f28419497f9722a3daafe3b4186f6b6457e090600090a35050565b600054610100900460ff166102135760405162461bcd60e51b81526004016102ae9061092f565b600054610100900460ff166107115760405162461bcd60e51b81526004016102ae9061092f565b61021333610671565b6000763d602d80600a3d3981f3363d3d373d3d3d363d730000008360601b60e81c176000526e5af43d82803e903d91602b57fd5bf38360781b1760205281603760096000f590506001600160a01b0381166107b75760405162461bcd60e51b815260206004820152601760248201527f455243313136373a2063726561746532206661696c656400000000000000000060448201526064016102ae565b92915050565b6001600160a01b038116811461032c57600080fd5b6000602082840312156107e457600080fd5b81356107ef816107bd565b9392505050565b60008060006040848603121561080b57600080fd5b833567ffffffffffffffff8082111561082357600080fd5b818601915086601f83011261083757600080fd5b81358181111561084657600080fd5b87602082850101111561085857600080fd5b6020928301955093505084013561086e816107bd565b809150509250925092565b600060208083528351808285015260005b818110156108a65785810183015185820160400152820161088a565b506000604082860101526040601f19601f8301168501019250505092915050565b6000600182016108e757634e487b7160e01b600052601160045260246000fd5b5060010190565b6040815282604082015282846060830137600060608483018101919091526001600160a01b03929092166020820152601f909201601f191690910101919050565b6020808252602b908201527f496e697469616c697a61626c653a20636f6e7472616374206973206e6f74206960408201526a6e697469616c697a696e6760a81b60608201526080019056fea2646970667358221220b772dfd05ef2c2b847966f2580220d1392691bf4171fe06354cd3a19b7b172c564736f6c63430008130033",
  "devdoc": {
    "details": "RoundFactory is deployed once per chain and stores a reference to the deployed RoundImplementation.RoundFactory uses openzeppelin Clones to reduce deploy costs and also allows upgrading RoundImplementationUpdated.This contract is Ownable thus supports ownership transfership",
    "events": {
      "Initialized(uint8)": {
        "details": "Triggered when the contract has been initialized or reinitialized."
      }
    },
    "kind": "dev",
    "methods": {
      "create(bytes,address)": {
        "params": {
          "encodedParameters": "Encoded parameters for creating a round",
          "ownedBy": "Program which created the contract"
        }
      },
      "owner()": {
        "details": "Returns the address of the current owner."
      },
      "renounceOwnership()": {
        "details": "Leaves the contract without owner. It will not be possible to call `onlyOwner` functions. Can only be called by the current owner. NOTE: Renouncing ownership will leave the contract without an owner, thereby disabling any functionality that is only available to the owner."
      },
      "transferOwnership(address)": {
        "details": "Transfers ownership of the contract to a new account (`newOwner`). Can only be called by the current owner."
      },
      "updateAlloSettings(address)": {
        "params": {
          "newAlloSettings": "New allo settings contract address"
        }
      },
      "updateRoundImplementation(address)": {
        "params": {
          "newRoundImplementation": "New RoundImplementation contract address"
        }
      }
    },
    "version": 1
  },
  "userdoc": {
    "events": {
      "AlloSettingsUpdated(address)": {
        "notice": "Emitted when allo settings contract is updated"
      },
      "RoundCreated(address,address,address)": {
        "notice": "Emitted when a new Round is created"
      },
      "RoundImplementationUpdated(address)": {
        "notice": "Emitted when a Round implementation contract is updated"
      }
    },
    "kind": "user",
    "methods": {
      "alloSettings()": {
        "notice": "Address of the Allo settings contract"
      },
      "create(bytes,address)": {
        "notice": "Clones RoundImplementation a new round and emits event"
      },
      "initialize()": {
        "notice": "constructor function which ensure deployer is set as owner"
      },
      "nonce()": {
        "notice": "Nonce used to generate deterministic salt for Clones"
      },
      "roundImplementation()": {
        "notice": "Address of the RoundImplementation contract"
      },
      "updateAlloSettings(address)": {
        "notice": "Allows the owner to update the allo settings contract."
      },
      "updateRoundImplementation(address)": {
        "notice": "Allows the owner to update the RoundImplementation. This provides us the flexibility to upgrade RoundImplementation contract while relying on the same RoundFactory to get the list of rounds."
      }
    },
    "notice": "Invoked by a RoundOperator to enable creation of a round by cloning the RoundImplementation contract. The factory contract emits an event anytime a round is created which can be used to derive the round registry.",
    "version": 1
  },
  "storageLayout": {
    "storage": [
      {
        "astId": 800,
        "contract": "contracts/round/RoundFactory.sol:RoundFactory",
        "label": "_initialized",
        "offset": 0,
        "slot": "0",
        "type": "t_uint8"
      },
      {
        "astId": 803,
        "contract": "contracts/round/RoundFactory.sol:RoundFactory",
        "label": "_initializing",
        "offset": 1,
        "slot": "0",
        "type": "t_bool"
      },
      {
        "astId": 1917,
        "contract": "contracts/round/RoundFactory.sol:RoundFactory",
        "label": "__gap",
        "offset": 0,
        "slot": "1",
        "type": "t_array(t_uint256)50_storage"
      },
      {
        "astId": 592,
        "contract": "contracts/round/RoundFactory.sol:RoundFactory",
        "label": "_owner",
        "offset": 0,
        "slot": "51",
        "type": "t_address"
      },
      {
        "astId": 712,
        "contract": "contracts/round/RoundFactory.sol:RoundFactory",
        "label": "__gap",
        "offset": 0,
        "slot": "52",
        "type": "t_array(t_uint256)49_storage"
      },
      {
        "astId": 9798,
        "contract": "contracts/round/RoundFactory.sol:RoundFactory",
        "label": "roundImplementation",
        "offset": 0,
        "slot": "101",
        "type": "t_address"
      },
      {
        "astId": 9801,
        "contract": "contracts/round/RoundFactory.sol:RoundFactory",
        "label": "alloSettings",
        "offset": 0,
        "slot": "102",
        "type": "t_address"
      },
      {
        "astId": 9804,
        "contract": "contracts/round/RoundFactory.sol:RoundFactory",
        "label": "nonce",
        "offset": 0,
        "slot": "103",
        "type": "t_uint256"
      }
    ],
    "types": {
      "t_address": {
        "encoding": "inplace",
        "label": "address",
        "numberOfBytes": "20"
      },
      "t_array(t_uint256)49_storage": {
        "base": "t_uint256",
        "encoding": "inplace",
        "label": "uint256[49]",
        "numberOfBytes": "1568"
      },
      "t_array(t_uint256)50_storage": {
        "base": "t_uint256",
        "encoding": "inplace",
        "label": "uint256[50]",
        "numberOfBytes": "1600"
      },
      "t_bool": {
        "encoding": "inplace",
        "label": "bool",
        "numberOfBytes": "1"
      },
      "t_uint256": {
        "encoding": "inplace",
        "label": "uint256",
        "numberOfBytes": "32"
      },
      "t_uint8": {
        "encoding": "inplace",
        "label": "uint8",
        "numberOfBytes": "1"
      }
    }
  }
}