{
  "address": "0x145A9e670372aBe682ACD74c666b363f6E01c8F3",
  "abi": [
    {
      "inputs": [
        {
          "internalType": "address",
          "name": "_owner",
          "type": "address"
        }
      ],
      "stateMutability": "nonpayable",
      "type": "constructor"
    },
    {
      "inputs": [],
      "name": "AccessDenied",
      "type": "error"
    },
    {
      "inputs": [],
      "name": "AlreadyRevoked",
      "type": "error"
    },
    {
      "inputs": [],
      "name": "Irrevocable",
      "type": "error"
    },
    {
      "inputs": [],
      "name": "NotFound",
      "type": "error"
    },
    {
      "anonymous": false,
      "inputs": [
        {
          "indexed": true,
          "internalType": "address",
          "name": "attester",
          "type": "address"
        },
        {
          "indexed": true,
          "internalType": "string",
          "name": "recipient",
          "type": "string"
        },
        {
          "indexed": false,
          "internalType": "uint256",
          "name": "uid",
          "type": "uint256"
        }
      ],
      "name": "Attested",
      "type": "event"
    },
    {
      "anonymous": false,
      "inputs": [
        {
          "indexed": true,
          "internalType": "string",
          "name": "recipient",
          "type": "string"
        },
        {
          "indexed": true,
          "internalType": "address",
          "name": "attester",
          "type": "address"
        },
        {
          "indexed": false,
          "internalType": "uint256",
          "name": "uid",
          "type": "uint256"
        }
      ],
      "name": "Revoked",
      "type": "event"
    },
    {
      "inputs": [
        {
          "internalType": "string",
          "name": "recipient",
          "type": "string"
        },
        {
          "internalType": "bool",
          "name": "revocable",
          "type": "bool"
        },
        {
          "internalType": "string",
          "name": "data",
          "type": "string"
        },
        {
          "internalType": "uint256",
          "name": "rating",
          "type": "uint256"
        }
      ],
      "name": "attest",
      "outputs": [
        {
          "internalType": "uint256",
          "name": "",
          "type": "uint256"
        }
      ],
      "stateMutability": "nonpayable",
      "type": "function"
    },
    {
      "inputs": [
        {
          "internalType": "string",
          "name": "recipient",
          "type": "string"
        },
        {
          "internalType": "bool",
          "name": "revocable",
          "type": "bool"
        },
        {
          "internalType": "string",
          "name": "data",
          "type": "string"
        },
        {
          "internalType": "address",
          "name": "tokenAddress",
          "type": "address"
        },
        {
          "internalType": "uint256",
          "name": "tokenAmount",
          "type": "uint256"
        },
        {
          "internalType": "address payable",
          "name": "destinationAddress",
          "type": "address"
        }
      ],
      "name": "attestWithToken",
      "outputs": [
        {
          "internalType": "uint256",
          "name": "",
          "type": "uint256"
        }
      ],
      "stateMutability": "nonpayable",
      "type": "function"
    },
    {
      "inputs": [
        {
          "internalType": "address",
          "name": "attester",
          "type": "address"
        }
      ],
      "name": "attestationsByAttester",
      "outputs": [
        {
          "components": [
            {
              "internalType": "uint256",
              "name": "uid",
              "type": "uint256"
            },
            {
              "internalType": "uint256",
              "name": "time",
              "type": "uint256"
            },
            {
              "internalType": "uint256",
              "name": "revocationTime",
              "type": "uint256"
            },
            {
              "internalType": "string",
              "name": "recipient",
              "type": "string"
            },
            {
              "internalType": "address",
              "name": "attester",
              "type": "address"
            },
            {
              "internalType": "bool",
              "name": "revocable",
              "type": "bool"
            },
            {
              "internalType": "string",
              "name": "data",
              "type": "string"
            },
            {
              "internalType": "uint256",
              "name": "rating",
              "type": "uint256"
            }
          ],
          "internalType": "struct Attesting.Attestation[]",
          "name": "",
          "type": "tuple[]"
        }
      ],
      "stateMutability": "view",
      "type": "function"
    },
    {
      "inputs": [
        {
          "internalType": "string",
          "name": "recipient",
          "type": "string"
        }
      ],
      "name": "attestationsByRecipient",
      "outputs": [
        {
          "components": [
            {
              "internalType": "uint256",
              "name": "uid",
              "type": "uint256"
            },
            {
              "internalType": "uint256",
              "name": "time",
              "type": "uint256"
            },
            {
              "internalType": "uint256",
              "name": "revocationTime",
              "type": "uint256"
            },
            {
              "internalType": "string",
              "name": "recipient",
              "type": "string"
            },
            {
              "internalType": "address",
              "name": "attester",
              "type": "address"
            },
            {
              "internalType": "bool",
              "name": "revocable",
              "type": "bool"
            },
            {
              "internalType": "string",
              "name": "data",
              "type": "string"
            },
            {
              "internalType": "uint256",
              "name": "rating",
              "type": "uint256"
            }
          ],
          "internalType": "struct Attesting.Attestation[]",
          "name": "",
          "type": "tuple[]"
        }
      ],
      "stateMutability": "view",
      "type": "function"
    },
    {
      "inputs": [
        {
          "internalType": "uint256",
          "name": "uid",
          "type": "uint256"
        }
      ],
      "name": "getAttestation",
      "outputs": [
        {
          "components": [
            {
              "internalType": "uint256",
              "name": "uid",
              "type": "uint256"
            },
            {
              "internalType": "uint256",
              "name": "time",
              "type": "uint256"
            },
            {
              "internalType": "uint256",
              "name": "revocationTime",
              "type": "uint256"
            },
            {
              "internalType": "string",
              "name": "recipient",
              "type": "string"
            },
            {
              "internalType": "address",
              "name": "attester",
              "type": "address"
            },
            {
              "internalType": "bool",
              "name": "revocable",
              "type": "bool"
            },
            {
              "internalType": "string",
              "name": "data",
              "type": "string"
            },
            {
              "internalType": "uint256",
              "name": "rating",
              "type": "uint256"
            }
          ],
          "internalType": "struct Attesting.Attestation",
          "name": "",
          "type": "tuple"
        }
      ],
      "stateMutability": "view",
      "type": "function"
    },
    {
      "inputs": [],
      "name": "owner",
      "outputs": [
        {
          "internalType": "address",
          "name": "",
          "type": "address"
        }
      ],
      "stateMutability": "view",
      "type": "function"
    },
    {
      "inputs": [
        {
          "internalType": "uint256",
          "name": "uid",
          "type": "uint256"
        }
      ],
      "name": "revoke",
      "outputs": [],
      "stateMutability": "nonpayable",
      "type": "function"
    }
  ],
  "transactionHash": "0x6852b6d3b1ad204c13439d06ce9a6fbc7be427c5103dc1444d8cbbdd4a3c1691",
  "args": [
    "0x0b130fd03fA70571BB05197422B8e153CAc6bC65"
  ],
  "numDeployments": 2,
  "solcInputHash": "c86928488c1b956a6de99d41716f35bb",
  "bytecode": "0x60a0604052600160005534801561001557600080fd5b506040516114ac3803806114ac83398101604081905261003491610045565b6001600160a01b0316608052610075565b60006020828403121561005757600080fd5b81516001600160a01b038116811461006e57600080fd5b9392505050565b60805161141d61008f600039600060e2015261141d6000f3fe608060405234801561001057600080fd5b506004361061007d5760003560e01c80638da5cb5b1161005b5780638da5cb5b146100dd5780638eb27d851461011c57806393ea00431461012f578063fd5bc69d1461014f57600080fd5b806306e66eac1461008257806320c5429b146100a857806329be4db2146100bd575b600080fd5b610095610090366004610ebe565b610162565b6040519081526020015b60405180910390f35b6100bb6100b6366004610f6d565b61038c565b005b6100d06100cb366004610f6d565b610442565b60405161009f9190611059565b6101047f000000000000000000000000000000000000000000000000000000000000000081565b6040516001600160a01b03909116815260200161009f565b61009561012a366004611073565b610608565b61014261013d3660046110f6565b610774565b60405161009f9190611113565b61014261015d366004611175565b610a30565b6040516323b872dd60e01b81523360048201526001600160a01b03828116602483015260448201849052600091908516906323b872dd906064016020604051808303816000875af11580156101bb573d6000803e3d6000fd5b505050506040513d601f19601f820116820180604052508101906101df91906111b2565b6102275760405162461bcd60e51b8152602060048201526015602482015274151bdad95b881d1c985b9cd9995c8819985a5b1959605a1b604482015260640160405180910390fd5b600080548180610236836111cf565b919050559050610244610d5c565b818152336080820152606081018a9052604080516020601f8a01819004810282018101909252888152908990899081908401838280828437600092018290525060c086019490945250504260208085019182528c151560a08601528584526001908190526040938490208551815591519082015591830151600283015550606082015182919060038201906102d9908261127f565b50608082015160048201805460a08501511515600160a01b026001600160a81b03199091166001600160a01b039093169290921791909117905560c08201516005820190610327908261127f565b5060e0820151816006015590505089604051610343919061133f565b6040519081900381208382529033907fb37102117f72d4f80ea90641358393efa0bea2f61fa4946f725911453946f5579060200160405180910390a35098975050505050505050565b600081815260016020526040812080549091036103bc5760405163c5723b5160e01b815260040160405180910390fd5b60048101546001600160a01b031633146103e957604051634ca8886760e01b815260040160405180910390fd5b60028101541561040c5760405163905e710760e01b815260040160405180910390fd5b6004810154600160a01b900460ff166104385760405163157bd4c360e01b815260040160405180910390fd5b4260029091015550565b61044a610d5c565b60005482111561046d5760405163c5723b5160e01b815260040160405180910390fd5b60016000838152602001908152602001600020604051806101000160405290816000820154815260200160018201548152602001600282015481526020016003820180546104ba906111f6565b80601f01602080910402602001604051908101604052809291908181526020018280546104e6906111f6565b80156105335780601f1061050857610100808354040283529160200191610533565b820191906000526020600020905b81548152906001019060200180831161051657829003601f168201915b505050918352505060048201546001600160a01b0381166020830152600160a01b900460ff1615156040820152600582018054606090920191610575906111f6565b80601f01602080910402602001604051908101604052809291908181526020018280546105a1906111f6565b80156105ee5780601f106105c3576101008083540402835291602001916105ee565b820191906000526020600020905b8154815290600101906020018083116105d157829003601f168201915b505050505081526020016006820154815250509050919050565b6000805481908180610619836111cf565b919050559050610627610d5c565b8181523360808201526060810188905260e08101849052604080516020601f8801819004810282018101909252868152908790879081908401838280828437600092018290525060c086019490945250504260208085019182528a151560a08601528584526001908190526040938490208551815591519082015591830151600283015550606082015182919060038201906106c3908261127f565b50608082015160048201805460a08501511515600160a01b026001600160a81b03199091166001600160a01b039093169290921791909117905560c08201516005820190610711908261127f565b5060e082015181600601559050508760405161072d919061133f565b6040519081900381208382529033907fb37102117f72d4f80ea90641358393efa0bea2f61fa4946f725911453946f5579060200160405180910390a3509695505050505050565b6060600060015b6000548110156107c9576000818152600160205260409020600401546001600160a01b038086169116036107b757816107b3816111cf565b9250505b806107c1816111cf565b91505061077b565b5060008167ffffffffffffffff8111156107e5576107e5610dac565b60405190808252806020026020018201604052801561081e57816020015b61080b610d5c565b8152602001906001900390816108035790505b509050600060015b600054811015610a26576000818152600160205260409020600401546001600160a01b03808816911603610a145760016000828152602001908152602001600020604051806101000160405290816000820154815260200160018201548152602001600282015481526020016003820180546108a1906111f6565b80601f01602080910402602001604051908101604052809291908181526020018280546108cd906111f6565b801561091a5780601f106108ef5761010080835404028352916020019161091a565b820191906000526020600020905b8154815290600101906020018083116108fd57829003601f168201915b505050918352505060048201546001600160a01b0381166020830152600160a01b900460ff161515604082015260058201805460609092019161095c906111f6565b80601f0160208091040260200160405190810160405280929190818152602001828054610988906111f6565b80156109d55780601f106109aa576101008083540402835291602001916109d5565b820191906000526020600020905b8154815290600101906020018083116109b857829003601f168201915b505050505081526020016006820154815250508383815181106109fa576109fa61135b565b60200260200101819052508180610a10906111cf565b9250505b80610a1e816111cf565b915050610826565b5090949350505050565b6060600060015b600054811015610ac25783604051602001610a52919061133f565b60408051601f198184030181528282528051602091820120600085815260018352929092209192610a87926003019101611371565b6040516020818303038152906040528051906020012003610ab05781610aac816111cf565b9250505b80610aba816111cf565b915050610a37565b5060008167ffffffffffffffff811115610ade57610ade610dac565b604051908082528060200260200182016040528015610b1757816020015b610b04610d5c565b815260200190600190039081610afc5790505b509050600060015b600054811015610a265785604051602001610b3a919061133f565b60408051601f198184030181528282528051602091820120600085815260018352929092209192610b6f926003019101611371565b6040516020818303038152906040528051906020012003610d4a576001600082815260200190815260200160002060405180610100016040529081600082015481526020016001820154815260200160028201548152602001600382018054610bd7906111f6565b80601f0160208091040260200160405190810160405280929190818152602001828054610c03906111f6565b8015610c505780601f10610c2557610100808354040283529160200191610c50565b820191906000526020600020905b815481529060010190602001808311610c3357829003601f168201915b505050918352505060048201546001600160a01b0381166020830152600160a01b900460ff1615156040820152600582018054606090920191610c92906111f6565b80601f0160208091040260200160405190810160405280929190818152602001828054610cbe906111f6565b8015610d0b5780601f10610ce057610100808354040283529160200191610d0b565b820191906000526020600020905b815481529060010190602001808311610cee57829003601f168201915b50505050508152602001600682015481525050838381518110610d3057610d3061135b565b60200260200101819052508180610d46906111cf565b9250505b80610d54816111cf565b915050610b1f565b6040518061010001604052806000815260200160008152602001600081526020016060815260200160006001600160a01b0316815260200160001515815260200160608152602001600081525090565b634e487b7160e01b600052604160045260246000fd5b600082601f830112610dd357600080fd5b813567ffffffffffffffff80821115610dee57610dee610dac565b604051601f8301601f19908116603f01168101908282118183101715610e1657610e16610dac565b81604052838152866020858801011115610e2f57600080fd5b836020870160208301376000602085830101528094505050505092915050565b8015158114610e5d57600080fd5b50565b60008083601f840112610e7257600080fd5b50813567ffffffffffffffff811115610e8a57600080fd5b602083019150836020828501011115610ea257600080fd5b9250929050565b6001600160a01b0381168114610e5d57600080fd5b600080600080600080600060c0888a031215610ed957600080fd5b873567ffffffffffffffff80821115610ef157600080fd5b610efd8b838c01610dc2565b985060208a01359150610f0f82610e4f565b90965060408901359080821115610f2557600080fd5b50610f328a828b01610e60565b9096509450506060880135610f4681610ea9565b92506080880135915060a0880135610f5d81610ea9565b8091505092959891949750929550565b600060208284031215610f7f57600080fd5b5035919050565b60005b83811015610fa1578181015183820152602001610f89565b50506000910152565b60008151808452610fc2816020860160208601610f86565b601f01601f19169290920160200192915050565b6000610100825184526020830151602085015260408301516040850152606083015181606086015261100a82860182610faa565b91505060018060a01b03608084015116608085015260a0830151151560a085015260c083015184820360c08601526110428282610faa565b91505060e083015160e08501528091505092915050565b60208152600061106c6020830184610fd6565b9392505050565b60008060008060006080868803121561108b57600080fd5b853567ffffffffffffffff808211156110a357600080fd5b6110af89838a01610dc2565b9650602088013591506110c182610e4f565b909450604087013590808211156110d757600080fd5b506110e488828901610e60565b96999598509660600135949350505050565b60006020828403121561110857600080fd5b813561106c81610ea9565b6000602080830181845280855180835260408601915060408160051b870101925083870160005b8281101561116857603f19888603018452611156858351610fd6565b9450928501929085019060010161113a565b5092979650505050505050565b60006020828403121561118757600080fd5b813567ffffffffffffffff81111561119e57600080fd5b6111aa84828501610dc2565b949350505050565b6000602082840312156111c457600080fd5b815161106c81610e4f565b6000600182016111ef57634e487b7160e01b600052601160045260246000fd5b5060010190565b600181811c9082168061120a57607f821691505b60208210810361122a57634e487b7160e01b600052602260045260246000fd5b50919050565b601f82111561127a57600081815260208120601f850160051c810160208610156112575750805b601f850160051c820191505b8181101561127657828155600101611263565b5050505b505050565b815167ffffffffffffffff81111561129957611299610dac565b6112ad816112a784546111f6565b84611230565b602080601f8311600181146112e257600084156112ca5750858301515b600019600386901b1c1916600185901b178555611276565b600085815260208120601f198616915b82811015611311578886015182559484019460019091019084016112f2565b508582101561132f5787850151600019600388901b60f8161c191681555b5050505050600190811b01905550565b60008251611351818460208701610f86565b9190910192915050565b634e487b7160e01b600052603260045260246000fd5b600080835461137f816111f6565b6001828116801561139757600181146113ac576113db565b60ff19841687528215158302870194506113db565b8760005260208060002060005b858110156113d25781548a8201529084019082016113b9565b50505082870194505b5092969550505050505056fea26469706673582212204b2ec6001ba6327bb48ccac150121a6bcf8accf0a0f2f14301e413261482e29264736f6c63430008110033",
  "devdoc": {
    "events": {
      "Attested(address,string,uint256)": {
        "params": {
          "attester": "The attesting account.",
          "recipient": "The recipient of the attestation.",
          "uid": "The UID the revoked attestation."
        }
      },
      "Revoked(string,address,uint256)": {
        "params": {
          "attester": "The attesting account.",
          "recipient": "The recipient of the attestation.",
          "uid": "The UID the revoked attestation."
        }
      }
    },
    "kind": "dev",
    "methods": {
      "attest(string,bool,string,uint256)": {
        "params": {
          "data": "The custom attestation data.",
          "recipient": "The recipient of the attestation.",
          "revocable": "Whether the attestation is revocable."
        },
        "returns": {
          "_0": "The UID of the new attestation."
        }
      },
      "constructor": {
        "details": "Creates a new SolAttest instance."
      },
      "getAttestation(uint256)": {
        "params": {
          "uid": "The UID of the attestation to retrieve."
        },
        "returns": {
          "_0": "The attestation data members."
        }
      }
    },
    "version": 1
  },
  "userdoc": {
    "events": {
      "Attested(address,string,uint256)": {
        "notice": "Emitted when an attestation has been made."
      },
      "Revoked(string,address,uint256)": {
        "notice": "Emitted when an attestation has been revoked."
      }
    },
    "kind": "user",
    "methods": {
      "attest(string,bool,string,uint256)": {
        "notice": "Attests to a specific schema."
      },
      "getAttestation(uint256)": {
        "notice": "Returns an existing attestation by UID."
      }
    },
    "version": 1
  },
  "storageLayout": {
    "storage": [
      {
        "astId": 7192,
        "contract": "contracts/Attesting.sol:Attesting",
        "label": "lastUid",
        "offset": 0,
        "slot": "0",
        "type": "t_uint256"
      },
      {
        "astId": 7197,
        "contract": "contracts/Attesting.sol:Attesting",
        "label": "_db",
        "offset": 0,
        "slot": "1",
        "type": "t_mapping(t_uint256,t_struct(Attestation)7189_storage)"
      }
    ],
    "types": {
      "t_address": {
        "encoding": "inplace",
        "label": "address",
        "numberOfBytes": "20"
      },
      "t_bool": {
        "encoding": "inplace",
        "label": "bool",
        "numberOfBytes": "1"
      },
      "t_mapping(t_uint256,t_struct(Attestation)7189_storage)": {
        "encoding": "mapping",
        "key": "t_uint256",
        "label": "mapping(uint256 => struct Attesting.Attestation)",
        "numberOfBytes": "32",
        "value": "t_struct(Attestation)7189_storage"
      },
      "t_string_storage": {
        "encoding": "bytes",
        "label": "string",
        "numberOfBytes": "32"
      },
      "t_struct(Attestation)7189_storage": {
        "encoding": "inplace",
        "label": "struct Attesting.Attestation",
        "members": [
          {
            "astId": 7174,
            "contract": "contracts/Attesting.sol:Attesting",
            "label": "uid",
            "offset": 0,
            "slot": "0",
            "type": "t_uint256"
          },
          {
            "astId": 7176,
            "contract": "contracts/Attesting.sol:Attesting",
            "label": "time",
            "offset": 0,
            "slot": "1",
            "type": "t_uint256"
          },
          {
            "astId": 7178,
            "contract": "contracts/Attesting.sol:Attesting",
            "label": "revocationTime",
            "offset": 0,
            "slot": "2",
            "type": "t_uint256"
          },
          {
            "astId": 7180,
            "contract": "contracts/Attesting.sol:Attesting",
            "label": "recipient",
            "offset": 0,
            "slot": "3",
            "type": "t_string_storage"
          },
          {
            "astId": 7182,
            "contract": "contracts/Attesting.sol:Attesting",
            "label": "attester",
            "offset": 0,
            "slot": "4",
            "type": "t_address"
          },
          {
            "astId": 7184,
            "contract": "contracts/Attesting.sol:Attesting",
            "label": "revocable",
            "offset": 20,
            "slot": "4",
            "type": "t_bool"
          },
          {
            "astId": 7186,
            "contract": "contracts/Attesting.sol:Attesting",
            "label": "data",
            "offset": 0,
            "slot": "5",
            "type": "t_string_storage"
          },
          {
            "astId": 7188,
            "contract": "contracts/Attesting.sol:Attesting",
            "label": "rating",
            "offset": 0,
            "slot": "6",
            "type": "t_uint256"
          }
        ],
        "numberOfBytes": "224"
      },
      "t_uint256": {
        "encoding": "inplace",
        "label": "uint256",
        "numberOfBytes": "32"
      }
    }
  }
}