{
  "address": "0xfc3Cbc73a4Ff458c736FfF575eD7f9c9C0D52dB6",
  "abi": [
    {
      "anonymous": false,
      "inputs": [
        {
          "indexed": true,
          "internalType": "address",
          "name": "sender",
          "type": "address"
        }
      ],
      "name": "BatchPayoutSuccessful",
      "type": "event"
    },
    {
      "anonymous": false,
      "inputs": [
        {
          "indexed": false,
          "internalType": "bytes32",
          "name": "merkleRoot",
          "type": "bytes32"
        },
        {
          "components": [
            {
              "internalType": "uint256",
              "name": "protocol",
              "type": "uint256"
            },
            {
              "internalType": "string",
              "name": "pointer",
              "type": "string"
            }
          ],
          "indexed": false,
          "internalType": "struct MetaPtr",
          "name": "distributionMetaPtr",
          "type": "tuple"
        }
      ],
      "name": "DistributionUpdated",
      "type": "event"
    },
    {
      "anonymous": false,
      "inputs": [
        {
          "indexed": false,
          "internalType": "uint256",
          "name": "amount",
          "type": "uint256"
        },
        {
          "indexed": false,
          "internalType": "address",
          "name": "grantee",
          "type": "address"
        },
        {
          "indexed": true,
          "internalType": "address",
          "name": "token",
          "type": "address"
        },
        {
          "indexed": true,
          "internalType": "bytes32",
          "name": "projectId",
          "type": "bytes32"
        }
      ],
      "name": "FundsDistributed",
      "type": "event"
    },
    {
      "anonymous": false,
      "inputs": [
        {
          "indexed": true,
          "internalType": "address",
          "name": "tokenAddress",
          "type": "address"
        },
        {
          "indexed": false,
          "internalType": "uint256",
          "name": "amount",
          "type": "uint256"
        },
        {
          "indexed": false,
          "internalType": "address",
          "name": "withdrawAddress",
          "type": "address"
        }
      ],
      "name": "FundsWithdrawn",
      "type": "event"
    },
    {
      "anonymous": false,
      "inputs": [
        {
          "indexed": false,
          "internalType": "uint8",
          "name": "version",
          "type": "uint8"
        }
      ],
      "name": "Initialized",
      "type": "event"
    },
    {
      "anonymous": false,
      "inputs": [],
      "name": "ReadyForPayout",
      "type": "event"
    },
    {
      "inputs": [],
      "name": "ROUND_OPERATOR_ROLE",
      "outputs": [
        {
          "internalType": "bytes32",
          "name": "",
          "type": "bytes32"
        }
      ],
      "stateMutability": "view",
      "type": "function"
    },
    {
      "inputs": [],
      "name": "VERSION",
      "outputs": [
        {
          "internalType": "string",
          "name": "",
          "type": "string"
        }
      ],
      "stateMutability": "view",
      "type": "function"
    },
    {
      "inputs": [],
      "name": "distributionMetaPtr",
      "outputs": [
        {
          "internalType": "uint256",
          "name": "protocol",
          "type": "uint256"
        },
        {
          "internalType": "string",
          "name": "pointer",
          "type": "string"
        }
      ],
      "stateMutability": "view",
      "type": "function"
    },
    {
      "inputs": [
        {
          "internalType": "uint256",
          "name": "_index",
          "type": "uint256"
        }
      ],
      "name": "hasBeenDistributed",
      "outputs": [
        {
          "internalType": "bool",
          "name": "",
          "type": "bool"
        }
      ],
      "stateMutability": "view",
      "type": "function"
    },
    {
      "inputs": [],
      "name": "init",
      "outputs": [],
      "stateMutability": "nonpayable",
      "type": "function"
    },
    {
      "inputs": [],
      "name": "initialize",
      "outputs": [],
      "stateMutability": "nonpayable",
      "type": "function"
    },
    {
      "inputs": [],
      "name": "isDistributionSet",
      "outputs": [
        {
          "internalType": "bool",
          "name": "",
          "type": "bool"
        }
      ],
      "stateMutability": "view",
      "type": "function"
    },
    {
      "inputs": [],
      "name": "isReadyForPayout",
      "outputs": [
        {
          "internalType": "bool",
          "name": "",
          "type": "bool"
        }
      ],
      "stateMutability": "view",
      "type": "function"
    },
    {
      "inputs": [],
      "name": "merkleRoot",
      "outputs": [
        {
          "internalType": "bytes32",
          "name": "",
          "type": "bytes32"
        }
      ],
      "stateMutability": "view",
      "type": "function"
    },
    {
      "inputs": [
        {
          "components": [
            {
              "internalType": "uint256",
              "name": "index",
              "type": "uint256"
            },
            {
              "internalType": "address",
              "name": "grantee",
              "type": "address"
            },
            {
              "internalType": "uint256",
              "name": "amount",
              "type": "uint256"
            },
            {
              "internalType": "bytes32[]",
              "name": "merkleProof",
              "type": "bytes32[]"
            },
            {
              "internalType": "bytes32",
              "name": "projectId",
              "type": "bytes32"
            }
          ],
          "internalType": "struct MerklePayoutStrategyImplementation.Distribution[]",
          "name": "_distributions",
          "type": "tuple[]"
        }
      ],
      "name": "payout",
      "outputs": [],
      "stateMutability": "payable",
      "type": "function"
    },
    {
      "inputs": [],
      "name": "roundAddress",
      "outputs": [
        {
          "internalType": "address payable",
          "name": "",
          "type": "address"
        }
      ],
      "stateMutability": "view",
      "type": "function"
    },
    {
      "inputs": [],
      "name": "setReadyForPayout",
      "outputs": [],
      "stateMutability": "payable",
      "type": "function"
    },
    {
      "inputs": [],
      "name": "tokenAddress",
      "outputs": [
        {
          "internalType": "address",
          "name": "",
          "type": "address"
        }
      ],
      "stateMutability": "view",
      "type": "function"
    },
    {
      "inputs": [
        {
          "internalType": "bytes",
          "name": "encodedDistribution",
          "type": "bytes"
        }
      ],
      "name": "updateDistribution",
      "outputs": [],
      "stateMutability": "nonpayable",
      "type": "function"
    },
    {
      "inputs": [
        {
          "internalType": "address payable",
          "name": "withdrawAddress",
          "type": "address"
        }
      ],
      "name": "withdrawFunds",
      "outputs": [],
      "stateMutability": "payable",
      "type": "function"
    },
    {
      "stateMutability": "payable",
      "type": "receive"
    }
  ],
  "transactionHash": "0x39345a6419f0acdc8c0ce2512b8599bad8bd7d714e1de7a6acc7289bf1cecbed",
  "args": [],
  "numDeployments": 1,
  "solcInputHash": "c2f5f306ea0b2ecf9299eebc6de0e1d7",
  "bytecode": "0x608060405234801561001057600080fd5b50611b32806100206000396000f3fe6080604052600436106100ec5760003560e01c80638129fc1c1161008a578063e1c7392a11610059578063e1c7392a1461026c578063fd1a96a814610281578063fe169f7614610294578063ffa1ad741461029c57600080fd5b80638129fc1c146101f45780639d76ea5814610209578063b5ba9d3314610229578063d97f3dcf1461024a57600080fd5b80632eb4a7ab116100c65780632eb4a7ab1461017a5780635f1b55f31461019e57806368742da6146101be578063767f0652146101d157600080fd5b80630b36106b146100f85780630b67d9251461011a5780632d52eff21461015757600080fd5b366100f357005b600080fd5b34801561010457600080fd5b50610118610113366004611461565b6102da565b005b34801561012657600080fd5b5060005461013a906001600160a01b031681565b6040516001600160a01b0390911681526020015b60405180910390f35b34801561016357600080fd5b5060025415155b604051901515815260200161014e565b34801561018657600080fd5b5061019060025481565b60405190815260200161014e565b3480156101aa57600080fd5b5061016a6101b93660046114d3565b6104ee565b6101186101cc366004611501565b61052f565b3480156101dd57600080fd5b506101e66106f5565b60405161014e92919061156e565b34801561020057600080fd5b5061011861078c565b34801561021557600080fd5b5060015461013a906001600160a01b031681565b34801561023557600080fd5b5060015461016a90600160a01b900460ff1681565b34801561025657600080fd5b50610190600080516020611add83398151915281565b34801561027857600080fd5b506101186108ac565b61011861028f366004611587565b61099b565b610118610b0b565b3480156102a857600080fd5b506102cd604051806040016040528060058152602001640302e322e360dc1b81525081565b60405161014e91906115ea565b60008060009054906101000a90046001600160a01b03166001600160a01b031663e40205d66040518163ffffffff1660e01b8152600401602060405180830381865afa15801561032e573d6000803e3d6000fd5b505050506040513d601f19601f8201168201806040525081019061035291906115fd565b905080421161037c5760405162461bcd60e51b815260040161037390611616565b60405180910390fd5b600054604051632474521560e21b8152600080516020611add83398151915260048201523360248201526001600160a01b03909116906391d1485490604401602060405180830381865afa1580156103d8573d6000803e3d6000fd5b505050506040513d601f19601f820116820180604052508101906103fc9190611643565b6104185760405162461bcd60e51b815260040161037390611665565b600154600160a01b900460ff16156104725760405162461bcd60e51b815260206004820181905260248201527f5061796f75743a20416c726561647920726561647920666f72207061796f75746044820152606401610373565b60008061048184860186611701565b600282905580516004908155602082015192945090925082916005906104a7908261185c565b509050507fdc7180ca4affc84269428ed20ef950e745126f11691b010c4a7d49458421008f60025460046040516104df92919061191c565b60405180910390a15050505050565b6000806104fd610100846119d7565b9050600061050d610100856119eb565b60009283526003602052604090922054600190921b9182169091149392505050565b600054604051632474521560e21b8152600080516020611add83398151915260048201523360248201526001600160a01b03909116906391d1485490604401602060405180830381865afa15801561058b573d6000803e3d6000fd5b505050506040513d601f19601f820116820180604052508101906105af9190611643565b6105cb5760405162461bcd60e51b815260040161037390611665565b60008060009054906101000a90046001600160a01b03166001600160a01b031663e40205d66040518163ffffffff1660e01b8152600401602060405180830381865afa15801561061f573d6000803e3d6000fd5b505050506040513d601f19601f8201168201806040525081019061064391906115fd565b90508042116106645760405162461bcd60e51b815260040161037390611616565b600061066e610d24565b6001549091506001600160a01b03166106905761068b8382610dad565b6106a7565b6001546106a7906001600160a01b03168483610ecb565b600154604080518381526001600160a01b038681166020830152909216917fe9171aeff46c37ab955b8aff908e14ae9732bd06634fa131226cfe5c25bfd2fb910160405180910390a2505050565b6004805460058054919291610709906117d4565b80601f0160208091040260200160405190810160405280929190818152602001828054610735906117d4565b80156107825780601f1061075757610100808354040283529160200191610782565b820191906000526020600020905b81548152906001019060200180831161076557829003601f168201915b5050505050905082565b600154600160b01b900460ff16158080156107b2575060018054600160a81b900460ff16105b806107d25750303b1580156107d2575060018054600160a81b900460ff16145b6108355760405162461bcd60e51b815260206004820152602e60248201527f496e697469616c697a61626c653a20636f6e747261637420697320616c72656160448201526d191e481a5b9a5d1a585b1a5e995960921b6064820152608401610373565b6001805460ff60a81b1916600160a81b1790558015610862576001805460ff60b01b1916600160b01b1790555b80156108a9576001805460ff60b01b191681556040519081527f7f26b83ff96e1f2b6a682f133852f6798a09c465da95921460cefb38474024989060200160405180910390a15b50565b6000546001600160a01b0316156109055760405162461bcd60e51b815260206004820152601860248201527f726f756e644164647265737320616c72656164792073657400000000000000006044820152606401610373565b600080546001600160a01b0319163390811790915560408051637e062a3560e11b8152905163fc0c546a916004808201926020929091908290030181865afa158015610955573d6000803e3d6000fd5b505050506040513d601f19601f8201168201806040525081019061097991906119ff565b600180546001600160a81b0319166001600160a01b0392909216919091179055565b600054604051632474521560e21b8152600080516020611add83398151915260048201523360248201526001600160a01b03909116906391d1485490604401602060405180830381865afa1580156109f7573d6000803e3d6000fd5b505050506040513d601f19601f82011682018060405250810190610a1b9190611643565b610a375760405162461bcd60e51b815260040161037390611665565b60018054600160a01b900460ff16151514610a945760405162461bcd60e51b815260206004820152601c60248201527f5061796f75743a204e6f7420726561647920666f72207061796f7574000000006044820152606401610373565b60005b81811015610adb57610acb838383818110610ab457610ab4611a1c565b9050602002810190610ac69190611a32565b610f1d565b610ad481611a52565b9050610a97565b5060405133907f7ec3272052827f7b50d9e84f98172cbb80c112df1e377c5b97ea77f1812db8d990600090a25050565b6000546001600160a01b0316610b5b5760405162461bcd60e51b81526020600482015260156024820152741b9bdd081b1a5b9ad959081d1bc818481c9bdd5b99605a1b6044820152606401610373565b6000546001600160a01b03163314610bac5760405162461bcd60e51b81526020600482015260146024820152731b9bdd081a5b9d9bdad95908189e481c9bdd5b9960621b6044820152606401610373565b60008060009054906101000a90046001600160a01b03166001600160a01b031663e40205d66040518163ffffffff1660e01b8152600401602060405180830381865afa158015610c00573d6000803e3d6000fd5b505050506040513d601f19601f82011682018060405250810190610c2491906115fd565b9050804211610c455760405162461bcd60e51b815260040161037390611616565b600154600160a01b900460ff1615610c9f5760405162461bcd60e51b815260206004820152601c60248201527f69735265616479466f725061796f757420616c726561647920736574000000006044820152606401610373565b600254610ce55760405162461bcd60e51b8152602060048201526014602482015273191a5cdd1c9a589d5d1a5bdb881b9bdd081cd95d60621b6044820152606401610373565b6001805460ff60a01b1916600160a01b1790556040517f7b9d6265b7710fe1b51f9f051045998fcb310de76ab8f2cbb2e7d571d079254c90600090a150565b6001546000906001600160a01b0316610d3c57504790565b6001546040516370a0823160e01b81523060048201526001600160a01b03909116906370a0823190602401602060405180830381865afa158015610d84573d6000803e3d6000fd5b505050506040513d601f19601f82011682018060405250810190610da891906115fd565b905090565b80471015610dfd5760405162461bcd60e51b815260206004820152601d60248201527f416464726573733a20696e73756666696369656e742062616c616e63650000006044820152606401610373565b6000826001600160a01b03168260405160006040518083038185875af1925050503d8060008114610e4a576040519150601f19603f3d011682016040523d82523d6000602084013e610e4f565b606091505b5050905080610ec65760405162461bcd60e51b815260206004820152603a60248201527f416464726573733a20756e61626c6520746f2073656e642076616c75652c207260448201527f6563697069656e74206d617920686176652072657665727465640000000000006064820152608401610373565b505050565b604080516001600160a01b038416602482015260448082018490528251808303909101815260649091019091526020810180516001600160e01b031663a9059cbb60e01b179052610ec69084906110f4565b80356000610f316040840160208501611501565b9050604083013560808401356000610f4c6060870187611a79565b80806020026020016040519081016040528093929190818152602001838360200280828437600092019190915250929350610f8c92508791506104ee9050565b15610fd95760405162461bcd60e51b815260206004820152601b60248201527f5061796f75743a20416c726561647920646973747269627574656400000000006044820152606401610373565b60408051602081018790526001600160a01b03861691810191909152606081018490526080810183905260009060a00160408051601f198184030181528282528051602091820120908301520160405160208183030381529060405280519060200120905061104b82600254836111c9565b61108f5760405162461bcd60e51b81526020600482015260156024820152742830bcb7baba1d1024b73b30b634b210383937b7b360591b6044820152606401610373565b611098866111df565b6110a2858561121d565b600154604080518681526001600160a01b038881166020830152869316917f7a0b32f604a8c94326322861039a44b7ed78624cf220ba8b586a2447af0d9c9b910160405180910390a350505050505050565b6000611149826040518060400160405280602081526020017f5361666545524332303a206c6f772d6c6576656c2063616c6c206661696c6564815250856001600160a01b03166112529092919063ffffffff16565b905080516000148061116a57508080602001905181019061116a9190611643565b610ec65760405162461bcd60e51b815260206004820152602a60248201527f5361666545524332303a204552433230206f7065726174696f6e20646964206e6044820152691bdd081cdd58d8d9595960b21b6064820152608401610373565b6000826111d68584611269565b14949350505050565b60006111ed610100836119d7565b905060006111fd610100846119eb565b6000928352600360205260409092208054600190931b9092179091555050565b6001546001600160a01b031661123b576112378282610dad565b5050565b600154611237906001600160a01b03168383610ecb565b606061126184846000856112b6565b949350505050565b600081815b84518110156112ae5761129a8286838151811061128d5761128d611a1c565b6020026020010151611391565b9150806112a681611a52565b91505061126e565b509392505050565b6060824710156113175760405162461bcd60e51b815260206004820152602660248201527f416464726573733a20696e73756666696369656e742062616c616e636520666f6044820152651c8818d85b1b60d21b6064820152608401610373565b600080866001600160a01b031685876040516113339190611aca565b60006040518083038185875af1925050503d8060008114611370576040519150601f19603f3d011682016040523d82523d6000602084013e611375565b606091505b5091509150611386878383876113c3565b979650505050505050565b60008183106113ad5760008281526020849052604090206113bc565b60008381526020839052604090205b9392505050565b6060831561143257825160000361142b576001600160a01b0385163b61142b5760405162461bcd60e51b815260206004820152601d60248201527f416464726573733a2063616c6c20746f206e6f6e2d636f6e74726163740000006044820152606401610373565b5081611261565b61126183838151156114475781518083602001fd5b8060405162461bcd60e51b815260040161037391906115ea565b6000806020838503121561147457600080fd5b823567ffffffffffffffff8082111561148c57600080fd5b818501915085601f8301126114a057600080fd5b8135818111156114af57600080fd5b8660208285010111156114c157600080fd5b60209290920196919550909350505050565b6000602082840312156114e557600080fd5b5035919050565b6001600160a01b03811681146108a957600080fd5b60006020828403121561151357600080fd5b81356113bc816114ec565b60005b83811015611539578181015183820152602001611521565b50506000910152565b6000815180845261155a81602086016020860161151e565b601f01601f19169290920160200192915050565b8281526040602082015260006112616040830184611542565b6000806020838503121561159a57600080fd5b823567ffffffffffffffff808211156115b257600080fd5b818501915085601f8301126115c657600080fd5b8135818111156115d557600080fd5b8660208260051b85010111156114c157600080fd5b6020815260006113bc6020830184611542565b60006020828403121561160f57600080fd5b5051919050565b6020808252601390820152721c9bdd5b99081a185cc81b9bdd08195b991959606a1b604082015260600190565b60006020828403121561165557600080fd5b815180151581146113bc57600080fd5b6020808252601290820152713737ba103937bab7321037b832b930ba37b960711b604082015260600190565b634e487b7160e01b600052604160045260246000fd5b6040805190810167ffffffffffffffff811182821017156116ca576116ca611691565b60405290565b604051601f8201601f1916810167ffffffffffffffff811182821017156116f9576116f9611691565b604052919050565b6000806040838503121561171457600080fd5b8235915060208084013567ffffffffffffffff8082111561173457600080fd5b908501906040828803121561174857600080fd5b6117506116a7565b82358152838301358281111561176557600080fd5b80840193505087601f84011261177a57600080fd5b82358281111561178c5761178c611691565b61179e601f8201601f191686016116d0565b925080835288858286010111156117b457600080fd5b808585018685013760009083018501529283015250919491935090915050565b600181811c908216806117e857607f821691505b60208210810361180857634e487b7160e01b600052602260045260246000fd5b50919050565b601f821115610ec657600081815260208120601f850160051c810160208610156118355750805b601f850160051c820191505b8181101561185457828155600101611841565b505050505050565b815167ffffffffffffffff81111561187657611876611691565b61188a8161188484546117d4565b8461180e565b602080601f8311600181146118bf57600084156118a75750858301515b600019600386901b1c1916600185901b178555611854565b600085815260208120601f198616915b828110156118ee578886015182559484019460019091019084016118cf565b508582101561190c5787850151600019600388901b60f8161c191681555b5050505050600190811b01905550565b828152600060206040818401528354604084015260018085016040606086015260008154611949816117d4565b80608089015260a0858316600081146119695760018114611983576119b1565b60ff1984168a83015282151560051b8a01820194506119b1565b856000528760002060005b848110156119a95781548c820185015290880190890161198e565b8b0183019550505b50929a9950505050505050505050565b634e487b7160e01b600052601260045260246000fd5b6000826119e6576119e66119c1565b500490565b6000826119fa576119fa6119c1565b500690565b600060208284031215611a1157600080fd5b81516113bc816114ec565b634e487b7160e01b600052603260045260246000fd5b60008235609e19833603018112611a4857600080fd5b9190910192915050565b600060018201611a7257634e487b7160e01b600052601160045260246000fd5b5060010190565b6000808335601e19843603018112611a9057600080fd5b83018035915067ffffffffffffffff821115611aab57600080fd5b6020019150600581901b3603821315611ac357600080fd5b9250929050565b60008251611a4881846020870161151e56feec61da14b5abbac5c5fda6f1d57642a264ebd5d0674f35852829746dfb8174a5a264697066735822122024e3aacbe60aac104ac4fc19376b3e1b7d173f670103962d65161194c955901064736f6c63430008110033",
  "devdoc": {
    "kind": "dev",
    "methods": {
      "hasBeenDistributed(uint256)": {
        "params": {
          "_index": "index of the distribution"
        }
      },
      "payout((uint256,address,uint256,bytes32[],bytes32)[])": {
        "details": "can be invoked only by round operator",
        "params": {
          "_distributions": "encoded distribution"
        }
      },
      "updateDistribution(bytes)": {
        "params": {
          "encodedDistribution": "encoded distribution"
        }
      },
      "withdrawFunds(address)": {
        "params": {
          "withdrawAddress": "withdraw funds address"
        }
      }
    },
    "version": 1
  },
  "userdoc": {
    "events": {
      "BatchPayoutSuccessful(address)": {
        "notice": "Emitted when batch payout is successful"
      },
      "DistributionUpdated(bytes32,(uint256,string))": {
        "notice": "Emitted when the distribution is updated"
      },
      "FundsDistributed(uint256,address,address,bytes32)": {
        "notice": "Emitted when funds are distributed"
      },
      "FundsWithdrawn(address,uint256,address)": {
        "notice": "Emitted when funds are withdrawn from the payout contract"
      },
      "ReadyForPayout()": {
        "notice": "Emitted when contract is ready for payout"
      }
    },
    "kind": "user",
    "methods": {
      "ROUND_OPERATOR_ROLE()": {
        "notice": "round operator role"
      },
      "distributionMetaPtr()": {
        "notice": "MetaPtr containing the distribution"
      },
      "hasBeenDistributed(uint256)": {
        "notice": "Util function to check if distribution is done"
      },
      "init()": {
        "notice": "Invoked by RoundImplementation on creation to set the round for which the payout strategy is to be used"
      },
      "isDistributionSet()": {
        "notice": "function to check if distribution is set"
      },
      "merkleRoot()": {
        "notice": "merkle root generated from distribution"
      },
      "payout((uint256,address,uint256,bytes32[],bytes32)[])": {
        "notice": "function to distribute funds to recipient"
      },
      "roundAddress()": {
        "notice": "RoundImplementation address"
      },
      "setReadyForPayout()": {
        "notice": "Invoked by RoundImplementation to set isReadyForPayout"
      },
      "tokenAddress()": {
        "notice": "Token address"
      },
      "updateDistribution(bytes)": {
        "notice": "Invoked by round operator to update the merkle root and distribution MetaPtr"
      },
      "withdrawFunds(address)": {
        "notice": "Invoked by RoundImplementation to withdraw funds to withdrawAddress from the payout contract"
      }
    },
    "notice": "Merkle Payout Strategy contract which is deployed once per round and is used to upload the final match distribution.",
    "version": 1
  },
  "storageLayout": {
    "storage": [
      {
        "astId": 5171,
        "contract": "contracts/payoutStrategy/Merkle/MerklePayoutStrategyImplementation.sol:MerklePayoutStrategyImplementation",
        "label": "roundAddress",
        "offset": 0,
        "slot": "0",
        "type": "t_address_payable"
      },
      {
        "astId": 5174,
        "contract": "contracts/payoutStrategy/Merkle/MerklePayoutStrategyImplementation.sol:MerklePayoutStrategyImplementation",
        "label": "tokenAddress",
        "offset": 0,
        "slot": "1",
        "type": "t_address"
      },
      {
        "astId": 5176,
        "contract": "contracts/payoutStrategy/Merkle/MerklePayoutStrategyImplementation.sol:MerklePayoutStrategyImplementation",
        "label": "isReadyForPayout",
        "offset": 20,
        "slot": "1",
        "type": "t_bool"
      },
      {
        "astId": 800,
        "contract": "contracts/payoutStrategy/Merkle/MerklePayoutStrategyImplementation.sol:MerklePayoutStrategyImplementation",
        "label": "_initialized",
        "offset": 21,
        "slot": "1",
        "type": "t_uint8"
      },
      {
        "astId": 803,
        "contract": "contracts/payoutStrategy/Merkle/MerklePayoutStrategyImplementation.sol:MerklePayoutStrategyImplementation",
        "label": "_initializing",
        "offset": 22,
        "slot": "1",
        "type": "t_bool"
      },
      {
        "astId": 5449,
        "contract": "contracts/payoutStrategy/Merkle/MerklePayoutStrategyImplementation.sol:MerklePayoutStrategyImplementation",
        "label": "merkleRoot",
        "offset": 0,
        "slot": "2",
        "type": "t_bytes32"
      },
      {
        "astId": 5454,
        "contract": "contracts/payoutStrategy/Merkle/MerklePayoutStrategyImplementation.sol:MerklePayoutStrategyImplementation",
        "label": "distributedBitMap",
        "offset": 0,
        "slot": "3",
        "type": "t_mapping(t_uint256,t_uint256)"
      },
      {
        "astId": 5458,
        "contract": "contracts/payoutStrategy/Merkle/MerklePayoutStrategyImplementation.sol:MerklePayoutStrategyImplementation",
        "label": "distributionMetaPtr",
        "offset": 0,
        "slot": "4",
        "type": "t_struct(MetaPtr)7291_storage"
      }
    ],
    "types": {
      "t_address": {
        "encoding": "inplace",
        "label": "address",
        "numberOfBytes": "20"
      },
      "t_address_payable": {
        "encoding": "inplace",
        "label": "address payable",
        "numberOfBytes": "20"
      },
      "t_bool": {
        "encoding": "inplace",
        "label": "bool",
        "numberOfBytes": "1"
      },
      "t_bytes32": {
        "encoding": "inplace",
        "label": "bytes32",
        "numberOfBytes": "32"
      },
      "t_mapping(t_uint256,t_uint256)": {
        "encoding": "mapping",
        "key": "t_uint256",
        "label": "mapping(uint256 => uint256)",
        "numberOfBytes": "32",
        "value": "t_uint256"
      },
      "t_string_storage": {
        "encoding": "bytes",
        "label": "string",
        "numberOfBytes": "32"
      },
      "t_struct(MetaPtr)7291_storage": {
        "encoding": "inplace",
        "label": "struct MetaPtr",
        "members": [
          {
            "astId": 7287,
            "contract": "contracts/payoutStrategy/Merkle/MerklePayoutStrategyImplementation.sol:MerklePayoutStrategyImplementation",
            "label": "protocol",
            "offset": 0,
            "slot": "0",
            "type": "t_uint256"
          },
          {
            "astId": 7290,
            "contract": "contracts/payoutStrategy/Merkle/MerklePayoutStrategyImplementation.sol:MerklePayoutStrategyImplementation",
            "label": "pointer",
            "offset": 0,
            "slot": "1",
            "type": "t_string_storage"
          }
        ],
        "numberOfBytes": "64"
      },
      "t_uint256": {
        "encoding": "inplace",
        "label": "uint256",
        "numberOfBytes": "32"
      },
      "t_uint8": {
        "encoding": "inplace",
        "label": "uint8",
        "numberOfBytes": "1"
      }
    }
  }
}