{
  "address": "0x78Ca926C91c0A747ffA896989D1628ADfE5A7810",
  "abi": [
    {
      "anonymous": false,
      "inputs": [
        {
          "indexed": false,
          "internalType": "uint8",
          "name": "version",
          "type": "uint8"
        }
      ],
      "name": "Initialized",
      "type": "event"
    },
    {
      "anonymous": false,
      "inputs": [
        {
          "indexed": true,
          "internalType": "uint256",
          "name": "projectID",
          "type": "uint256"
        },
        {
          "components": [
            {
              "internalType": "uint256",
              "name": "protocol",
              "type": "uint256"
            },
            {
              "internalType": "string",
              "name": "pointer",
              "type": "string"
            }
          ],
          "indexed": false,
          "internalType": "struct MetaPtr",
          "name": "metaPtr",
          "type": "tuple"
        }
      ],
      "name": "MetadataUpdated",
      "type": "event"
    },
    {
      "anonymous": false,
      "inputs": [
        {
          "indexed": true,
          "internalType": "uint256",
          "name": "projectID",
          "type": "uint256"
        },
        {
          "indexed": true,
          "internalType": "address",
          "name": "owner",
          "type": "address"
        }
      ],
      "name": "OwnerAdded",
      "type": "event"
    },
    {
      "anonymous": false,
      "inputs": [
        {
          "indexed": true,
          "internalType": "uint256",
          "name": "projectID",
          "type": "uint256"
        },
        {
          "indexed": true,
          "internalType": "address",
          "name": "owner",
          "type": "address"
        }
      ],
      "name": "OwnerRemoved",
      "type": "event"
    },
    {
      "anonymous": false,
      "inputs": [
        {
          "indexed": true,
          "internalType": "uint256",
          "name": "projectID",
          "type": "uint256"
        },
        {
          "indexed": true,
          "internalType": "address",
          "name": "owner",
          "type": "address"
        }
      ],
      "name": "ProjectCreated",
      "type": "event"
    },
    {
      "inputs": [
        {
          "internalType": "uint256",
          "name": "projectID",
          "type": "uint256"
        },
        {
          "internalType": "address",
          "name": "newOwner",
          "type": "address"
        }
      ],
      "name": "addProjectOwner",
      "outputs": [],
      "stateMutability": "nonpayable",
      "type": "function"
    },
    {
      "inputs": [
        {
          "components": [
            {
              "internalType": "uint256",
              "name": "protocol",
              "type": "uint256"
            },
            {
              "internalType": "string",
              "name": "pointer",
              "type": "string"
            }
          ],
          "internalType": "struct MetaPtr",
          "name": "metadata",
          "type": "tuple"
        }
      ],
      "name": "createProject",
      "outputs": [],
      "stateMutability": "nonpayable",
      "type": "function"
    },
    {
      "inputs": [
        {
          "internalType": "uint256",
          "name": "projectID",
          "type": "uint256"
        }
      ],
      "name": "getProjectOwners",
      "outputs": [
        {
          "internalType": "address[]",
          "name": "",
          "type": "address[]"
        }
      ],
      "stateMutability": "view",
      "type": "function"
    },
    {
      "inputs": [],
      "name": "initialize",
      "outputs": [],
      "stateMutability": "nonpayable",
      "type": "function"
    },
    {
      "inputs": [
        {
          "internalType": "uint256",
          "name": "projectID",
          "type": "uint256"
        }
      ],
      "name": "projectOwnersCount",
      "outputs": [
        {
          "internalType": "uint256",
          "name": "",
          "type": "uint256"
        }
      ],
      "stateMutability": "view",
      "type": "function"
    },
    {
      "inputs": [
        {
          "internalType": "uint256",
          "name": "",
          "type": "uint256"
        }
      ],
      "name": "projects",
      "outputs": [
        {
          "internalType": "uint256",
          "name": "id",
          "type": "uint256"
        },
        {
          "components": [
            {
              "internalType": "uint256",
              "name": "protocol",
              "type": "uint256"
            },
            {
              "internalType": "string",
              "name": "pointer",
              "type": "string"
            }
          ],
          "internalType": "struct MetaPtr",
          "name": "metadata",
          "type": "tuple"
        }
      ],
      "stateMutability": "view",
      "type": "function"
    },
    {
      "inputs": [],
      "name": "projectsCount",
      "outputs": [
        {
          "internalType": "uint256",
          "name": "",
          "type": "uint256"
        }
      ],
      "stateMutability": "view",
      "type": "function"
    },
    {
      "inputs": [
        {
          "internalType": "uint256",
          "name": "",
          "type": "uint256"
        }
      ],
      "name": "projectsOwners",
      "outputs": [
        {
          "internalType": "uint256",
          "name": "count",
          "type": "uint256"
        }
      ],
      "stateMutability": "view",
      "type": "function"
    },
    {
      "inputs": [
        {
          "internalType": "uint256",
          "name": "projectID",
          "type": "uint256"
        },
        {
          "internalType": "address",
          "name": "prevOwner",
          "type": "address"
        },
        {
          "internalType": "address",
          "name": "owner",
          "type": "address"
        }
      ],
      "name": "removeProjectOwner",
      "outputs": [],
      "stateMutability": "nonpayable",
      "type": "function"
    },
    {
      "inputs": [
        {
          "internalType": "uint256",
          "name": "projectID",
          "type": "uint256"
        },
        {
          "components": [
            {
              "internalType": "uint256",
              "name": "protocol",
              "type": "uint256"
            },
            {
              "internalType": "string",
              "name": "pointer",
              "type": "string"
            }
          ],
          "internalType": "struct MetaPtr",
          "name": "metadata",
          "type": "tuple"
        }
      ],
      "name": "updateProjectMetadata",
      "outputs": [],
      "stateMutability": "nonpayable",
      "type": "function"
    }
  ],
  "transactionHash": "0x6c4f494a7e4c50dd96b4f33b852174e8644f3746f957541714156050184003b1",
  "args": [],
  "numDeployments": 1,
  "solcInputHash": "0a45bcfb9a2c97969d806a1cee0214fe",
  "bytecode": "0x608060405234801561001057600080fd5b50610dd5806100206000396000f3fe608060405234801561001057600080fd5b506004361061009e5760003560e01c8063834a973611610066578063834a97361461012b578063c172dc231461013e578063c73b302e1461015e578063e63f592c14610167578063fd5423a81461018757600080fd5b8063107046bd146100a35780632d9fcf03146100cd5780633044ef7f146100e257806378892204146100f55780638129fc1c14610123575b600080fd5b6100b66100b1366004610920565b61019a565b6040516100c4929190610939565b60405180910390f35b6100e06100db3660046109be565b610264565b005b6100e06100f0366004610a12565b610439565b610115610103366004610920565b60009081526003602052604090205490565b6040519081526020016100c4565b6100e061051e565b6100e0610139366004610a4f565b6105f5565b61011561014c366004610920565b60036020526000908152604090205481565b61011560015481565b61017a610175366004610920565b610689565b6040516100c49190610a96565b6100e0610195366004610ae3565b61077d565b600260205280600052604060002060009150905080600001549080600101604051806040016040529081600082015481526020016001820180546101dd90610b0f565b80601f016020809104026020016040519081016040528092919081815260200182805461020990610b0f565b80156102565780601f1061022b57610100808354040283529160200191610256565b820191906000526020600020905b81548152906001019060200180831161023957829003601f168201915b505050505081525050905082565b600083815260036020908152604080832033845260010190915290205483906001600160a01b03166102b15760405162461bcd60e51b81526004016102a890610b43565b60405180910390fd5b6001600160a01b038216158015906102d357506001600160a01b038216600114155b6103075760405162461bcd60e51b8152602060048201526005602482015264505230303160d81b60448201526064016102a8565b60008481526003602090815260408083206001600160a01b038781168552600182019093529220548116908416146103695760405162461bcd60e51b8152602060048201526005602482015264505230303360d81b60448201526064016102a8565b80546001106103a25760405162461bcd60e51b815260206004820152600560248201526414148c0c0d60da1b60448201526064016102a8565b6001600160a01b038381166000818152600184016020526040808220805489861684529183208054929095166001600160a01b031992831617909455918152825490911690915581549082906103f783610b78565b90915550506040516001600160a01b0384169086907f2d2f043cb8f93c6464e5ce5b93e72c2863eeb044241ea316d2a5a9af9320712190600090a35050505050565b600180546000918261044a83610b8f565b90915550600081815260026020526040902081815590915082600182016104718282610c0d565b5050600082815260036020908152604080832060018085528082019093528184208054336001600160a01b0319918216811790925581865283862080549091168517905592905551909184917f63c92f9505d420bff631cb9df33be952bdc11e2118da36a850b43e6bcc4ce4de9190a3817ff92c2639c25d6a22c38e6d6b293f74a9b22491273b1dbb67fc1255222696be5b846040516105119190610d06565b60405180910390a2505050565b600054600190610100900460ff16158015610540575060005460ff8083169116105b6105a35760405162461bcd60e51b815260206004820152602e60248201527f496e697469616c697a61626c653a20636f6e747261637420697320616c72656160448201526d191e481a5b9a5d1a585b1a5e995960921b60648201526084016102a8565b6000805461ffff191660ff83169081176101001761ff0019169091556040519081527f7f26b83ff96e1f2b6a682f133852f6798a09c465da95921460cefb38474024989060200160405180910390a150565b600082815260036020908152604080832033845260010190915290205482906001600160a01b03166106395760405162461bcd60e51b81526004016102a890610b43565b600083815260026020526040902082906001016106568282610c0d565b905050827ff92c2639c25d6a22c38e6d6b293f74a9b22491273b1dbb67fc1255222696be5b836040516105119190610d06565b600081815260036020526040812080546060929067ffffffffffffffff8111156106b5576106b5610ba8565b6040519080825280602002602001820160405280156106de578160200160208202803683370190505b50600160008181529084016020526040812054919250906001600160a01b03168061070d575090949350505050565b6001600160a01b038116600114610773578083838151811061073157610731610d89565b6001600160a01b03928316602091820292909201810191909152918116600090815260018601909252604090912054168161076b81610b8f565b92505061070d565b5090949350505050565b600082815260036020908152604080832033845260010190915290205482906001600160a01b03166107c15760405162461bcd60e51b81526004016102a890610b43565b6001600160a01b038216158015906107e357506001600160a01b038216600114155b80156107f857506001600160a01b0382163014155b61082c5760405162461bcd60e51b8152602060048201526005602482015264505230303160d81b60448201526064016102a8565b60008381526003602090815260408083206001600160a01b03868116855260018201909352922054161561088a5760405162461bcd60e51b8152602060048201526005602482015264282918181960d91b60448201526064016102a8565b60016000818152828201602052604080822080546001600160a01b038881168086529385208054919092166001600160a01b03199182161790915593835280549093161790915581549082906108df83610b8f565b90915550506040516001600160a01b0384169085907fab7a51f59a55e3b65bbabf99457f8955ff12366d20e368988c35d2eab9bd8df990600090a350505050565b60006020828403121561093257600080fd5b5035919050565b82815260006020604081840152835160408401528084015160406060850152805180608086015260005b8181101561097f5782810184015186820160a001528301610963565b50600060a0828701015260a0601f19601f83011686010193505050509392505050565b80356001600160a01b03811681146109b957600080fd5b919050565b6000806000606084860312156109d357600080fd5b833592506109e3602085016109a2565b91506109f1604085016109a2565b90509250925092565b600060408284031215610a0c57600080fd5b50919050565b600060208284031215610a2457600080fd5b813567ffffffffffffffff811115610a3b57600080fd5b610a47848285016109fa565b949350505050565b60008060408385031215610a6257600080fd5b82359150602083013567ffffffffffffffff811115610a8057600080fd5b610a8c858286016109fa565b9150509250929050565b6020808252825182820181905260009190848201906040850190845b81811015610ad75783516001600160a01b031683529284019291840191600101610ab2565b50909695505050505050565b60008060408385031215610af657600080fd5b82359150610b06602084016109a2565b90509250929050565b600181811c90821680610b2357607f821691505b602082108103610a0c57634e487b7160e01b600052602260045260246000fd5b602080825260059082015264050523030360dc1b604082015260600190565b634e487b7160e01b600052601160045260246000fd5b600081610b8757610b87610b62565b506000190190565b600060018201610ba157610ba1610b62565b5060010190565b634e487b7160e01b600052604160045260246000fd5b601f821115610c0857600081815260208120601f850160051c81016020861015610be55750805b601f850160051c820191505b81811015610c0457828155600101610bf1565b5050505b505050565b813581556001808201602080850135601e19863603018112610c2e57600080fd5b8501803567ffffffffffffffff811115610c4757600080fd5b8036038383011315610c5857600080fd5b610c6c81610c668654610b0f565b86610bbe565b6000601f821160018114610ca25760008315610c8a57508382018501355b600019600385901b1c1916600184901b178655610cfb565b600086815260209020601f19841690835b82811015610cd257868501880135825593870193908901908701610cb3565b5084821015610cf15760001960f88660031b161c198785880101351681555b50508683881b0186555b505050505050505050565b602081528135602082015260006020830135601e19843603018112610d2a57600080fd5b830160208101903567ffffffffffffffff811115610d4757600080fd5b803603821315610d5657600080fd5b604080850152806060850152808260808601376000608082860101526080601f19601f8301168501019250505092915050565b634e487b7160e01b600052603260045260246000fdfea264697066735822122090450a3fcd0dd8a4c1ec2db984db3001ce784b7ae0a82a40e972024466289a5664736f6c63430008110033",
  "devdoc": {
    "kind": "dev",
    "methods": {
      "addProjectOwner(uint256,address)": {
        "params": {
          "newOwner": "address of new project owner",
          "projectID": "ID of previously created project"
        }
      },
      "createProject((uint256,string))": {
        "params": {
          "metadata": "the metadata pointer"
        }
      },
      "getProjectOwners(uint256)": {
        "params": {
          "projectID": "ID of project "
        },
        "returns": {
          "_0": "List of current owners of given project"
        }
      },
      "initialize()": {
        "details": "In future deploys of the implementation, a higher version should be passed to reinitializer"
      },
      "projectOwnersCount(uint256)": {
        "params": {
          "projectID": "ID of project "
        },
        "returns": {
          "_0": "Count of owners for given project"
        }
      },
      "removeProjectOwner(uint256,address,address)": {
        "params": {
          "owner": "Address of new Owner",
          "prevOwner": "Address of previous owner in OwnerList",
          "projectID": "ID of previously created project"
        }
      },
      "updateProjectMetadata(uint256,(uint256,string))": {
        "params": {
          "metadata": "Updated pointer to external metadata",
          "projectID": "ID of previously created project"
        }
      }
    },
    "title": "ProjectRegistry",
    "version": 1
  },
  "userdoc": {
    "kind": "user",
    "methods": {
      "addProjectOwner(uint256,address)": {
        "notice": "Associate a new owner with a project"
      },
      "createProject((uint256,string))": {
        "notice": "Creates a new project with a metadata pointer"
      },
      "getProjectOwners(uint256)": {
        "notice": "Retrieve list of project owners "
      },
      "initialize()": {
        "notice": "Initializes the contract after an upgrade"
      },
      "projectOwnersCount(uint256)": {
        "notice": "Retrieve count of existing project owners"
      },
      "removeProjectOwner(uint256,address,address)": {
        "notice": "Disassociate an existing owner from a project"
      },
      "updateProjectMetadata(uint256,(uint256,string))": {
        "notice": "Updates Metadata for single project"
      }
    },
    "version": 1
  },
  "storageLayout": {
    "storage": [
      {
        "astId": 800,
        "contract": "contracts/projectRegistry/ProjectRegistry.sol:ProjectRegistry",
        "label": "_initialized",
        "offset": 0,
        "slot": "0",
        "type": "t_uint8"
      },
      {
        "astId": 803,
        "contract": "contracts/projectRegistry/ProjectRegistry.sol:ProjectRegistry",
        "label": "_initializing",
        "offset": 1,
        "slot": "0",
        "type": "t_bool"
      },
      {
        "astId": 8062,
        "contract": "contracts/projectRegistry/ProjectRegistry.sol:ProjectRegistry",
        "label": "projectsCount",
        "offset": 0,
        "slot": "1",
        "type": "t_uint256"
      },
      {
        "astId": 8067,
        "contract": "contracts/projectRegistry/ProjectRegistry.sol:ProjectRegistry",
        "label": "projects",
        "offset": 0,
        "slot": "2",
        "type": "t_mapping(t_uint256,t_struct(Project)8047_storage)"
      },
      {
        "astId": 8072,
        "contract": "contracts/projectRegistry/ProjectRegistry.sol:ProjectRegistry",
        "label": "projectsOwners",
        "offset": 0,
        "slot": "3",
        "type": "t_mapping(t_uint256,t_struct(OwnerList)8054_storage)"
      }
    ],
    "types": {
      "t_address": {
        "encoding": "inplace",
        "label": "address",
        "numberOfBytes": "20"
      },
      "t_bool": {
        "encoding": "inplace",
        "label": "bool",
        "numberOfBytes": "1"
      },
      "t_mapping(t_address,t_address)": {
        "encoding": "mapping",
        "key": "t_address",
        "label": "mapping(address => address)",
        "numberOfBytes": "32",
        "value": "t_address"
      },
      "t_mapping(t_uint256,t_struct(OwnerList)8054_storage)": {
        "encoding": "mapping",
        "key": "t_uint256",
        "label": "mapping(uint256 => struct ProjectRegistry.OwnerList)",
        "numberOfBytes": "32",
        "value": "t_struct(OwnerList)8054_storage"
      },
      "t_mapping(t_uint256,t_struct(Project)8047_storage)": {
        "encoding": "mapping",
        "key": "t_uint256",
        "label": "mapping(uint256 => struct ProjectRegistry.Project)",
        "numberOfBytes": "32",
        "value": "t_struct(Project)8047_storage"
      },
      "t_string_storage": {
        "encoding": "bytes",
        "label": "string",
        "numberOfBytes": "32"
      },
      "t_struct(MetaPtr)10071_storage": {
        "encoding": "inplace",
        "label": "struct MetaPtr",
        "members": [
          {
            "astId": 10067,
            "contract": "contracts/projectRegistry/ProjectRegistry.sol:ProjectRegistry",
            "label": "protocol",
            "offset": 0,
            "slot": "0",
            "type": "t_uint256"
          },
          {
            "astId": 10070,
            "contract": "contracts/projectRegistry/ProjectRegistry.sol:ProjectRegistry",
            "label": "pointer",
            "offset": 0,
            "slot": "1",
            "type": "t_string_storage"
          }
        ],
        "numberOfBytes": "64"
      },
      "t_struct(OwnerList)8054_storage": {
        "encoding": "inplace",
        "label": "struct ProjectRegistry.OwnerList",
        "members": [
          {
            "astId": 8049,
            "contract": "contracts/projectRegistry/ProjectRegistry.sol:ProjectRegistry",
            "label": "count",
            "offset": 0,
            "slot": "0",
            "type": "t_uint256"
          },
          {
            "astId": 8053,
            "contract": "contracts/projectRegistry/ProjectRegistry.sol:ProjectRegistry",
            "label": "list",
            "offset": 0,
            "slot": "1",
            "type": "t_mapping(t_address,t_address)"
          }
        ],
        "numberOfBytes": "64"
      },
      "t_struct(Project)8047_storage": {
        "encoding": "inplace",
        "label": "struct ProjectRegistry.Project",
        "members": [
          {
            "astId": 8043,
            "contract": "contracts/projectRegistry/ProjectRegistry.sol:ProjectRegistry",
            "label": "id",
            "offset": 0,
            "slot": "0",
            "type": "t_uint256"
          },
          {
            "astId": 8046,
            "contract": "contracts/projectRegistry/ProjectRegistry.sol:ProjectRegistry",
            "label": "metadata",
            "offset": 0,
            "slot": "1",
            "type": "t_struct(MetaPtr)10071_storage"
          }
        ],
        "numberOfBytes": "96"
      },
      "t_uint256": {
        "encoding": "inplace",
        "label": "uint256",
        "numberOfBytes": "32"
      },
      "t_uint8": {
        "encoding": "inplace",
        "label": "uint8",
        "numberOfBytes": "1"
      }
    }
  }
}