{
  "address": "0x1858F0072D8E5Bc1ab5e6B63a574da57655cbA2F",
  "abi": [
    {
      "anonymous": false,
      "inputs": [
        {
          "indexed": false,
          "internalType": "uint8",
          "name": "version",
          "type": "uint8"
        }
      ],
      "name": "Initialized",
      "type": "event"
    },
    {
      "anonymous": false,
      "inputs": [
        {
          "indexed": true,
          "internalType": "uint256",
          "name": "projectID",
          "type": "uint256"
        },
        {
          "components": [
            {
              "internalType": "uint256",
              "name": "protocol",
              "type": "uint256"
            },
            {
              "internalType": "string",
              "name": "pointer",
              "type": "string"
            }
          ],
          "indexed": false,
          "internalType": "struct MetaPtr",
          "name": "metaPtr",
          "type": "tuple"
        }
      ],
      "name": "MetadataUpdated",
      "type": "event"
    },
    {
      "anonymous": false,
      "inputs": [
        {
          "indexed": true,
          "internalType": "uint256",
          "name": "projectID",
          "type": "uint256"
        },
        {
          "indexed": true,
          "internalType": "address",
          "name": "owner",
          "type": "address"
        }
      ],
      "name": "OwnerAdded",
      "type": "event"
    },
    {
      "anonymous": false,
      "inputs": [
        {
          "indexed": true,
          "internalType": "uint256",
          "name": "projectID",
          "type": "uint256"
        },
        {
          "indexed": true,
          "internalType": "address",
          "name": "owner",
          "type": "address"
        }
      ],
      "name": "OwnerRemoved",
      "type": "event"
    },
    {
      "anonymous": false,
      "inputs": [
        {
          "indexed": true,
          "internalType": "uint256",
          "name": "projectID",
          "type": "uint256"
        },
        {
          "indexed": true,
          "internalType": "address",
          "name": "owner",
          "type": "address"
        }
      ],
      "name": "ProjectCreated",
      "type": "event"
    },
    {
      "inputs": [
        {
          "internalType": "uint256",
          "name": "projectID",
          "type": "uint256"
        },
        {
          "internalType": "address",
          "name": "newOwner",
          "type": "address"
        }
      ],
      "name": "addProjectOwner",
      "outputs": [],
      "stateMutability": "nonpayable",
      "type": "function"
    },
    {
      "inputs": [
        {
          "components": [
            {
              "internalType": "uint256",
              "name": "protocol",
              "type": "uint256"
            },
            {
              "internalType": "string",
              "name": "pointer",
              "type": "string"
            }
          ],
          "internalType": "struct MetaPtr",
          "name": "metadata",
          "type": "tuple"
        }
      ],
      "name": "createProject",
      "outputs": [],
      "stateMutability": "nonpayable",
      "type": "function"
    },
    {
      "inputs": [],
      "name": "getAllProjects",
      "outputs": [
        {
          "components": [
            {
              "internalType": "uint256",
              "name": "id",
              "type": "uint256"
            },
            {
              "components": [
                {
                  "internalType": "uint256",
                  "name": "protocol",
                  "type": "uint256"
                },
                {
                  "internalType": "string",
                  "name": "pointer",
                  "type": "string"
                }
              ],
              "internalType": "struct MetaPtr",
              "name": "metadata",
              "type": "tuple"
            }
          ],
          "internalType": "struct ProjectRegistry.Project[]",
          "name": "",
          "type": "tuple[]"
        }
      ],
      "stateMutability": "view",
      "type": "function"
    },
    {
      "inputs": [
        {
          "internalType": "uint256",
          "name": "projectID",
          "type": "uint256"
        }
      ],
      "name": "getProjectOwners",
      "outputs": [
        {
          "internalType": "address[]",
          "name": "",
          "type": "address[]"
        }
      ],
      "stateMutability": "view",
      "type": "function"
    },
    {
      "inputs": [],
      "name": "initialize",
      "outputs": [],
      "stateMutability": "nonpayable",
      "type": "function"
    },
    {
      "inputs": [
        {
          "internalType": "uint256",
          "name": "projectID",
          "type": "uint256"
        }
      ],
      "name": "projectOwnersCount",
      "outputs": [
        {
          "internalType": "uint256",
          "name": "",
          "type": "uint256"
        }
      ],
      "stateMutability": "view",
      "type": "function"
    },
    {
      "inputs": [
        {
          "internalType": "uint256",
          "name": "",
          "type": "uint256"
        }
      ],
      "name": "projects",
      "outputs": [
        {
          "internalType": "uint256",
          "name": "id",
          "type": "uint256"
        },
        {
          "components": [
            {
              "internalType": "uint256",
              "name": "protocol",
              "type": "uint256"
            },
            {
              "internalType": "string",
              "name": "pointer",
              "type": "string"
            }
          ],
          "internalType": "struct MetaPtr",
          "name": "metadata",
          "type": "tuple"
        }
      ],
      "stateMutability": "view",
      "type": "function"
    },
    {
      "inputs": [],
      "name": "projectsCount",
      "outputs": [
        {
          "internalType": "uint256",
          "name": "",
          "type": "uint256"
        }
      ],
      "stateMutability": "view",
      "type": "function"
    },
    {
      "inputs": [
        {
          "internalType": "uint256",
          "name": "",
          "type": "uint256"
        }
      ],
      "name": "projectsOwners",
      "outputs": [
        {
          "internalType": "uint256",
          "name": "count",
          "type": "uint256"
        }
      ],
      "stateMutability": "view",
      "type": "function"
    },
    {
      "inputs": [
        {
          "internalType": "uint256",
          "name": "projectID",
          "type": "uint256"
        },
        {
          "internalType": "address",
          "name": "prevOwner",
          "type": "address"
        },
        {
          "internalType": "address",
          "name": "owner",
          "type": "address"
        }
      ],
      "name": "removeProjectOwner",
      "outputs": [],
      "stateMutability": "nonpayable",
      "type": "function"
    },
    {
      "inputs": [
        {
          "internalType": "uint256",
          "name": "projectID",
          "type": "uint256"
        },
        {
          "components": [
            {
              "internalType": "uint256",
              "name": "protocol",
              "type": "uint256"
            },
            {
              "internalType": "string",
              "name": "pointer",
              "type": "string"
            }
          ],
          "internalType": "struct MetaPtr",
          "name": "metadata",
          "type": "tuple"
        }
      ],
      "name": "updateProjectMetadata",
      "outputs": [],
      "stateMutability": "nonpayable",
      "type": "function"
    }
  ],
  "transactionHash": "0x020b794357c0576e8018ef7c41dcf90a59bbdf376a80d41e1510c6f8b4a1b908",
  "args": [],
  "numDeployments": 1,
  "solcInputHash": "62a2694fd46f4dc709f1ffa16223089f",
  "bytecode": "0x608060405234801561001057600080fd5b50611018806100206000396000f3fe608060405234801561001057600080fd5b50600436106100a95760003560e01c80638129fc1c116100715780638129fc1c14610143578063834a97361461014b578063c172dc231461015e578063c73b302e1461017e578063e63f592c14610187578063fd5423a8146101a757600080fd5b8063107046bd146100ae5780632d9fcf03146100d85780633044ef7f146100ed578063788922041461010057806380d038291461012e575b600080fd5b6100c16100bc366004610aea565b6101ba565b6040516100cf929190610b5e565b60405180910390f35b6100eb6100e6366004610b9b565b610284565b005b6100eb6100fb366004610be9565b610459565b61012061010e366004610aea565b60009081526003602052604090205490565b6040519081526020016100cf565b61013661053e565b6040516100cf9190610c1e565b6100eb6106b4565b6100eb610159366004610c92565b61078b565b61012061016c366004610aea565b60036020526000908152604090205481565b61012060015481565b61019a610195366004610aea565b61081f565b6040516100cf9190610cd9565b6100eb6101b5366004610d26565b610913565b600260205280600052604060002060009150905080600001549080600101604051806040016040529081600082015481526020016001820180546101fd90610d52565b80601f016020809104026020016040519081016040528092919081815260200182805461022990610d52565b80156102765780601f1061024b57610100808354040283529160200191610276565b820191906000526020600020905b81548152906001019060200180831161025957829003601f168201915b505050505081525050905082565b600083815260036020908152604080832033845260010190915290205483906001600160a01b03166102d15760405162461bcd60e51b81526004016102c890610d86565b60405180910390fd5b6001600160a01b038216158015906102f357506001600160a01b038216600114155b6103275760405162461bcd60e51b8152602060048201526005602482015264505230303160d81b60448201526064016102c8565b60008481526003602090815260408083206001600160a01b038781168552600182019093529220548116908416146103895760405162461bcd60e51b8152602060048201526005602482015264505230303360d81b60448201526064016102c8565b80546001106103c25760405162461bcd60e51b815260206004820152600560248201526414148c0c0d60da1b60448201526064016102c8565b6001600160a01b038381166000818152600184016020526040808220805489861684529183208054929095166001600160a01b0319928316179094559181528254909116909155815490829061041783610dbb565b90915550506040516001600160a01b0384169086907f2d2f043cb8f93c6464e5ce5b93e72c2863eeb044241ea316d2a5a9af9320712190600090a35050505050565b600180546000918261046a83610dd2565b90915550600081815260026020526040902081815590915082600182016104918282610e50565b5050600082815260036020908152604080832060018085528082019093528184208054336001600160a01b0319918216811790925581865283862080549091168517905592905551909184917f63c92f9505d420bff631cb9df33be952bdc11e2118da36a850b43e6bcc4ce4de9190a3817ff92c2639c25d6a22c38e6d6b293f74a9b22491273b1dbb67fc1255222696be5b846040516105319190610f49565b60405180910390a2505050565b6060600060015467ffffffffffffffff81111561055d5761055d610deb565b60405190808252806020026020018201604052801561059657816020015b610583610ab6565b81526020019060019003908161057b5790505b50905060005b6001548110156106ae57600260008281526020019081526020016000206040518060400160405290816000820154815260200160018201604051806040016040529081600082015481526020016001820180546105f890610d52565b80601f016020809104026020016040519081016040528092919081815260200182805461062490610d52565b80156106715780601f1061064657610100808354040283529160200191610671565b820191906000526020600020905b81548152906001019060200180831161065457829003601f168201915b5050505050815250508152505082828151811061069057610690610fcc565b602002602001018190525080806106a690610dd2565b91505061059c565b50919050565b600054600190610100900460ff161580156106d6575060005460ff8083169116105b6107395760405162461bcd60e51b815260206004820152602e60248201527f496e697469616c697a61626c653a20636f6e747261637420697320616c72656160448201526d191e481a5b9a5d1a585b1a5e995960921b60648201526084016102c8565b6000805461ffff191660ff83169081176101001761ff0019169091556040519081527f7f26b83ff96e1f2b6a682f133852f6798a09c465da95921460cefb38474024989060200160405180910390a150565b600082815260036020908152604080832033845260010190915290205482906001600160a01b03166107cf5760405162461bcd60e51b81526004016102c890610d86565b600083815260026020526040902082906001016107ec8282610e50565b905050827ff92c2639c25d6a22c38e6d6b293f74a9b22491273b1dbb67fc1255222696be5b836040516105319190610f49565b600081815260036020526040812080546060929067ffffffffffffffff81111561084b5761084b610deb565b604051908082528060200260200182016040528015610874578160200160208202803683370190505b50600160008181529084016020526040812054919250906001600160a01b0316806108a3575090949350505050565b6001600160a01b03811660011461090957808383815181106108c7576108c7610fcc565b6001600160a01b03928316602091820292909201810191909152918116600090815260018601909252604090912054168161090181610dd2565b9250506108a3565b5090949350505050565b600082815260036020908152604080832033845260010190915290205482906001600160a01b03166109575760405162461bcd60e51b81526004016102c890610d86565b6001600160a01b0382161580159061097957506001600160a01b038216600114155b801561098e57506001600160a01b0382163014155b6109c25760405162461bcd60e51b8152602060048201526005602482015264505230303160d81b60448201526064016102c8565b60008381526003602090815260408083206001600160a01b038681168552600182019093529220541615610a205760405162461bcd60e51b8152602060048201526005602482015264282918181960d91b60448201526064016102c8565b60016000818152828201602052604080822080546001600160a01b038881168086529385208054919092166001600160a01b0319918216179091559383528054909316179091558154908290610a7583610dd2565b90915550506040516001600160a01b0384169085907fab7a51f59a55e3b65bbabf99457f8955ff12366d20e368988c35d2eab9bd8df990600090a350505050565b604051806040016040528060008152602001610ae5604051806040016040528060008152602001606081525090565b905290565b600060208284031215610afc57600080fd5b5035919050565b805182526000602080830151604082860152805180604087015260005b81811015610b3c57828101840151878201606001528301610b20565b506000606082880101526060601f19601f830116870101935050505092915050565b828152604060208201526000610b776040830184610b03565b949350505050565b80356001600160a01b0381168114610b9657600080fd5b919050565b600080600060608486031215610bb057600080fd5b83359250610bc060208501610b7f565b9150610bce60408501610b7f565b90509250925092565b6000604082840312156106ae57600080fd5b600060208284031215610bfb57600080fd5b813567ffffffffffffffff811115610c1257600080fd5b610b7784828501610bd7565b60006020808301818452808551808352604092508286019150828160051b87010184880160005b83811015610c8457888303603f19018552815180518452870151878401879052610c7187850182610b03565b9588019593505090860190600101610c45565b509098975050505050505050565b60008060408385031215610ca557600080fd5b82359150602083013567ffffffffffffffff811115610cc357600080fd5b610ccf85828601610bd7565b9150509250929050565b6020808252825182820181905260009190848201906040850190845b81811015610d1a5783516001600160a01b031683529284019291840191600101610cf5565b50909695505050505050565b60008060408385031215610d3957600080fd5b82359150610d4960208401610b7f565b90509250929050565b600181811c90821680610d6657607f821691505b6020821081036106ae57634e487b7160e01b600052602260045260246000fd5b602080825260059082015264050523030360dc1b604082015260600190565b634e487b7160e01b600052601160045260246000fd5b600081610dca57610dca610da5565b506000190190565b600060018201610de457610de4610da5565b5060010190565b634e487b7160e01b600052604160045260246000fd5b601f821115610e4b57600081815260208120601f850160051c81016020861015610e285750805b601f850160051c820191505b81811015610e4757828155600101610e34565b5050505b505050565b813581556001808201602080850135601e19863603018112610e7157600080fd5b8501803567ffffffffffffffff811115610e8a57600080fd5b8036038383011315610e9b57600080fd5b610eaf81610ea98654610d52565b86610e01565b6000601f821160018114610ee55760008315610ecd57508382018501355b600019600385901b1c1916600184901b178655610f3e565b600086815260209020601f19841690835b82811015610f1557868501880135825593870193908901908701610ef6565b5084821015610f345760001960f88660031b161c198785880101351681555b50508683881b0186555b505050505050505050565b602081528135602082015260006020830135601e19843603018112610f6d57600080fd5b830160208101903567ffffffffffffffff811115610f8a57600080fd5b803603821315610f9957600080fd5b604080850152806060850152808260808601376000608082860101526080601f19601f8301168501019250505092915050565b634e487b7160e01b600052603260045260246000fdfea2646970667358221220c865cee9bf7e48cc474732afe4cad0f507c5166a7c58260cddb85be65fc0329f64736f6c63430008110033",
  "devdoc": {
    "kind": "dev",
    "methods": {
      "addProjectOwner(uint256,address)": {
        "params": {
          "newOwner": "address of new project owner",
          "projectID": "ID of previously created project"
        }
      },
      "createProject((uint256,string))": {
        "params": {
          "metadata": "the metadata pointer"
        }
      },
      "getAllProjects()": {
        "returns": {
          "_0": "allProjects Array of all projects"
        }
      },
      "getProjectOwners(uint256)": {
        "params": {
          "projectID": "ID of project "
        },
        "returns": {
          "_0": "List of current owners of given project"
        }
      },
      "initialize()": {
        "details": "In future deploys of the implementation, a higher version should be passed to reinitializer"
      },
      "projectOwnersCount(uint256)": {
        "params": {
          "projectID": "ID of project "
        },
        "returns": {
          "_0": "Count of owners for given project"
        }
      },
      "removeProjectOwner(uint256,address,address)": {
        "params": {
          "owner": "Address of new Owner",
          "prevOwner": "Address of previous owner in OwnerList",
          "projectID": "ID of previously created project"
        }
      },
      "updateProjectMetadata(uint256,(uint256,string))": {
        "params": {
          "metadata": "Updated pointer to external metadata",
          "projectID": "ID of previously created project"
        }
      }
    },
    "title": "ProjectRegistry",
    "version": 1
  },
  "userdoc": {
    "kind": "user",
    "methods": {
      "addProjectOwner(uint256,address)": {
        "notice": "Associate a new owner with a project"
      },
      "createProject((uint256,string))": {
        "notice": "Creates a new project with a metadata pointer"
      },
      "getAllProjects()": {
        "notice": "Returns all projects"
      },
      "getProjectOwners(uint256)": {
        "notice": "Retrieve list of project owners "
      },
      "initialize()": {
        "notice": "Initializes the contract after an upgrade"
      },
      "projectOwnersCount(uint256)": {
        "notice": "Retrieve count of existing project owners"
      },
      "removeProjectOwner(uint256,address,address)": {
        "notice": "Disassociate an existing owner from a project"
      },
      "updateProjectMetadata(uint256,(uint256,string))": {
        "notice": "Updates Metadata for single project"
      }
    },
    "version": 1
  },
  "storageLayout": {
    "storage": [
      {
        "astId": 800,
        "contract": "contracts/projectRegistry/ProjectRegistry.sol:ProjectRegistry",
        "label": "_initialized",
        "offset": 0,
        "slot": "0",
        "type": "t_uint8"
      },
      {
        "astId": 803,
        "contract": "contracts/projectRegistry/ProjectRegistry.sol:ProjectRegistry",
        "label": "_initializing",
        "offset": 1,
        "slot": "0",
        "type": "t_bool"
      },
      {
        "astId": 9187,
        "contract": "contracts/projectRegistry/ProjectRegistry.sol:ProjectRegistry",
        "label": "projectsCount",
        "offset": 0,
        "slot": "1",
        "type": "t_uint256"
      },
      {
        "astId": 9192,
        "contract": "contracts/projectRegistry/ProjectRegistry.sol:ProjectRegistry",
        "label": "projects",
        "offset": 0,
        "slot": "2",
        "type": "t_mapping(t_uint256,t_struct(Project)9172_storage)"
      },
      {
        "astId": 9197,
        "contract": "contracts/projectRegistry/ProjectRegistry.sol:ProjectRegistry",
        "label": "projectsOwners",
        "offset": 0,
        "slot": "3",
        "type": "t_mapping(t_uint256,t_struct(OwnerList)9179_storage)"
      }
    ],
    "types": {
      "t_address": {
        "encoding": "inplace",
        "label": "address",
        "numberOfBytes": "20"
      },
      "t_bool": {
        "encoding": "inplace",
        "label": "bool",
        "numberOfBytes": "1"
      },
      "t_mapping(t_address,t_address)": {
        "encoding": "mapping",
        "key": "t_address",
        "label": "mapping(address => address)",
        "numberOfBytes": "32",
        "value": "t_address"
      },
      "t_mapping(t_uint256,t_struct(OwnerList)9179_storage)": {
        "encoding": "mapping",
        "key": "t_uint256",
        "label": "mapping(uint256 => struct ProjectRegistry.OwnerList)",
        "numberOfBytes": "32",
        "value": "t_struct(OwnerList)9179_storage"
      },
      "t_mapping(t_uint256,t_struct(Project)9172_storage)": {
        "encoding": "mapping",
        "key": "t_uint256",
        "label": "mapping(uint256 => struct ProjectRegistry.Project)",
        "numberOfBytes": "32",
        "value": "t_struct(Project)9172_storage"
      },
      "t_string_storage": {
        "encoding": "bytes",
        "label": "string",
        "numberOfBytes": "32"
      },
      "t_struct(MetaPtr)11246_storage": {
        "encoding": "inplace",
        "label": "struct MetaPtr",
        "members": [
          {
            "astId": 11242,
            "contract": "contracts/projectRegistry/ProjectRegistry.sol:ProjectRegistry",
            "label": "protocol",
            "offset": 0,
            "slot": "0",
            "type": "t_uint256"
          },
          {
            "astId": 11245,
            "contract": "contracts/projectRegistry/ProjectRegistry.sol:ProjectRegistry",
            "label": "pointer",
            "offset": 0,
            "slot": "1",
            "type": "t_string_storage"
          }
        ],
        "numberOfBytes": "64"
      },
      "t_struct(OwnerList)9179_storage": {
        "encoding": "inplace",
        "label": "struct ProjectRegistry.OwnerList",
        "members": [
          {
            "astId": 9174,
            "contract": "contracts/projectRegistry/ProjectRegistry.sol:ProjectRegistry",
            "label": "count",
            "offset": 0,
            "slot": "0",
            "type": "t_uint256"
          },
          {
            "astId": 9178,
            "contract": "contracts/projectRegistry/ProjectRegistry.sol:ProjectRegistry",
            "label": "list",
            "offset": 0,
            "slot": "1",
            "type": "t_mapping(t_address,t_address)"
          }
        ],
        "numberOfBytes": "64"
      },
      "t_struct(Project)9172_storage": {
        "encoding": "inplace",
        "label": "struct ProjectRegistry.Project",
        "members": [
          {
            "astId": 9168,
            "contract": "contracts/projectRegistry/ProjectRegistry.sol:ProjectRegistry",
            "label": "id",
            "offset": 0,
            "slot": "0",
            "type": "t_uint256"
          },
          {
            "astId": 9171,
            "contract": "contracts/projectRegistry/ProjectRegistry.sol:ProjectRegistry",
            "label": "metadata",
            "offset": 0,
            "slot": "1",
            "type": "t_struct(MetaPtr)11246_storage"
          }
        ],
        "numberOfBytes": "96"
      },
      "t_uint256": {
        "encoding": "inplace",
        "label": "uint256",
        "numberOfBytes": "32"
      },
      "t_uint8": {
        "encoding": "inplace",
        "label": "uint8",
        "numberOfBytes": "1"
      }
    }
  }
}