{
  "address": "0x34a0d6C391635F4e6c67AF9349316952D05575F8",
  "abi": [
    {
      "anonymous": false,
      "inputs": [
        {
          "indexed": false,
          "internalType": "uint8",
          "name": "version",
          "type": "uint8"
        }
      ],
      "name": "Initialized",
      "type": "event"
    },
    {
      "anonymous": false,
      "inputs": [
        {
          "indexed": false,
          "internalType": "address",
          "name": "token",
          "type": "address"
        },
        {
          "indexed": false,
          "internalType": "uint256",
          "name": "amount",
          "type": "uint256"
        },
        {
          "indexed": false,
          "internalType": "address",
          "name": "origin",
          "type": "address"
        },
        {
          "indexed": true,
          "internalType": "address",
          "name": "voter",
          "type": "address"
        },
        {
          "indexed": false,
          "internalType": "address",
          "name": "grantAddress",
          "type": "address"
        },
        {
          "indexed": true,
          "internalType": "bytes32",
          "name": "projectId",
          "type": "bytes32"
        },
        {
          "indexed": false,
          "internalType": "uint256",
          "name": "applicationIndex",
          "type": "uint256"
        },
        {
          "indexed": true,
          "internalType": "address",
          "name": "roundAddress",
          "type": "address"
        }
      ],
      "name": "Voted",
      "type": "event"
    },
    {
      "inputs": [],
      "name": "VERSION",
      "outputs": [
        {
          "internalType": "string",
          "name": "",
          "type": "string"
        }
      ],
      "stateMutability": "view",
      "type": "function"
    },
    {
      "inputs": [],
      "name": "init",
      "outputs": [],
      "stateMutability": "nonpayable",
      "type": "function"
    },
    {
      "inputs": [],
      "name": "initialize",
      "outputs": [],
      "stateMutability": "nonpayable",
      "type": "function"
    },
    {
      "inputs": [],
      "name": "roundAddress",
      "outputs": [
        {
          "internalType": "address",
          "name": "",
          "type": "address"
        }
      ],
      "stateMutability": "view",
      "type": "function"
    },
    {
      "inputs": [
        {
          "internalType": "bytes[]",
          "name": "encodedVotes",
          "type": "bytes[]"
        },
        {
          "internalType": "address",
          "name": "voterAddress",
          "type": "address"
        }
      ],
      "name": "vote",
      "outputs": [],
      "stateMutability": "payable",
      "type": "function"
    }
  ],
  "transactionHash": "0x0358fa42ac64a43945ae02f50700418132506756ce79f51b755ae9388a920f49",
  "args": [],
  "numDeployments": 1,
  "solcInputHash": "cefb326c54d358d71ddfef028d348781",
  "bytecode": "0x608060405234801561001057600080fd5b50610b8e806100206000396000f3fe60806040526004361061004a5760003560e01c80630b67d9251461004f5780638129fc1c1461008c578063e1c7392a146100a3578063fc6d4e39146100b8578063ffa1ad74146100cb575b600080fd5b34801561005b57600080fd5b5060005461006f906001600160a01b031681565b6040516001600160a01b0390911681526020015b60405180910390f35b34801561009857600080fd5b506100a1610109565b005b3480156100af57600080fd5b506100a1610232565b6100a16100c6366004610938565b61029f565b3480156100d757600080fd5b506100fc60405180604001604052806005815260200164302e322e3160d81b81525081565b60405161008391906109e2565b600054600160a81b900460ff161580801561013157506000546001600160a01b90910460ff16105b806101525750303b1580156101525750600054600160a01b900460ff166001145b6101ba5760405162461bcd60e51b815260206004820152602e60248201527f496e697469616c697a61626c653a20636f6e747261637420697320616c72656160448201526d191e481a5b9a5d1a585b1a5e995960921b60648201526084015b60405180910390fd5b6000805460ff60a01b1916600160a01b17905580156101e7576000805460ff60a81b1916600160a81b1790555b801561022f576000805460ff60a81b19169055604051600181527f7f26b83ff96e1f2b6a682f133852f6798a09c465da95921460cefb38474024989060200160405180910390a15b50565b6000546001600160a01b03161561028b5760405162461bcd60e51b815260206004820152601e60248201527f696e69743a20726f756e644164647265737320616c726561647920736574000060448201526064016101b1565b600080546001600160a01b03191633179055565b6102a76104ec565b6000546001600160a01b03166103145760405162461bcd60e51b815260206004820152602c60248201527f6572726f723a20766f74696e6720636f6e7472616374206e6f74206c696e6b6560448201526b19081d1bc818481c9bdd5b9960a21b60648201526084016101b1565b6000546001600160a01b031633146103835760405162461bcd60e51b815260206004820152602c60248201527f6572726f723a2063616e20626520696e766f6b6564206f6e6c7920627920726f60448201526b1d5b990818dbdb9d1c9858dd60a21b60648201526084016101b1565b6000805b838110156104815760008060008060008989878181106103a9576103a9610a15565b90506020028101906103bb9190610a2b565b8101906103c89190610a79565b9398509196509450925090506001600160a01b0385166103fd576103ec8488610ae1565b96506103f88385610545565b610409565b6104098589858761065e565b604080516001600160a01b038781168252602082018790523282840152858116606083015260808201849052915133928592908c16917fbf35c030178a1e678c8296a4e5083e9021a24c1a1defa5bfbdfde74bcecfa3769181900360a00190a45050505050808061047990610afa565b915050610387565b503481146104dd5760405162461bcd60e51b8152602060048201526024808201527f6d73672e76616c756520646f6573206e6f74206d6174636820766f746520616d6044820152631bdd5b9d60e21b60648201526084016101b1565b506104e760018055565b505050565b60026001540361053e5760405162461bcd60e51b815260206004820152601f60248201527f5265656e7472616e637947756172643a207265656e7472616e742063616c6c0060448201526064016101b1565b6002600155565b804710156105955760405162461bcd60e51b815260206004820152601d60248201527f416464726573733a20696e73756666696369656e742062616c616e636500000060448201526064016101b1565b6000826001600160a01b03168260405160006040518083038185875af1925050503d80600081146105e2576040519150601f19603f3d011682016040523d82523d6000602084013e6105e7565b606091505b50509050806104e75760405162461bcd60e51b815260206004820152603a60248201527f416464726573733a20756e61626c6520746f2073656e642076616c75652c207260448201527f6563697069656e74206d6179206861766520726576657274656400000000000060648201526084016101b1565b604080516001600160a01b0385811660248301528416604482015260648082018490528251808303909101815260849091019091526020810180516001600160e01b03166323b872dd60e01b1790526106b89085906106be565b50505050565b6000610713826040518060400160405280602081526020017f5361666545524332303a206c6f772d6c6576656c2063616c6c206661696c6564815250856001600160a01b03166107939092919063ffffffff16565b90508051600014806107345750808060200190518101906107349190610b13565b6104e75760405162461bcd60e51b815260206004820152602a60248201527f5361666545524332303a204552433230206f7065726174696f6e20646964206e6044820152691bdd081cdd58d8d9595960b21b60648201526084016101b1565b60606107a284846000856107aa565b949350505050565b60608247101561080b5760405162461bcd60e51b815260206004820152602660248201527f416464726573733a20696e73756666696369656e742062616c616e636520666f6044820152651c8818d85b1b60d21b60648201526084016101b1565b600080866001600160a01b031685876040516108279190610b3c565b60006040518083038185875af1925050503d8060008114610864576040519150601f19603f3d011682016040523d82523d6000602084013e610869565b606091505b509150915061087a87838387610885565b979650505050505050565b606083156108f45782516000036108ed576001600160a01b0385163b6108ed5760405162461bcd60e51b815260206004820152601d60248201527f416464726573733a2063616c6c20746f206e6f6e2d636f6e747261637400000060448201526064016101b1565b50816107a2565b6107a283838151156109095781518083602001fd5b8060405162461bcd60e51b81526004016101b191906109e2565b6001600160a01b038116811461022f57600080fd5b60008060006040848603121561094d57600080fd5b833567ffffffffffffffff8082111561096557600080fd5b818601915086601f83011261097957600080fd5b81358181111561098857600080fd5b8760208260051b850101111561099d57600080fd5b602092830195509350508401356109b381610923565b809150509250925092565b60005b838110156109d95781810151838201526020016109c1565b50506000910152565b6020815260008251806020840152610a018160408501602087016109be565b601f01601f19169190910160400192915050565b634e487b7160e01b600052603260045260246000fd5b6000808335601e19843603018112610a4257600080fd5b83018035915067ffffffffffffffff821115610a5d57600080fd5b602001915036819003821315610a7257600080fd5b9250929050565b600080600080600060a08688031215610a9157600080fd5b8535610a9c81610923565b9450602086013593506040860135610ab381610923565b94979396509394606081013594506080013592915050565b634e487b7160e01b600052601160045260246000fd5b80820180821115610af457610af4610acb565b92915050565b600060018201610b0c57610b0c610acb565b5060010190565b600060208284031215610b2557600080fd5b81518015158114610b3557600080fd5b9392505050565b60008251610b4e8184602087016109be565b919091019291505056fea2646970667358221220131ba3083b518532cc74cebd79c71e8cfe3206b3cbf889116a404f2e430d8d9b64736f6c63430008110033",
  "devdoc": {
    "kind": "dev",
    "methods": {
      "vote(bytes[],address)": {
        "details": "- more voters -> higher the gas - this would be triggered when a voter casts their vote via grant explorer - can be invoked by the round - supports ERC20 and Native token transfer",
        "params": {
          "encodedVotes": "encoded list of votes",
          "voterAddress": "voter address"
        }
      }
    },
    "version": 1
  },
  "userdoc": {
    "events": {
      "Voted(address,uint256,address,address,address,bytes32,uint256,address)": {
        "notice": "Emitted when a new vote is sent"
      }
    },
    "kind": "user",
    "methods": {
      "init()": {
        "notice": "Invoked by RoundImplementation on creation to set the round for which the voting contracts is to be used"
      },
      "roundAddress()": {
        "notice": "Round address"
      },
      "vote(bytes[],address)": {
        "notice": "Invoked by RoundImplementation which allows a voted to cast weighted votes to multiple grants during a round"
      }
    },
    "notice": "Allows voters to cast multiple weighted votes to grants with one transaction This is inspired from BulkCheckout documented over at: https://github.com/gitcoinco/BulkTransactions/blob/master/contracts/BulkCheckout.sol Emits event upon every transfer.",
    "version": 1
  },
  "storageLayout": {
    "storage": [
      {
        "astId": 11237,
        "contract": "contracts/votingStrategy/QuadraticFundingVotingStrategyImplementation.sol:QuadraticFundingVotingStrategyImplementation",
        "label": "roundAddress",
        "offset": 0,
        "slot": "0",
        "type": "t_address"
      },
      {
        "astId": 800,
        "contract": "contracts/votingStrategy/QuadraticFundingVotingStrategyImplementation.sol:QuadraticFundingVotingStrategyImplementation",
        "label": "_initialized",
        "offset": 20,
        "slot": "0",
        "type": "t_uint8"
      },
      {
        "astId": 803,
        "contract": "contracts/votingStrategy/QuadraticFundingVotingStrategyImplementation.sol:QuadraticFundingVotingStrategyImplementation",
        "label": "_initializing",
        "offset": 21,
        "slot": "0",
        "type": "t_bool"
      },
      {
        "astId": 977,
        "contract": "contracts/votingStrategy/QuadraticFundingVotingStrategyImplementation.sol:QuadraticFundingVotingStrategyImplementation",
        "label": "_status",
        "offset": 0,
        "slot": "1",
        "type": "t_uint256"
      },
      {
        "astId": 1046,
        "contract": "contracts/votingStrategy/QuadraticFundingVotingStrategyImplementation.sol:QuadraticFundingVotingStrategyImplementation",
        "label": "__gap",
        "offset": 0,
        "slot": "2",
        "type": "t_array(t_uint256)49_storage"
      }
    ],
    "types": {
      "t_address": {
        "encoding": "inplace",
        "label": "address",
        "numberOfBytes": "20"
      },
      "t_array(t_uint256)49_storage": {
        "base": "t_uint256",
        "encoding": "inplace",
        "label": "uint256[49]",
        "numberOfBytes": "1568"
      },
      "t_bool": {
        "encoding": "inplace",
        "label": "bool",
        "numberOfBytes": "1"
      },
      "t_uint256": {
        "encoding": "inplace",
        "label": "uint256",
        "numberOfBytes": "32"
      },
      "t_uint8": {
        "encoding": "inplace",
        "label": "uint8",
        "numberOfBytes": "1"
      }
    }
  }
}