{
  "address": "0xa04f813B9096E3A375fac36BD1cDDa353F7e6706",
  "abi": [
    {
      "anonymous": false,
      "inputs": [
        {
          "indexed": false,
          "internalType": "uint8",
          "name": "version",
          "type": "uint8"
        }
      ],
      "name": "Initialized",
      "type": "event"
    },
    {
      "anonymous": false,
      "inputs": [
        {
          "indexed": true,
          "internalType": "address",
          "name": "previousOwner",
          "type": "address"
        },
        {
          "indexed": true,
          "internalType": "address",
          "name": "newOwner",
          "type": "address"
        }
      ],
      "name": "OwnershipTransferred",
      "type": "event"
    },
    {
      "anonymous": false,
      "inputs": [
        {
          "indexed": false,
          "internalType": "uint24",
          "name": "protocolFeePercentage",
          "type": "uint24"
        }
      ],
      "name": "ProtocolFeePercentageUpdated",
      "type": "event"
    },
    {
      "anonymous": false,
      "inputs": [
        {
          "indexed": false,
          "internalType": "address",
          "name": "protocolTreasuryAddress",
          "type": "address"
        }
      ],
      "name": "ProtocolTreasuryUpdated",
      "type": "event"
    },
    {
      "inputs": [],
      "name": "DENOMINATOR",
      "outputs": [
        {
          "internalType": "uint24",
          "name": "",
          "type": "uint24"
        }
      ],
      "stateMutability": "view",
      "type": "function"
    },
    {
      "inputs": [],
      "name": "VERSION",
      "outputs": [
        {
          "internalType": "string",
          "name": "",
          "type": "string"
        }
      ],
      "stateMutability": "view",
      "type": "function"
    },
    {
      "inputs": [],
      "name": "initialize",
      "outputs": [],
      "stateMutability": "nonpayable",
      "type": "function"
    },
    {
      "inputs": [],
      "name": "owner",
      "outputs": [
        {
          "internalType": "address",
          "name": "",
          "type": "address"
        }
      ],
      "stateMutability": "view",
      "type": "function"
    },
    {
      "inputs": [],
      "name": "protocolFeePercentage",
      "outputs": [
        {
          "internalType": "uint24",
          "name": "",
          "type": "uint24"
        }
      ],
      "stateMutability": "view",
      "type": "function"
    },
    {
      "inputs": [],
      "name": "protocolTreasury",
      "outputs": [
        {
          "internalType": "address payable",
          "name": "",
          "type": "address"
        }
      ],
      "stateMutability": "view",
      "type": "function"
    },
    {
      "inputs": [],
      "name": "renounceOwnership",
      "outputs": [],
      "stateMutability": "nonpayable",
      "type": "function"
    },
    {
      "inputs": [
        {
          "internalType": "address",
          "name": "newOwner",
          "type": "address"
        }
      ],
      "name": "transferOwnership",
      "outputs": [],
      "stateMutability": "nonpayable",
      "type": "function"
    },
    {
      "inputs": [
        {
          "internalType": "uint24",
          "name": "_protocolFeePercentage",
          "type": "uint24"
        }
      ],
      "name": "updateProtocolFeePercentage",
      "outputs": [],
      "stateMutability": "nonpayable",
      "type": "function"
    },
    {
      "inputs": [
        {
          "internalType": "address payable",
          "name": "_protocolTreasury",
          "type": "address"
        }
      ],
      "name": "updateProtocolTreasury",
      "outputs": [],
      "stateMutability": "nonpayable",
      "type": "function"
    }
  ],
  "transactionHash": "0xb97b107b775dd01a3984cfd4d1a5b3d1692067e2b3b8f4a83d7bd7eb65ab1865",
  "args": [],
  "numDeployments": 1,
  "solcInputHash": "c921f1417ace463d64cfccd1853f0d26",
  "bytecode": "0x608060405234801561001057600080fd5b5061066f806100206000396000f3fe608060405234801561001057600080fd5b506004361061009e5760003560e01c80638e50e509116100665780638e50e50914610109578063918f867414610133578063926f86ce1461013d578063f2fde38b14610150578063ffa1ad741461016357600080fd5b8063715018a6146100a3578063773e04b4146100ad578063803db96d146100c05780638129fc1c146100f05780638da5cb5b146100f8575b600080fd5b6100ab610194565b005b6100ab6100bb366004610542565b6101a8565b6065546100d3906001600160a01b031681565b6040516001600160a01b0390911681526020015b60405180910390f35b6100ab61025e565b6033546001600160a01b03166100d3565b60655461011f90600160a01b900462ffffff1681565b60405162ffffff90911681526020016100e7565b61011f620186a081565b6100ab61014b366004610583565b610373565b6100ab61015e366004610583565b6103c9565b610187604051806040016040528060058152602001640312e302e360dc1b81525081565b6040516100e791906105a0565b61019c61043f565b6101a66000610499565b565b6101b061043f565b620186a062ffffff821611156102025760405162461bcd60e51b815260206004820152601260248201527176616c75652065786365656473203130302560701b60448201526064015b60405180910390fd5b6065805462ffffff60a01b1916600160a01b62ffffff8481168202929092179283905560405192041681527fca5dd81ee4f7425b6d66e0f9237a8138e6134f1724315407270d85d20c6fab3a906020015b60405180910390a150565b600054610100900460ff161580801561027e5750600054600160ff909116105b806102985750303b158015610298575060005460ff166001145b6102fb5760405162461bcd60e51b815260206004820152602e60248201527f496e697469616c697a61626c653a20636f6e747261637420697320616c72656160448201526d191e481a5b9a5d1a585b1a5e995960921b60648201526084016101f9565b6000805460ff19166001179055801561031e576000805461ff0019166101001790555b6103266104eb565b61032e610512565b8015610370576000805461ff0019169055604051600181527f7f26b83ff96e1f2b6a682f133852f6798a09c465da95921460cefb384740249890602001610253565b50565b61037b61043f565b606580546001600160a01b0319166001600160a01b0383169081179091556040519081527fb141872ee67913e1bc546464f29b6b07a65159d45c6af64fdecf8b4129157faf90602001610253565b6103d161043f565b6001600160a01b0381166104365760405162461bcd60e51b815260206004820152602660248201527f4f776e61626c653a206e6577206f776e657220697320746865207a65726f206160448201526564647265737360d01b60648201526084016101f9565b61037081610499565b6033546001600160a01b031633146101a65760405162461bcd60e51b815260206004820181905260248201527f4f776e61626c653a2063616c6c6572206973206e6f7420746865206f776e657260448201526064016101f9565b603380546001600160a01b038381166001600160a01b0319831681179093556040519116919082907f8be0079c531659141344cd1fd0a4f28419497f9722a3daafe3b4186f6b6457e090600090a35050565b600054610100900460ff166101a65760405162461bcd60e51b81526004016101f9906105ee565b600054610100900460ff166105395760405162461bcd60e51b81526004016101f9906105ee565b6101a633610499565b60006020828403121561055457600080fd5b813562ffffff8116811461056757600080fd5b9392505050565b6001600160a01b038116811461037057600080fd5b60006020828403121561059557600080fd5b81356105678161056e565b600060208083528351808285015260005b818110156105cd578581018301518582016040015282016105b1565b506000604082860101526040601f19601f8301168501019250505092915050565b6020808252602b908201527f496e697469616c697a61626c653a20636f6e7472616374206973206e6f74206960408201526a6e697469616c697a696e6760a81b60608201526080019056fea264697066735822122021fb6be76c00434fc289aa902e7254e91a39cacc9abcc2ff21a1733d9c5aa78a64736f6c63430008130033",
  "devdoc": {
    "events": {
      "Initialized(uint8)": {
        "details": "Triggered when the contract has been initialized or reinitialized."
      }
    },
    "kind": "dev",
    "methods": {
      "owner()": {
        "details": "Returns the address of the current owner."
      },
      "renounceOwnership()": {
        "details": "Leaves the contract without owner. It will not be possible to call `onlyOwner` functions. Can only be called by the current owner. NOTE: Renouncing ownership will leave the contract without an owner, thereby disabling any functionality that is only available to the owner."
      },
      "transferOwnership(address)": {
        "details": "Transfers ownership of the contract to a new account (`newOwner`). Can only be called by the current owner."
      },
      "updateProtocolFeePercentage(uint24)": {
        "params": {
          "_protocolFeePercentage": "The new protocol fee percentage"
        }
      },
      "updateProtocolTreasury(address)": {
        "params": {
          "_protocolTreasury": "The new protocol treasury address"
        }
      }
    },
    "version": 1
  },
  "userdoc": {
    "events": {
      "ProtocolFeePercentageUpdated(uint24)": {
        "notice": "Emitted when protocol fee percentage is updated"
      },
      "ProtocolTreasuryUpdated(address)": {
        "notice": "Emitted when a protocol wallet address is updated"
      }
    },
    "kind": "user",
    "methods": {
      "initialize()": {
        "notice": "constructor function which ensure deployer is set as owner"
      },
      "protocolFeePercentage()": {
        "notice": "Protocol fee percentage 100% = 100_000 | 10% = 10_000 | 1% = 1_000 | 0.1% = 100 | 0.01% = 10"
      },
      "protocolTreasury()": {
        "notice": "Address of the protocol treasury"
      },
      "updateProtocolFeePercentage(uint24)": {
        "notice": "Set the protocol fee percentage"
      },
      "updateProtocolTreasury(address)": {
        "notice": "Set the protocol treasury address"
      }
    },
    "version": 1
  },
  "storageLayout": {
    "storage": [
      {
        "astId": 800,
        "contract": "contracts/settings/AlloSettings.sol:AlloSettings",
        "label": "_initialized",
        "offset": 0,
        "slot": "0",
        "type": "t_uint8"
      },
      {
        "astId": 803,
        "contract": "contracts/settings/AlloSettings.sol:AlloSettings",
        "label": "_initializing",
        "offset": 1,
        "slot": "0",
        "type": "t_bool"
      },
      {
        "astId": 1917,
        "contract": "contracts/settings/AlloSettings.sol:AlloSettings",
        "label": "__gap",
        "offset": 0,
        "slot": "1",
        "type": "t_array(t_uint256)50_storage"
      },
      {
        "astId": 592,
        "contract": "contracts/settings/AlloSettings.sol:AlloSettings",
        "label": "_owner",
        "offset": 0,
        "slot": "51",
        "type": "t_address"
      },
      {
        "astId": 712,
        "contract": "contracts/settings/AlloSettings.sol:AlloSettings",
        "label": "__gap",
        "offset": 0,
        "slot": "52",
        "type": "t_array(t_uint256)49_storage"
      },
      {
        "astId": 11162,
        "contract": "contracts/settings/AlloSettings.sol:AlloSettings",
        "label": "protocolTreasury",
        "offset": 0,
        "slot": "101",
        "type": "t_address_payable"
      },
      {
        "astId": 11165,
        "contract": "contracts/settings/AlloSettings.sol:AlloSettings",
        "label": "protocolFeePercentage",
        "offset": 20,
        "slot": "101",
        "type": "t_uint24"
      }
    ],
    "types": {
      "t_address": {
        "encoding": "inplace",
        "label": "address",
        "numberOfBytes": "20"
      },
      "t_address_payable": {
        "encoding": "inplace",
        "label": "address payable",
        "numberOfBytes": "20"
      },
      "t_array(t_uint256)49_storage": {
        "base": "t_uint256",
        "encoding": "inplace",
        "label": "uint256[49]",
        "numberOfBytes": "1568"
      },
      "t_array(t_uint256)50_storage": {
        "base": "t_uint256",
        "encoding": "inplace",
        "label": "uint256[50]",
        "numberOfBytes": "1600"
      },
      "t_bool": {
        "encoding": "inplace",
        "label": "bool",
        "numberOfBytes": "1"
      },
      "t_uint24": {
        "encoding": "inplace",
        "label": "uint24",
        "numberOfBytes": "3"
      },
      "t_uint256": {
        "encoding": "inplace",
        "label": "uint256",
        "numberOfBytes": "32"
      },
      "t_uint8": {
        "encoding": "inplace",
        "label": "uint8",
        "numberOfBytes": "1"
      }
    }
  }
}