{
  "address": "0x01a506BC72FAC4C2d2f15AF568e507d546f7a289",
  "abi": [
    {
      "anonymous": false,
      "inputs": [
        {
          "indexed": false,
          "internalType": "uint8",
          "name": "version",
          "type": "uint8"
        }
      ],
      "name": "Initialized",
      "type": "event"
    },
    {
      "anonymous": false,
      "inputs": [
        {
          "components": [
            {
              "internalType": "uint256",
              "name": "protocol",
              "type": "uint256"
            },
            {
              "internalType": "string",
              "name": "pointer",
              "type": "string"
            }
          ],
          "indexed": false,
          "internalType": "struct MetaPtr",
          "name": "oldMetaPtr",
          "type": "tuple"
        },
        {
          "components": [
            {
              "internalType": "uint256",
              "name": "protocol",
              "type": "uint256"
            },
            {
              "internalType": "string",
              "name": "pointer",
              "type": "string"
            }
          ],
          "indexed": false,
          "internalType": "struct MetaPtr",
          "name": "newMetaPtr",
          "type": "tuple"
        }
      ],
      "name": "MetaPtrUpdated",
      "type": "event"
    },
    {
      "anonymous": false,
      "inputs": [
        {
          "indexed": true,
          "internalType": "bytes32",
          "name": "role",
          "type": "bytes32"
        },
        {
          "indexed": true,
          "internalType": "bytes32",
          "name": "previousAdminRole",
          "type": "bytes32"
        },
        {
          "indexed": true,
          "internalType": "bytes32",
          "name": "newAdminRole",
          "type": "bytes32"
        }
      ],
      "name": "RoleAdminChanged",
      "type": "event"
    },
    {
      "anonymous": false,
      "inputs": [
        {
          "indexed": true,
          "internalType": "bytes32",
          "name": "role",
          "type": "bytes32"
        },
        {
          "indexed": true,
          "internalType": "address",
          "name": "account",
          "type": "address"
        },
        {
          "indexed": true,
          "internalType": "address",
          "name": "sender",
          "type": "address"
        }
      ],
      "name": "RoleGranted",
      "type": "event"
    },
    {
      "anonymous": false,
      "inputs": [
        {
          "indexed": true,
          "internalType": "bytes32",
          "name": "role",
          "type": "bytes32"
        },
        {
          "indexed": true,
          "internalType": "address",
          "name": "account",
          "type": "address"
        },
        {
          "indexed": true,
          "internalType": "address",
          "name": "sender",
          "type": "address"
        }
      ],
      "name": "RoleRevoked",
      "type": "event"
    },
    {
      "inputs": [],
      "name": "DEFAULT_ADMIN_ROLE",
      "outputs": [
        {
          "internalType": "bytes32",
          "name": "",
          "type": "bytes32"
        }
      ],
      "stateMutability": "view",
      "type": "function"
    },
    {
      "inputs": [],
      "name": "PROGRAM_OPERATOR_ROLE",
      "outputs": [
        {
          "internalType": "bytes32",
          "name": "",
          "type": "bytes32"
        }
      ],
      "stateMutability": "view",
      "type": "function"
    },
    {
      "inputs": [
        {
          "internalType": "bytes32",
          "name": "role",
          "type": "bytes32"
        }
      ],
      "name": "getRoleAdmin",
      "outputs": [
        {
          "internalType": "bytes32",
          "name": "",
          "type": "bytes32"
        }
      ],
      "stateMutability": "view",
      "type": "function"
    },
    {
      "inputs": [
        {
          "internalType": "bytes32",
          "name": "role",
          "type": "bytes32"
        },
        {
          "internalType": "uint256",
          "name": "index",
          "type": "uint256"
        }
      ],
      "name": "getRoleMember",
      "outputs": [
        {
          "internalType": "address",
          "name": "",
          "type": "address"
        }
      ],
      "stateMutability": "view",
      "type": "function"
    },
    {
      "inputs": [
        {
          "internalType": "bytes32",
          "name": "role",
          "type": "bytes32"
        }
      ],
      "name": "getRoleMemberCount",
      "outputs": [
        {
          "internalType": "uint256",
          "name": "",
          "type": "uint256"
        }
      ],
      "stateMutability": "view",
      "type": "function"
    },
    {
      "inputs": [
        {
          "internalType": "bytes32",
          "name": "role",
          "type": "bytes32"
        },
        {
          "internalType": "address",
          "name": "account",
          "type": "address"
        }
      ],
      "name": "grantRole",
      "outputs": [],
      "stateMutability": "nonpayable",
      "type": "function"
    },
    {
      "inputs": [
        {
          "internalType": "bytes32",
          "name": "role",
          "type": "bytes32"
        },
        {
          "internalType": "address",
          "name": "account",
          "type": "address"
        }
      ],
      "name": "hasRole",
      "outputs": [
        {
          "internalType": "bool",
          "name": "",
          "type": "bool"
        }
      ],
      "stateMutability": "view",
      "type": "function"
    },
    {
      "inputs": [
        {
          "internalType": "bytes",
          "name": "encodedParameters",
          "type": "bytes"
        }
      ],
      "name": "initialize",
      "outputs": [],
      "stateMutability": "nonpayable",
      "type": "function"
    },
    {
      "inputs": [],
      "name": "metaPtr",
      "outputs": [
        {
          "internalType": "uint256",
          "name": "protocol",
          "type": "uint256"
        },
        {
          "internalType": "string",
          "name": "pointer",
          "type": "string"
        }
      ],
      "stateMutability": "view",
      "type": "function"
    },
    {
      "inputs": [
        {
          "internalType": "bytes32",
          "name": "role",
          "type": "bytes32"
        },
        {
          "internalType": "address",
          "name": "account",
          "type": "address"
        }
      ],
      "name": "renounceRole",
      "outputs": [],
      "stateMutability": "nonpayable",
      "type": "function"
    },
    {
      "inputs": [
        {
          "internalType": "bytes32",
          "name": "role",
          "type": "bytes32"
        },
        {
          "internalType": "address",
          "name": "account",
          "type": "address"
        }
      ],
      "name": "revokeRole",
      "outputs": [],
      "stateMutability": "nonpayable",
      "type": "function"
    },
    {
      "inputs": [
        {
          "internalType": "bytes4",
          "name": "interfaceId",
          "type": "bytes4"
        }
      ],
      "name": "supportsInterface",
      "outputs": [
        {
          "internalType": "bool",
          "name": "",
          "type": "bool"
        }
      ],
      "stateMutability": "view",
      "type": "function"
    },
    {
      "inputs": [
        {
          "components": [
            {
              "internalType": "uint256",
              "name": "protocol",
              "type": "uint256"
            },
            {
              "internalType": "string",
              "name": "pointer",
              "type": "string"
            }
          ],
          "internalType": "struct MetaPtr",
          "name": "newMetaPtr",
          "type": "tuple"
        }
      ],
      "name": "updateMetaPtr",
      "outputs": [],
      "stateMutability": "nonpayable",
      "type": "function"
    }
  ],
  "transactionHash": "0x4c1477a9a74578116200fef17f65a2c7d75505f354cd97b31eb11e6825c93550",
  "args": [],
  "numDeployments": 1,
  "solcInputHash": "c921f1417ace463d64cfccd1853f0d26",
  "bytecode": "0x608060405234801561001057600080fd5b5061133a806100206000396000f3fe608060405234801561001057600080fd5b50600436106100cf5760003560e01c80635ffe8de81161008c578063a217fddf11610066578063a217fddf146101e0578063ca15c873146101e8578063d0e363cb146101fb578063d547741f1461021157600080fd5b80635ffe8de81461017b5780639010d07c146101a257806391d14854146101cd57600080fd5b806301ffc9a7146100d4578063248a9ca3146100fc5780632b0439331461012d5780632f2ff15d1461014257806336568abe14610155578063439fab9114610168575b600080fd5b6100e76100e2366004610bd3565b610224565b60405190151581526020015b60405180910390f35b61011f61010a366004610bfd565b60009081526020819052604090206001015490565b6040519081526020016100f3565b61014061013b366004610d2e565b61024f565b005b610140610150366004610d87565b6102d6565b610140610163366004610d87565b610300565b610140610176366004610db3565b610383565b61011f7faa630204f2780b6f080cc77cc0e9c0a5c21e92eb0c6771e709255dd27d6de13281565b6101b56101b0366004610e25565b610596565b6040516001600160a01b0390911681526020016100f3565b6100e76101db366004610d87565b6105b5565b61011f600081565b61011f6101f6366004610bfd565b6105de565b6102036105f5565b6040516100f3929190610e97565b61014061021f366004610d87565b61068c565b60006001600160e01b03198216635a05180f60e01b14806102495750610249826106b1565b92915050565b7faa630204f2780b6f080cc77cc0e9c0a5c21e92eb0c6771e709255dd27d6de132610279816106e6565b7f41f93857ddc4c1f3f4a10d67e8bb2ada914235a31330c35d92ad96475a50e6156003836040516102ab929190610f09565b60405180910390a18151600390815560208301518391906004906102cf9082611009565b5050505050565b6000828152602081905260409020600101546102f1816106e6565b6102fb83836106f3565b505050565b6001600160a01b03811633146103755760405162461bcd60e51b815260206004820152602f60248201527f416363657373436f6e74726f6c3a2063616e206f6e6c792072656e6f756e636560448201526e103937b632b9903337b91039b2b63360891b60648201526084015b60405180910390fd5b61037f8282610715565b5050565b600254610100900460ff16158080156103a35750600254600160ff909116105b806103bd5750303b1580156103bd575060025460ff166001145b6104205760405162461bcd60e51b815260206004820152602e60248201527f496e697469616c697a61626c653a20636f6e747261637420697320616c72656160448201526d191e481a5b9a5d1a585b1a5e995960921b606482015260840161036c565b6002805460ff191660011790558015610443576002805461ff0019166101001790555b6000808061045385870187611145565b9250925092507f41f93857ddc4c1f3f4a10d67e8bb2ada914235a31330c35d92ad96475a50e61560038460405161048b929190610f09565b60405180910390a18251600390815560208401518491906004906104af9082611009565b5090505060005b82518110156104f5576104e56000801b8483815181106104d8576104d86111cd565b60200260200101516106f3565b6104ee816111f9565b90506104b6565b5060005b8151811015610548576105387faa630204f2780b6f080cc77cc0e9c0a5c21e92eb0c6771e709255dd27d6de1328383815181106104d8576104d86111cd565b610541816111f9565b90506104f9565b5050505080156102fb576002805461ff0019169055604051600181527f7f26b83ff96e1f2b6a682f133852f6798a09c465da95921460cefb38474024989060200160405180910390a1505050565b60008281526001602052604081206105ae9083610737565b9392505050565b6000918252602082815260408084206001600160a01b0393909316845291905290205460ff1690565b600081815260016020526040812061024990610743565b600380546004805491929161060990610eb0565b80601f016020809104026020016040519081016040528092919081815260200182805461063590610eb0565b80156106825780601f1061065757610100808354040283529160200191610682565b820191906000526020600020905b81548152906001019060200180831161066557829003601f168201915b5050505050905082565b6000828152602081905260409020600101546106a7816106e6565b6102fb8383610715565b60006001600160e01b03198216637965db0b60e01b148061024957506301ffc9a760e01b6001600160e01b0319831614610249565b6106f0813361074d565b50565b6106fd82826107a6565b60008281526001602052604090206102fb908261082a565b61071f828261083f565b60008281526001602052604090206102fb90826108a4565b60006105ae83836108b9565b6000610249825490565b61075782826105b5565b61037f57610764816108e3565b61076f8360206108f5565b604051602001610780929190611212565b60408051601f198184030181529082905262461bcd60e51b825261036c91600401611287565b6107b082826105b5565b61037f576000828152602081815260408083206001600160a01b03851684529091529020805460ff191660011790556107e63390565b6001600160a01b0316816001600160a01b0316837f2f8788117e7eff1d82e926ec794901d17c78024a50270940304540a733656f0d60405160405180910390a45050565b60006105ae836001600160a01b038416610a91565b61084982826105b5565b1561037f576000828152602081815260408083206001600160a01b0385168085529252808320805460ff1916905551339285917ff6391f5c32d9c69d2a47ea670b442974b53935d1edc7fd64eb21e047a839171b9190a45050565b60006105ae836001600160a01b038416610ae0565b60008260000182815481106108d0576108d06111cd565b9060005260206000200154905092915050565b60606102496001600160a01b03831660145b6060600061090483600261129a565b61090f9060026112b1565b67ffffffffffffffff81111561092757610927610c16565b6040519080825280601f01601f191660200182016040528015610951576020820181803683370190505b509050600360fc1b8160008151811061096c5761096c6111cd565b60200101906001600160f81b031916908160001a905350600f60fb1b8160018151811061099b5761099b6111cd565b60200101906001600160f81b031916908160001a90535060006109bf84600261129a565b6109ca9060016112b1565b90505b6001811115610a42576f181899199a1a9b1b9c1cb0b131b232b360811b85600f16601081106109fe576109fe6111cd565b1a60f81b828281518110610a1457610a146111cd565b60200101906001600160f81b031916908160001a90535060049490941c93610a3b816112c4565b90506109cd565b5083156105ae5760405162461bcd60e51b815260206004820181905260248201527f537472696e67733a20686578206c656e67746820696e73756666696369656e74604482015260640161036c565b6000818152600183016020526040812054610ad857508154600181810184556000848152602080822090930184905584548482528286019093526040902091909155610249565b506000610249565b60008181526001830160205260408120548015610bc9576000610b046001836112db565b8554909150600090610b18906001906112db565b9050818114610b7d576000866000018281548110610b3857610b386111cd565b9060005260206000200154905080876000018481548110610b5b57610b5b6111cd565b6000918252602080832090910192909255918252600188019052604090208390555b8554869080610b8e57610b8e6112ee565b600190038181906000526020600020016000905590558560010160008681526020019081526020016000206000905560019350505050610249565b6000915050610249565b600060208284031215610be557600080fd5b81356001600160e01b0319811681146105ae57600080fd5b600060208284031215610c0f57600080fd5b5035919050565b634e487b7160e01b600052604160045260246000fd5b6040805190810167ffffffffffffffff81118282101715610c4f57610c4f610c16565b60405290565b604051601f8201601f1916810167ffffffffffffffff81118282101715610c7e57610c7e610c16565b604052919050565b600060408284031215610c9857600080fd5b610ca0610c2c565b90508135815260208083013567ffffffffffffffff80821115610cc257600080fd5b818501915085601f830112610cd657600080fd5b813581811115610ce857610ce8610c16565b610cfa601f8201601f19168501610c55565b91508082528684828501011115610d1057600080fd5b80848401858401376000908201840152918301919091525092915050565b600060208284031215610d4057600080fd5b813567ffffffffffffffff811115610d5757600080fd5b610d6384828501610c86565b949350505050565b80356001600160a01b0381168114610d8257600080fd5b919050565b60008060408385031215610d9a57600080fd5b82359150610daa60208401610d6b565b90509250929050565b60008060208385031215610dc657600080fd5b823567ffffffffffffffff80821115610dde57600080fd5b818501915085601f830112610df257600080fd5b813581811115610e0157600080fd5b866020828501011115610e1357600080fd5b60209290920196919550909350505050565b60008060408385031215610e3857600080fd5b50508035926020909101359150565b60005b83811015610e62578181015183820152602001610e4a565b50506000910152565b60008151808452610e83816020860160208601610e47565b601f01601f19169290920160200192915050565b828152604060208201526000610d636040830184610e6b565b600181811c90821680610ec457607f821691505b602082108103610ee457634e487b7160e01b600052602260045260246000fd5b50919050565b805182526000602082015160406020850152610d636040850182610e6b565b6040815282546040820152600060018085016040606085015260008154610f2f81610eb0565b80608088015260a085831660008114610f4f5760018114610f6957610f9a565b60ff1984168983015282151560051b890182019450610f9a565b8560005260208060002060005b85811015610f915781548c8201860152908901908201610f76565b8b018401965050505b505050508481036020860152610fb08187610eea565b979650505050505050565b601f8211156102fb57600081815260208120601f850160051c81016020861015610fe25750805b601f850160051c820191505b8181101561100157828155600101610fee565b505050505050565b815167ffffffffffffffff81111561102357611023610c16565b611037816110318454610eb0565b84610fbb565b602080601f83116001811461106c57600084156110545750858301515b600019600386901b1c1916600185901b178555611001565b600085815260208120601f198616915b8281101561109b5788860151825594840194600190910190840161107c565b50858210156110b95787850151600019600388901b60f8161c191681555b5050505050600190811b01905550565b600082601f8301126110da57600080fd5b8135602067ffffffffffffffff8211156110f6576110f6610c16565b8160051b611105828201610c55565b928352848101820192828101908785111561111f57600080fd5b83870192505b84831015610fb05761113683610d6b565b82529183019190830190611125565b60008060006060848603121561115a57600080fd5b833567ffffffffffffffff8082111561117257600080fd5b61117e87838801610c86565b9450602086013591508082111561119457600080fd5b6111a0878388016110c9565b935060408601359150808211156111b657600080fd5b506111c3868287016110c9565b9150509250925092565b634e487b7160e01b600052603260045260246000fd5b634e487b7160e01b600052601160045260246000fd5b60006001820161120b5761120b6111e3565b5060010190565b7f416363657373436f6e74726f6c3a206163636f756e742000000000000000000081526000835161124a816017850160208801610e47565b7001034b99036b4b9b9b4b733903937b6329607d1b601791840191820152835161127b816028840160208801610e47565b01602801949350505050565b6020815260006105ae6020830184610e6b565b8082028115828204841417610249576102496111e3565b80820180821115610249576102496111e3565b6000816112d3576112d36111e3565b506000190190565b81810381811115610249576102496111e3565b634e487b7160e01b600052603160045260246000fdfea2646970667358221220750ea8ad2d422345b9c1fbbe47e9f64f235c90481dfd81de90411a792330d13f64736f6c63430008130033",
  "devdoc": {
    "events": {
      "Initialized(uint8)": {
        "details": "Triggered when the contract has been initialized or reinitialized."
      },
      "RoleAdminChanged(bytes32,bytes32,bytes32)": {
        "details": "Emitted when `newAdminRole` is set as ``role``'s admin role, replacing `previousAdminRole` `DEFAULT_ADMIN_ROLE` is the starting admin for all roles, despite {RoleAdminChanged} not being emitted signaling this. _Available since v3.1._"
      },
      "RoleGranted(bytes32,address,address)": {
        "details": "Emitted when `account` is granted `role`. `sender` is the account that originated the contract call, an admin role bearer except when using {AccessControl-_setupRole}."
      },
      "RoleRevoked(bytes32,address,address)": {
        "details": "Emitted when `account` is revoked `role`. `sender` is the account that originated the contract call:   - if using `revokeRole`, it is the admin role bearer   - if using `renounceRole`, it is the role bearer (i.e. `account`)"
      }
    },
    "kind": "dev",
    "methods": {
      "getRoleAdmin(bytes32)": {
        "details": "Returns the admin role that controls `role`. See {grantRole} and {revokeRole}. To change a role's admin, use {_setRoleAdmin}."
      },
      "getRoleMember(bytes32,uint256)": {
        "details": "Returns one of the accounts that have `role`. `index` must be a value between 0 and {getRoleMemberCount}, non-inclusive. Role bearers are not sorted in any particular way, and their ordering may change at any point. WARNING: When using {getRoleMember} and {getRoleMemberCount}, make sure you perform all queries on the same block. See the following https://forum.openzeppelin.com/t/iterating-over-elements-on-enumerableset-in-openzeppelin-contracts/2296[forum post] for more information."
      },
      "getRoleMemberCount(bytes32)": {
        "details": "Returns the number of accounts that have `role`. Can be used together with {getRoleMember} to enumerate all bearers of a role."
      },
      "grantRole(bytes32,address)": {
        "details": "Grants `role` to `account`. If `account` had not been already granted `role`, emits a {RoleGranted} event. Requirements: - the caller must have ``role``'s admin role. May emit a {RoleGranted} event."
      },
      "hasRole(bytes32,address)": {
        "details": "Returns `true` if `account` has been granted `role`."
      },
      "initialize(bytes)": {
        "details": "encodedParameters  - _metaPtr URL pointing to the program metadata  - _adminRoles Addresses to be granted DEFAULT_ADMIN_ROLE  - _programOperators Addresses to be granted PROGRAM_OPERATOR_ROLE",
        "params": {
          "encodedParameters": "Encoded parameters for program creation"
        }
      },
      "renounceRole(bytes32,address)": {
        "details": "Revokes `role` from the calling account. Roles are often managed via {grantRole} and {revokeRole}: this function's purpose is to provide a mechanism for accounts to lose their privileges if they are compromised (such as when a trusted device is misplaced). If the calling account had been revoked `role`, emits a {RoleRevoked} event. Requirements: - the caller must be `account`. May emit a {RoleRevoked} event."
      },
      "revokeRole(bytes32,address)": {
        "details": "Revokes `role` from `account`. If `account` had been granted `role`, emits a {RoleRevoked} event. Requirements: - the caller must have ``role``'s admin role. May emit a {RoleRevoked} event."
      },
      "supportsInterface(bytes4)": {
        "details": "See {IERC165-supportsInterface}."
      },
      "updateMetaPtr((uint256,string))": {
        "params": {
          "newMetaPtr": "new metaPtr"
        }
      }
    },
    "version": 1
  },
  "userdoc": {
    "events": {
      "MetaPtrUpdated((uint256,string),(uint256,string))": {
        "notice": "Emitted when a team metadata pointer is updated"
      }
    },
    "kind": "user",
    "methods": {
      "PROGRAM_OPERATOR_ROLE()": {
        "notice": "program operator role"
      },
      "initialize(bytes)": {
        "notice": "Instantiates a new program"
      },
      "metaPtr()": {
        "notice": "URL pointing for program metadata (for off-chain use)"
      }
    },
    "notice": "Program which would managed by a group of  PROGRAM_OPERATOR deployed via the ProgramFactory",
    "version": 1
  },
  "storageLayout": {
    "storage": [
      {
        "astId": 3919,
        "contract": "contracts/program/ProgramImplementation.sol:ProgramImplementation",
        "label": "_roles",
        "offset": 0,
        "slot": "0",
        "type": "t_mapping(t_bytes32,t_struct(RoleData)3914_storage)"
      },
      {
        "astId": 4229,
        "contract": "contracts/program/ProgramImplementation.sol:ProgramImplementation",
        "label": "_roleMembers",
        "offset": 0,
        "slot": "1",
        "type": "t_mapping(t_bytes32,t_struct(AddressSet)7373_storage)"
      },
      {
        "astId": 800,
        "contract": "contracts/program/ProgramImplementation.sol:ProgramImplementation",
        "label": "_initialized",
        "offset": 0,
        "slot": "2",
        "type": "t_uint8"
      },
      {
        "astId": 803,
        "contract": "contracts/program/ProgramImplementation.sol:ProgramImplementation",
        "label": "_initializing",
        "offset": 1,
        "slot": "2",
        "type": "t_bool"
      },
      {
        "astId": 9058,
        "contract": "contracts/program/ProgramImplementation.sol:ProgramImplementation",
        "label": "metaPtr",
        "offset": 0,
        "slot": "3",
        "type": "t_struct(MetaPtr)11239_storage"
      }
    ],
    "types": {
      "t_address": {
        "encoding": "inplace",
        "label": "address",
        "numberOfBytes": "20"
      },
      "t_array(t_bytes32)dyn_storage": {
        "base": "t_bytes32",
        "encoding": "dynamic_array",
        "label": "bytes32[]",
        "numberOfBytes": "32"
      },
      "t_bool": {
        "encoding": "inplace",
        "label": "bool",
        "numberOfBytes": "1"
      },
      "t_bytes32": {
        "encoding": "inplace",
        "label": "bytes32",
        "numberOfBytes": "32"
      },
      "t_mapping(t_address,t_bool)": {
        "encoding": "mapping",
        "key": "t_address",
        "label": "mapping(address => bool)",
        "numberOfBytes": "32",
        "value": "t_bool"
      },
      "t_mapping(t_bytes32,t_struct(AddressSet)7373_storage)": {
        "encoding": "mapping",
        "key": "t_bytes32",
        "label": "mapping(bytes32 => struct EnumerableSet.AddressSet)",
        "numberOfBytes": "32",
        "value": "t_struct(AddressSet)7373_storage"
      },
      "t_mapping(t_bytes32,t_struct(RoleData)3914_storage)": {
        "encoding": "mapping",
        "key": "t_bytes32",
        "label": "mapping(bytes32 => struct AccessControl.RoleData)",
        "numberOfBytes": "32",
        "value": "t_struct(RoleData)3914_storage"
      },
      "t_mapping(t_bytes32,t_uint256)": {
        "encoding": "mapping",
        "key": "t_bytes32",
        "label": "mapping(bytes32 => uint256)",
        "numberOfBytes": "32",
        "value": "t_uint256"
      },
      "t_string_storage": {
        "encoding": "bytes",
        "label": "string",
        "numberOfBytes": "32"
      },
      "t_struct(AddressSet)7373_storage": {
        "encoding": "inplace",
        "label": "struct EnumerableSet.AddressSet",
        "members": [
          {
            "astId": 7372,
            "contract": "contracts/program/ProgramImplementation.sol:ProgramImplementation",
            "label": "_inner",
            "offset": 0,
            "slot": "0",
            "type": "t_struct(Set)7058_storage"
          }
        ],
        "numberOfBytes": "64"
      },
      "t_struct(MetaPtr)11239_storage": {
        "encoding": "inplace",
        "label": "struct MetaPtr",
        "members": [
          {
            "astId": 11235,
            "contract": "contracts/program/ProgramImplementation.sol:ProgramImplementation",
            "label": "protocol",
            "offset": 0,
            "slot": "0",
            "type": "t_uint256"
          },
          {
            "astId": 11238,
            "contract": "contracts/program/ProgramImplementation.sol:ProgramImplementation",
            "label": "pointer",
            "offset": 0,
            "slot": "1",
            "type": "t_string_storage"
          }
        ],
        "numberOfBytes": "64"
      },
      "t_struct(RoleData)3914_storage": {
        "encoding": "inplace",
        "label": "struct AccessControl.RoleData",
        "members": [
          {
            "astId": 3911,
            "contract": "contracts/program/ProgramImplementation.sol:ProgramImplementation",
            "label": "members",
            "offset": 0,
            "slot": "0",
            "type": "t_mapping(t_address,t_bool)"
          },
          {
            "astId": 3913,
            "contract": "contracts/program/ProgramImplementation.sol:ProgramImplementation",
            "label": "adminRole",
            "offset": 0,
            "slot": "1",
            "type": "t_bytes32"
          }
        ],
        "numberOfBytes": "64"
      },
      "t_struct(Set)7058_storage": {
        "encoding": "inplace",
        "label": "struct EnumerableSet.Set",
        "members": [
          {
            "astId": 7053,
            "contract": "contracts/program/ProgramImplementation.sol:ProgramImplementation",
            "label": "_values",
            "offset": 0,
            "slot": "0",
            "type": "t_array(t_bytes32)dyn_storage"
          },
          {
            "astId": 7057,
            "contract": "contracts/program/ProgramImplementation.sol:ProgramImplementation",
            "label": "_indexes",
            "offset": 0,
            "slot": "1",
            "type": "t_mapping(t_bytes32,t_uint256)"
          }
        ],
        "numberOfBytes": "64"
      },
      "t_uint256": {
        "encoding": "inplace",
        "label": "uint256",
        "numberOfBytes": "32"
      },
      "t_uint8": {
        "encoding": "inplace",
        "label": "uint8",
        "numberOfBytes": "1"
      }
    }
  }
}