{
  "address": "0x80158E2Aa47Bd69A5Dd402Af5f0473094F07CC90",
  "abi": [
    {
      "anonymous": false,
      "inputs": [
        {
          "indexed": false,
          "internalType": "uint8",
          "name": "version",
          "type": "uint8"
        }
      ],
      "name": "Initialized",
      "type": "event"
    },
    {
      "anonymous": false,
      "inputs": [
        {
          "indexed": true,
          "internalType": "address",
          "name": "previousOwner",
          "type": "address"
        },
        {
          "indexed": true,
          "internalType": "address",
          "name": "newOwner",
          "type": "address"
        }
      ],
      "name": "OwnershipTransferred",
      "type": "event"
    },
    {
      "anonymous": false,
      "inputs": [
        {
          "indexed": true,
          "internalType": "address",
          "name": "votingContractAddress",
          "type": "address"
        },
        {
          "indexed": true,
          "internalType": "address",
          "name": "votingImplementation",
          "type": "address"
        }
      ],
      "name": "VotingContractCreated",
      "type": "event"
    },
    {
      "anonymous": false,
      "inputs": [
        {
          "indexed": false,
          "internalType": "address",
          "name": "votingContractAddress",
          "type": "address"
        }
      ],
      "name": "VotingContractUpdated",
      "type": "event"
    },
    {
      "inputs": [],
      "name": "create",
      "outputs": [
        {
          "internalType": "address",
          "name": "",
          "type": "address"
        }
      ],
      "stateMutability": "nonpayable",
      "type": "function"
    },
    {
      "inputs": [],
      "name": "initialize",
      "outputs": [],
      "stateMutability": "nonpayable",
      "type": "function"
    },
    {
      "inputs": [],
      "name": "nonce",
      "outputs": [
        {
          "internalType": "uint256",
          "name": "",
          "type": "uint256"
        }
      ],
      "stateMutability": "view",
      "type": "function"
    },
    {
      "inputs": [],
      "name": "owner",
      "outputs": [
        {
          "internalType": "address",
          "name": "",
          "type": "address"
        }
      ],
      "stateMutability": "view",
      "type": "function"
    },
    {
      "inputs": [],
      "name": "renounceOwnership",
      "outputs": [],
      "stateMutability": "nonpayable",
      "type": "function"
    },
    {
      "inputs": [
        {
          "internalType": "address",
          "name": "newOwner",
          "type": "address"
        }
      ],
      "name": "transferOwnership",
      "outputs": [],
      "stateMutability": "nonpayable",
      "type": "function"
    },
    {
      "inputs": [
        {
          "internalType": "address",
          "name": "newVotingContract",
          "type": "address"
        }
      ],
      "name": "updateVotingContract",
      "outputs": [],
      "stateMutability": "nonpayable",
      "type": "function"
    },
    {
      "inputs": [],
      "name": "votingContract",
      "outputs": [
        {
          "internalType": "address",
          "name": "",
          "type": "address"
        }
      ],
      "stateMutability": "view",
      "type": "function"
    }
  ],
  "transactionHash": "0x07c886edc2b6cfb04b96c8bc69f833a69e3bbd943c5f57926f41e886bac5cbce",
  "args": [],
  "numDeployments": 1,
  "solcInputHash": "c921f1417ace463d64cfccd1853f0d26",
  "bytecode": "0x608060405234801561001057600080fd5b506106ad806100206000396000f3fe608060405234801561001057600080fd5b50600436106100885760003560e01c8063c1fc006a1161005b578063c1fc006a146100e0578063df1a86a0146100f3578063efc81a8c14610106578063f2fde38b1461010e57600080fd5b8063715018a61461008d5780638129fc1c146100975780638da5cb5b1461009f578063affed0e0146100c9575b600080fd5b610095610121565b005b610095610135565b6033546001600160a01b03165b6040516001600160a01b0390911681526020015b60405180910390f35b6100d260665481565b6040519081526020016100c0565b6065546100ac906001600160a01b031681565b6100956101013660046105d5565b610254565b6100ac6102aa565b61009561011c3660046105d5565b6103b9565b61012961042f565b6101336000610489565b565b600054610100900460ff16158080156101555750600054600160ff909116105b8061016f5750303b15801561016f575060005460ff166001145b6101d75760405162461bcd60e51b815260206004820152602e60248201527f496e697469616c697a61626c653a20636f6e747261637420697320616c72656160448201526d191e481a5b9a5d1a585b1a5e995960921b60648201526084015b60405180910390fd5b6000805460ff1916600117905580156101fa576000805461ff0019166101001790555b6102026104db565b61020a610502565b8015610251576000805461ff0019169055604051600181527f7f26b83ff96e1f2b6a682f133852f6798a09c465da95921460cefb3847402498906020015b60405180910390a15b50565b61025c61042f565b606580546001600160a01b0319166001600160a01b0383169081179091556040519081527f264f54b893dc3babe9fb9ac8e7abcc6c1397da0903359d5fed6245242ab3ef0b90602001610248565b60668054600091826102bb83610605565b90915550506066546040516bffffffffffffffffffffffff193360601b166020820152603481019190915260009060540160408051601f198184030181529190528051602090910120606554909150600090610320906001600160a01b031683610532565b6065546040519192506001600160a01b0390811691908316907f6cf444e1bbf9068b76bcb01b51c4a796a44b52c884e215391ec5b7060143067690600090a3806001600160a01b0316638129fc1c6040518163ffffffff1660e01b8152600401600060405180830381600087803b15801561039a57600080fd5b505af11580156103ae573d6000803e3d6000fd5b509295945050505050565b6103c161042f565b6001600160a01b0381166104265760405162461bcd60e51b815260206004820152602660248201527f4f776e61626c653a206e6577206f776e657220697320746865207a65726f206160448201526564647265737360d01b60648201526084016101ce565b61025181610489565b6033546001600160a01b031633146101335760405162461bcd60e51b815260206004820181905260248201527f4f776e61626c653a2063616c6c6572206973206e6f7420746865206f776e657260448201526064016101ce565b603380546001600160a01b038381166001600160a01b0319831681179093556040519116919082907f8be0079c531659141344cd1fd0a4f28419497f9722a3daafe3b4186f6b6457e090600090a35050565b600054610100900460ff166101335760405162461bcd60e51b81526004016101ce9061062c565b600054610100900460ff166105295760405162461bcd60e51b81526004016101ce9061062c565b61013333610489565b6000763d602d80600a3d3981f3363d3d373d3d3d363d730000008360601b60e81c176000526e5af43d82803e903d91602b57fd5bf38360781b1760205281603760096000f590506001600160a01b0381166105cf5760405162461bcd60e51b815260206004820152601760248201527f455243313136373a2063726561746532206661696c656400000000000000000060448201526064016101ce565b92915050565b6000602082840312156105e757600080fd5b81356001600160a01b03811681146105fe57600080fd5b9392505050565b60006001820161062557634e487b7160e01b600052601160045260246000fd5b5060010190565b6020808252602b908201527f496e697469616c697a61626c653a20636f6e7472616374206973206e6f74206960408201526a6e697469616c697a696e6760a81b60608201526080019056fea26469706673582212200aae55390ef55338a60a3a9f31be0b5f06f4347eca39d81d434faa392f56fb4064736f6c63430008130033",
  "devdoc": {
    "events": {
      "Initialized(uint8)": {
        "details": "Triggered when the contract has been initialized or reinitialized."
      }
    },
    "kind": "dev",
    "methods": {
      "owner()": {
        "details": "Returns the address of the current owner."
      },
      "renounceOwnership()": {
        "details": "Leaves the contract without owner. It will not be possible to call `onlyOwner` functions. Can only be called by the current owner. NOTE: Renouncing ownership will leave the contract without an owner, thereby disabling any functionality that is only available to the owner."
      },
      "transferOwnership(address)": {
        "details": "Transfers ownership of the contract to a new account (`newOwner`). Can only be called by the current owner."
      }
    },
    "version": 1
  },
  "userdoc": {
    "events": {
      "VotingContractCreated(address,address)": {
        "notice": "Emitted when a new Voting is created"
      },
      "VotingContractUpdated(address)": {
        "notice": "Emitted when a Voting contract is updated"
      }
    },
    "kind": "user",
    "methods": {
      "create()": {
        "notice": "Clones QuadraticFundingVotingStrategyImplementation and deploys a contract and emits an event"
      },
      "initialize()": {
        "notice": "constructor function which ensure deployer is set as owner"
      },
      "updateVotingContract(address)": {
        "notice": "Allows the owner to update the QuadraticFundingVotingStrategyImplementation. This provides us the flexibility to upgrade QuadraticFundingVotingStrategyImplementation contract while relying on the same QuadraticFundingVotingStrategyFactory to get the list of QuadraticFundingVoting contracts."
      }
    },
    "version": 1
  },
  "storageLayout": {
    "storage": [
      {
        "astId": 800,
        "contract": "contracts/votingStrategy/QuadraticFundingVotingStrategyFactory.sol:QuadraticFundingVotingStrategyFactory",
        "label": "_initialized",
        "offset": 0,
        "slot": "0",
        "type": "t_uint8"
      },
      {
        "astId": 803,
        "contract": "contracts/votingStrategy/QuadraticFundingVotingStrategyFactory.sol:QuadraticFundingVotingStrategyFactory",
        "label": "_initializing",
        "offset": 1,
        "slot": "0",
        "type": "t_bool"
      },
      {
        "astId": 1917,
        "contract": "contracts/votingStrategy/QuadraticFundingVotingStrategyFactory.sol:QuadraticFundingVotingStrategyFactory",
        "label": "__gap",
        "offset": 0,
        "slot": "1",
        "type": "t_array(t_uint256)50_storage"
      },
      {
        "astId": 592,
        "contract": "contracts/votingStrategy/QuadraticFundingVotingStrategyFactory.sol:QuadraticFundingVotingStrategyFactory",
        "label": "_owner",
        "offset": 0,
        "slot": "51",
        "type": "t_address"
      },
      {
        "astId": 712,
        "contract": "contracts/votingStrategy/QuadraticFundingVotingStrategyFactory.sol:QuadraticFundingVotingStrategyFactory",
        "label": "__gap",
        "offset": 0,
        "slot": "52",
        "type": "t_array(t_uint256)49_storage"
      },
      {
        "astId": 11327,
        "contract": "contracts/votingStrategy/QuadraticFundingVotingStrategyFactory.sol:QuadraticFundingVotingStrategyFactory",
        "label": "votingContract",
        "offset": 0,
        "slot": "101",
        "type": "t_address"
      },
      {
        "astId": 11329,
        "contract": "contracts/votingStrategy/QuadraticFundingVotingStrategyFactory.sol:QuadraticFundingVotingStrategyFactory",
        "label": "nonce",
        "offset": 0,
        "slot": "102",
        "type": "t_uint256"
      }
    ],
    "types": {
      "t_address": {
        "encoding": "inplace",
        "label": "address",
        "numberOfBytes": "20"
      },
      "t_array(t_uint256)49_storage": {
        "base": "t_uint256",
        "encoding": "inplace",
        "label": "uint256[49]",
        "numberOfBytes": "1568"
      },
      "t_array(t_uint256)50_storage": {
        "base": "t_uint256",
        "encoding": "inplace",
        "label": "uint256[50]",
        "numberOfBytes": "1600"
      },
      "t_bool": {
        "encoding": "inplace",
        "label": "bool",
        "numberOfBytes": "1"
      },
      "t_uint256": {
        "encoding": "inplace",
        "label": "uint256",
        "numberOfBytes": "32"
      },
      "t_uint8": {
        "encoding": "inplace",
        "label": "uint8",
        "numberOfBytes": "1"
      }
    }
  }
}