{
  "address": "0xaaE261E5b7694de09C1F4136D4a0b360EE321bd7",
  "abi": [
    {
      "anonymous": false,
      "inputs": [
        {
          "components": [
            {
              "internalType": "uint256",
              "name": "protocol",
              "type": "uint256"
            },
            {
              "internalType": "string",
              "name": "pointer",
              "type": "string"
            }
          ],
          "indexed": false,
          "internalType": "struct MetaPtr",
          "name": "oldMetaPtr",
          "type": "tuple"
        },
        {
          "components": [
            {
              "internalType": "uint256",
              "name": "protocol",
              "type": "uint256"
            },
            {
              "internalType": "string",
              "name": "pointer",
              "type": "string"
            }
          ],
          "indexed": false,
          "internalType": "struct MetaPtr",
          "name": "newMetaPtr",
          "type": "tuple"
        }
      ],
      "name": "ApplicationMetaPtrUpdated",
      "type": "event"
    },
    {
      "anonymous": false,
      "inputs": [
        {
          "indexed": true,
          "internalType": "uint256",
          "name": "index",
          "type": "uint256"
        },
        {
          "indexed": true,
          "internalType": "uint256",
          "name": "status",
          "type": "uint256"
        }
      ],
      "name": "ApplicationStatusesUpdated",
      "type": "event"
    },
    {
      "anonymous": false,
      "inputs": [
        {
          "indexed": false,
          "internalType": "uint256",
          "name": "oldTime",
          "type": "uint256"
        },
        {
          "indexed": false,
          "internalType": "uint256",
          "name": "newTime",
          "type": "uint256"
        }
      ],
      "name": "ApplicationsEndTimeUpdated",
      "type": "event"
    },
    {
      "anonymous": false,
      "inputs": [
        {
          "indexed": false,
          "internalType": "uint256",
          "name": "oldTime",
          "type": "uint256"
        },
        {
          "indexed": false,
          "internalType": "uint256",
          "name": "newTime",
          "type": "uint256"
        }
      ],
      "name": "ApplicationsStartTimeUpdated",
      "type": "event"
    },
    {
      "anonymous": false,
      "inputs": [
        {
          "indexed": false,
          "internalType": "uint8",
          "name": "version",
          "type": "uint8"
        }
      ],
      "name": "Initialized",
      "type": "event"
    },
    {
      "anonymous": false,
      "inputs": [
        {
          "indexed": false,
          "internalType": "uint256",
          "name": "newAmount",
          "type": "uint256"
        }
      ],
      "name": "MatchAmountUpdated",
      "type": "event"
    },
    {
      "anonymous": false,
      "inputs": [
        {
          "indexed": true,
          "internalType": "bytes32",
          "name": "projectID",
          "type": "bytes32"
        },
        {
          "indexed": false,
          "internalType": "uint256",
          "name": "applicationIndex",
          "type": "uint256"
        },
        {
          "components": [
            {
              "internalType": "uint256",
              "name": "protocol",
              "type": "uint256"
            },
            {
              "internalType": "string",
              "name": "pointer",
              "type": "string"
            }
          ],
          "indexed": false,
          "internalType": "struct MetaPtr",
          "name": "applicationMetaPtr",
          "type": "tuple"
        }
      ],
      "name": "NewProjectApplication",
      "type": "event"
    },
    {
      "anonymous": false,
      "inputs": [
        {
          "indexed": false,
          "internalType": "uint256",
          "name": "matchAmountAfterFees",
          "type": "uint256"
        },
        {
          "indexed": false,
          "internalType": "uint256",
          "name": "protocolFeeAmount",
          "type": "uint256"
        },
        {
          "indexed": false,
          "internalType": "uint256",
          "name": "roundFeeAmount",
          "type": "uint256"
        }
      ],
      "name": "PayFeeAndEscrowFundsToPayoutContract",
      "type": "event"
    },
    {
      "anonymous": false,
      "inputs": [
        {
          "components": [
            {
              "internalType": "uint256",
              "name": "protocol",
              "type": "uint256"
            },
            {
              "internalType": "string",
              "name": "pointer",
              "type": "string"
            }
          ],
          "indexed": false,
          "internalType": "struct MetaPtr",
          "name": "oldMetaPtr",
          "type": "tuple"
        },
        {
          "components": [
            {
              "internalType": "uint256",
              "name": "protocol",
              "type": "uint256"
            },
            {
              "internalType": "string",
              "name": "pointer",
              "type": "string"
            }
          ],
          "indexed": false,
          "internalType": "struct MetaPtr",
          "name": "newMetaPtr",
          "type": "tuple"
        }
      ],
      "name": "ProjectsMetaPtrUpdated",
      "type": "event"
    },
    {
      "anonymous": false,
      "inputs": [
        {
          "indexed": true,
          "internalType": "bytes32",
          "name": "role",
          "type": "bytes32"
        },
        {
          "indexed": true,
          "internalType": "bytes32",
          "name": "previousAdminRole",
          "type": "bytes32"
        },
        {
          "indexed": true,
          "internalType": "bytes32",
          "name": "newAdminRole",
          "type": "bytes32"
        }
      ],
      "name": "RoleAdminChanged",
      "type": "event"
    },
    {
      "anonymous": false,
      "inputs": [
        {
          "indexed": true,
          "internalType": "bytes32",
          "name": "role",
          "type": "bytes32"
        },
        {
          "indexed": true,
          "internalType": "address",
          "name": "account",
          "type": "address"
        },
        {
          "indexed": true,
          "internalType": "address",
          "name": "sender",
          "type": "address"
        }
      ],
      "name": "RoleGranted",
      "type": "event"
    },
    {
      "anonymous": false,
      "inputs": [
        {
          "indexed": true,
          "internalType": "bytes32",
          "name": "role",
          "type": "bytes32"
        },
        {
          "indexed": true,
          "internalType": "address",
          "name": "account",
          "type": "address"
        },
        {
          "indexed": true,
          "internalType": "address",
          "name": "sender",
          "type": "address"
        }
      ],
      "name": "RoleRevoked",
      "type": "event"
    },
    {
      "anonymous": false,
      "inputs": [
        {
          "indexed": false,
          "internalType": "uint256",
          "name": "oldTime",
          "type": "uint256"
        },
        {
          "indexed": false,
          "internalType": "uint256",
          "name": "newTime",
          "type": "uint256"
        }
      ],
      "name": "RoundEndTimeUpdated",
      "type": "event"
    },
    {
      "anonymous": false,
      "inputs": [
        {
          "indexed": false,
          "internalType": "address",
          "name": "roundFeeAddress",
          "type": "address"
        }
      ],
      "name": "RoundFeeAddressUpdated",
      "type": "event"
    },
    {
      "anonymous": false,
      "inputs": [
        {
          "indexed": false,
          "internalType": "uint32",
          "name": "roundFeePercentage",
          "type": "uint32"
        }
      ],
      "name": "RoundFeePercentageUpdated",
      "type": "event"
    },
    {
      "anonymous": false,
      "inputs": [
        {
          "components": [
            {
              "internalType": "uint256",
              "name": "protocol",
              "type": "uint256"
            },
            {
              "internalType": "string",
              "name": "pointer",
              "type": "string"
            }
          ],
          "indexed": false,
          "internalType": "struct MetaPtr",
          "name": "oldMetaPtr",
          "type": "tuple"
        },
        {
          "components": [
            {
              "internalType": "uint256",
              "name": "protocol",
              "type": "uint256"
            },
            {
              "internalType": "string",
              "name": "pointer",
              "type": "string"
            }
          ],
          "indexed": false,
          "internalType": "struct MetaPtr",
          "name": "newMetaPtr",
          "type": "tuple"
        }
      ],
      "name": "RoundMetaPtrUpdated",
      "type": "event"
    },
    {
      "anonymous": false,
      "inputs": [
        {
          "indexed": false,
          "internalType": "uint256",
          "name": "oldTime",
          "type": "uint256"
        },
        {
          "indexed": false,
          "internalType": "uint256",
          "name": "newTime",
          "type": "uint256"
        }
      ],
      "name": "RoundStartTimeUpdated",
      "type": "event"
    },
    {
      "inputs": [],
      "name": "DEFAULT_ADMIN_ROLE",
      "outputs": [
        {
          "internalType": "bytes32",
          "name": "",
          "type": "bytes32"
        }
      ],
      "stateMutability": "view",
      "type": "function"
    },
    {
      "inputs": [],
      "name": "ROUND_OPERATOR_ROLE",
      "outputs": [
        {
          "internalType": "bytes32",
          "name": "",
          "type": "bytes32"
        }
      ],
      "stateMutability": "view",
      "type": "function"
    },
    {
      "inputs": [],
      "name": "VERSION",
      "outputs": [
        {
          "internalType": "string",
          "name": "",
          "type": "string"
        }
      ],
      "stateMutability": "view",
      "type": "function"
    },
    {
      "inputs": [],
      "name": "alloSettings",
      "outputs": [
        {
          "internalType": "contract AlloSettings",
          "name": "",
          "type": "address"
        }
      ],
      "stateMutability": "view",
      "type": "function"
    },
    {
      "inputs": [],
      "name": "applicationMetaPtr",
      "outputs": [
        {
          "internalType": "uint256",
          "name": "protocol",
          "type": "uint256"
        },
        {
          "internalType": "string",
          "name": "pointer",
          "type": "string"
        }
      ],
      "stateMutability": "view",
      "type": "function"
    },
    {
      "inputs": [
        {
          "internalType": "uint256",
          "name": "",
          "type": "uint256"
        }
      ],
      "name": "applicationStatusesBitMap",
      "outputs": [
        {
          "internalType": "uint256",
          "name": "",
          "type": "uint256"
        }
      ],
      "stateMutability": "view",
      "type": "function"
    },
    {
      "inputs": [
        {
          "internalType": "uint256",
          "name": "",
          "type": "uint256"
        }
      ],
      "name": "applications",
      "outputs": [
        {
          "internalType": "bytes32",
          "name": "projectID",
          "type": "bytes32"
        },
        {
          "internalType": "uint256",
          "name": "applicationIndex",
          "type": "uint256"
        },
        {
          "components": [
            {
              "internalType": "uint256",
              "name": "protocol",
              "type": "uint256"
            },
            {
              "internalType": "string",
              "name": "pointer",
              "type": "string"
            }
          ],
          "internalType": "struct MetaPtr",
          "name": "metaPtr",
          "type": "tuple"
        }
      ],
      "stateMutability": "view",
      "type": "function"
    },
    {
      "inputs": [],
      "name": "applicationsEndTime",
      "outputs": [
        {
          "internalType": "uint256",
          "name": "",
          "type": "uint256"
        }
      ],
      "stateMutability": "view",
      "type": "function"
    },
    {
      "inputs": [
        {
          "internalType": "bytes32",
          "name": "",
          "type": "bytes32"
        },
        {
          "internalType": "uint256",
          "name": "",
          "type": "uint256"
        }
      ],
      "name": "applicationsIndexesByProjectID",
      "outputs": [
        {
          "internalType": "uint256",
          "name": "",
          "type": "uint256"
        }
      ],
      "stateMutability": "view",
      "type": "function"
    },
    {
      "inputs": [],
      "name": "applicationsStartTime",
      "outputs": [
        {
          "internalType": "uint256",
          "name": "",
          "type": "uint256"
        }
      ],
      "stateMutability": "view",
      "type": "function"
    },
    {
      "inputs": [
        {
          "internalType": "bytes32",
          "name": "projectID",
          "type": "bytes32"
        },
        {
          "components": [
            {
              "internalType": "uint256",
              "name": "protocol",
              "type": "uint256"
            },
            {
              "internalType": "string",
              "name": "pointer",
              "type": "string"
            }
          ],
          "internalType": "struct MetaPtr",
          "name": "newApplicationMetaPtr",
          "type": "tuple"
        }
      ],
      "name": "applyToRound",
      "outputs": [],
      "stateMutability": "nonpayable",
      "type": "function"
    },
    {
      "inputs": [
        {
          "internalType": "bytes32",
          "name": "projectID",
          "type": "bytes32"
        }
      ],
      "name": "getApplicationIndexesByProjectID",
      "outputs": [
        {
          "internalType": "uint256[]",
          "name": "",
          "type": "uint256[]"
        }
      ],
      "stateMutability": "view",
      "type": "function"
    },
    {
      "inputs": [
        {
          "internalType": "uint256",
          "name": "applicationIndex",
          "type": "uint256"
        }
      ],
      "name": "getApplicationStatus",
      "outputs": [
        {
          "internalType": "uint256",
          "name": "",
          "type": "uint256"
        }
      ],
      "stateMutability": "view",
      "type": "function"
    },
    {
      "inputs": [
        {
          "internalType": "bytes32",
          "name": "role",
          "type": "bytes32"
        }
      ],
      "name": "getRoleAdmin",
      "outputs": [
        {
          "internalType": "bytes32",
          "name": "",
          "type": "bytes32"
        }
      ],
      "stateMutability": "view",
      "type": "function"
    },
    {
      "inputs": [
        {
          "internalType": "bytes32",
          "name": "role",
          "type": "bytes32"
        },
        {
          "internalType": "uint256",
          "name": "index",
          "type": "uint256"
        }
      ],
      "name": "getRoleMember",
      "outputs": [
        {
          "internalType": "address",
          "name": "",
          "type": "address"
        }
      ],
      "stateMutability": "view",
      "type": "function"
    },
    {
      "inputs": [
        {
          "internalType": "bytes32",
          "name": "role",
          "type": "bytes32"
        }
      ],
      "name": "getRoleMemberCount",
      "outputs": [
        {
          "internalType": "uint256",
          "name": "",
          "type": "uint256"
        }
      ],
      "stateMutability": "view",
      "type": "function"
    },
    {
      "inputs": [
        {
          "internalType": "bytes32",
          "name": "role",
          "type": "bytes32"
        },
        {
          "internalType": "address",
          "name": "account",
          "type": "address"
        }
      ],
      "name": "grantRole",
      "outputs": [],
      "stateMutability": "nonpayable",
      "type": "function"
    },
    {
      "inputs": [
        {
          "internalType": "bytes32",
          "name": "role",
          "type": "bytes32"
        },
        {
          "internalType": "address",
          "name": "account",
          "type": "address"
        }
      ],
      "name": "hasRole",
      "outputs": [
        {
          "internalType": "bool",
          "name": "",
          "type": "bool"
        }
      ],
      "stateMutability": "view",
      "type": "function"
    },
    {
      "inputs": [
        {
          "internalType": "bytes",
          "name": "encodedParameters",
          "type": "bytes"
        },
        {
          "internalType": "address",
          "name": "_alloSettings",
          "type": "address"
        }
      ],
      "name": "initialize",
      "outputs": [],
      "stateMutability": "nonpayable",
      "type": "function"
    },
    {
      "inputs": [],
      "name": "matchAmount",
      "outputs": [
        {
          "internalType": "uint256",
          "name": "",
          "type": "uint256"
        }
      ],
      "stateMutability": "view",
      "type": "function"
    },
    {
      "inputs": [
        {
          "internalType": "bytes[]",
          "name": "data",
          "type": "bytes[]"
        }
      ],
      "name": "multicall",
      "outputs": [
        {
          "internalType": "bytes[]",
          "name": "results",
          "type": "bytes[]"
        }
      ],
      "stateMutability": "nonpayable",
      "type": "function"
    },
    {
      "inputs": [],
      "name": "nextApplicationIndex",
      "outputs": [
        {
          "internalType": "uint256",
          "name": "",
          "type": "uint256"
        }
      ],
      "stateMutability": "view",
      "type": "function"
    },
    {
      "inputs": [],
      "name": "payoutStrategy",
      "outputs": [
        {
          "internalType": "address payable",
          "name": "",
          "type": "address"
        }
      ],
      "stateMutability": "view",
      "type": "function"
    },
    {
      "inputs": [],
      "name": "payoutStrategyFactory",
      "outputs": [
        {
          "internalType": "contract IPayoutStrategyFactory",
          "name": "",
          "type": "address"
        }
      ],
      "stateMutability": "view",
      "type": "function"
    },
    {
      "inputs": [
        {
          "internalType": "bytes32",
          "name": "role",
          "type": "bytes32"
        },
        {
          "internalType": "address",
          "name": "account",
          "type": "address"
        }
      ],
      "name": "renounceRole",
      "outputs": [],
      "stateMutability": "nonpayable",
      "type": "function"
    },
    {
      "inputs": [
        {
          "internalType": "bytes32",
          "name": "role",
          "type": "bytes32"
        },
        {
          "internalType": "address",
          "name": "account",
          "type": "address"
        }
      ],
      "name": "revokeRole",
      "outputs": [],
      "stateMutability": "nonpayable",
      "type": "function"
    },
    {
      "inputs": [],
      "name": "roundEndTime",
      "outputs": [
        {
          "internalType": "uint256",
          "name": "",
          "type": "uint256"
        }
      ],
      "stateMutability": "view",
      "type": "function"
    },
    {
      "inputs": [],
      "name": "roundFeeAddress",
      "outputs": [
        {
          "internalType": "address payable",
          "name": "",
          "type": "address"
        }
      ],
      "stateMutability": "view",
      "type": "function"
    },
    {
      "inputs": [],
      "name": "roundFeePercentage",
      "outputs": [
        {
          "internalType": "uint32",
          "name": "",
          "type": "uint32"
        }
      ],
      "stateMutability": "view",
      "type": "function"
    },
    {
      "inputs": [],
      "name": "roundMetaPtr",
      "outputs": [
        {
          "internalType": "uint256",
          "name": "protocol",
          "type": "uint256"
        },
        {
          "internalType": "string",
          "name": "pointer",
          "type": "string"
        }
      ],
      "stateMutability": "view",
      "type": "function"
    },
    {
      "inputs": [],
      "name": "roundStartTime",
      "outputs": [
        {
          "internalType": "uint256",
          "name": "",
          "type": "uint256"
        }
      ],
      "stateMutability": "view",
      "type": "function"
    },
    {
      "inputs": [
        {
          "components": [
            {
              "internalType": "uint256",
              "name": "index",
              "type": "uint256"
            },
            {
              "internalType": "uint256",
              "name": "statusRow",
              "type": "uint256"
            }
          ],
          "internalType": "struct IRoundImplementation.ApplicationStatus[]",
          "name": "statuses",
          "type": "tuple[]"
        }
      ],
      "name": "setApplicationStatuses",
      "outputs": [],
      "stateMutability": "nonpayable",
      "type": "function"
    },
    {
      "inputs": [],
      "name": "setReadyForPayout",
      "outputs": [],
      "stateMutability": "payable",
      "type": "function"
    },
    {
      "inputs": [
        {
          "internalType": "bytes4",
          "name": "interfaceId",
          "type": "bytes4"
        }
      ],
      "name": "supportsInterface",
      "outputs": [
        {
          "internalType": "bool",
          "name": "",
          "type": "bool"
        }
      ],
      "stateMutability": "view",
      "type": "function"
    },
    {
      "inputs": [],
      "name": "token",
      "outputs": [
        {
          "internalType": "address",
          "name": "",
          "type": "address"
        }
      ],
      "stateMutability": "view",
      "type": "function"
    },
    {
      "inputs": [
        {
          "components": [
            {
              "internalType": "uint256",
              "name": "protocol",
              "type": "uint256"
            },
            {
              "internalType": "string",
              "name": "pointer",
              "type": "string"
            }
          ],
          "internalType": "struct MetaPtr",
          "name": "newApplicationMetaPtr",
          "type": "tuple"
        }
      ],
      "name": "updateApplicationMetaPtr",
      "outputs": [],
      "stateMutability": "nonpayable",
      "type": "function"
    },
    {
      "inputs": [
        {
          "internalType": "uint256",
          "name": "newAmount",
          "type": "uint256"
        }
      ],
      "name": "updateMatchAmount",
      "outputs": [],
      "stateMutability": "nonpayable",
      "type": "function"
    },
    {
      "inputs": [
        {
          "internalType": "address payable",
          "name": "newFeeAddress",
          "type": "address"
        }
      ],
      "name": "updateRoundFeeAddress",
      "outputs": [],
      "stateMutability": "nonpayable",
      "type": "function"
    },
    {
      "inputs": [
        {
          "internalType": "uint32",
          "name": "newFeePercentage",
          "type": "uint32"
        }
      ],
      "name": "updateRoundFeePercentage",
      "outputs": [],
      "stateMutability": "nonpayable",
      "type": "function"
    },
    {
      "inputs": [
        {
          "components": [
            {
              "internalType": "uint256",
              "name": "protocol",
              "type": "uint256"
            },
            {
              "internalType": "string",
              "name": "pointer",
              "type": "string"
            }
          ],
          "internalType": "struct MetaPtr",
          "name": "newRoundMetaPtr",
          "type": "tuple"
        }
      ],
      "name": "updateRoundMetaPtr",
      "outputs": [],
      "stateMutability": "nonpayable",
      "type": "function"
    },
    {
      "inputs": [
        {
          "internalType": "uint256",
          "name": "newApplicationsStartTime",
          "type": "uint256"
        },
        {
          "internalType": "uint256",
          "name": "newApplicationsEndTime",
          "type": "uint256"
        },
        {
          "internalType": "uint256",
          "name": "newRoundStartTime",
          "type": "uint256"
        },
        {
          "internalType": "uint256",
          "name": "newRoundEndTime",
          "type": "uint256"
        }
      ],
      "name": "updateStartAndEndTimes",
      "outputs": [],
      "stateMutability": "nonpayable",
      "type": "function"
    },
    {
      "inputs": [
        {
          "internalType": "bytes[]",
          "name": "encodedVotes",
          "type": "bytes[]"
        }
      ],
      "name": "vote",
      "outputs": [],
      "stateMutability": "payable",
      "type": "function"
    },
    {
      "inputs": [],
      "name": "votingStrategy",
      "outputs": [
        {
          "internalType": "address",
          "name": "",
          "type": "address"
        }
      ],
      "stateMutability": "view",
      "type": "function"
    },
    {
      "inputs": [],
      "name": "votingStrategyFactory",
      "outputs": [
        {
          "internalType": "contract IVotingStrategyFactory",
          "name": "",
          "type": "address"
        }
      ],
      "stateMutability": "view",
      "type": "function"
    },
    {
      "inputs": [
        {
          "internalType": "address",
          "name": "tokenAddress",
          "type": "address"
        },
        {
          "internalType": "address payable",
          "name": "recipent",
          "type": "address"
        }
      ],
      "name": "withdraw",
      "outputs": [],
      "stateMutability": "nonpayable",
      "type": "function"
    },
    {
      "stateMutability": "payable",
      "type": "receive"
    }
  ],
  "transactionHash": "0xd2e7b61098740288634fd35e0d69b0b4a2d45a9ca1ecab108a4ac23a56031b95",
  "args": [],
  "numDeployments": 1,
  "solcInputHash": "c921f1417ace463d64cfccd1853f0d26",
  "bytecode": "0x608060405234801561001057600080fd5b50613ca2806100206000396000f3fe6080604052600436106102765760003560e01c8063a67b1a0a1161014f578063d7bf7840116100c1578063f940e3851161007a578063f940e385146107ad578063fa1910e8146107cd578063fb5c8bfd146107ed578063fc0c546a1461080d578063fe169f761461082e578063ffa1ad741461083657600080fd5b8063d7bf7840146106f7578063d97f3dcf14610717578063dd4f8f7414610739578063dfefadff14610750578063e40205d61461077f578063f7f8ebca1461079657600080fd5b8063c5069b6111610113578063c5069b6114610633578063ca15c87314610660578063cce2df0314610680578063d195bba1146106a0578063d32cca47146106b7578063d547741f146106d757600080fd5b8063a67b1a0a14610578578063ac9650d814610598578063b02f18e7146105c5578063b9ff5ebe146105e5578063c03fd6621461060557600080fd5b8063685bd21b116101e85780638e421b85116101ac5780638e421b85146104a95780638e9745dc146104c95780639010d07c1461050357806391d14854146105235780639c3b68ce14610543578063a217fddf1461056357600080fd5b8063685bd21b14610420578063697e5f691461043557806376bacc99146104555780637aa54b68146104765780638926a8881461048957600080fd5b80632698f3fb1161023a5780632698f3fb1461036457806328ab75c7146103875780632f2ff15d146103a957806336568abe146103c957806344b278a6146103e9578063609679d81461040057600080fd5b806301ffc9a7146102825780630c0a56b6146102b757806310a11a6d146102ef5780631e949c9e1461031d578063248a9ca31461033457600080fd5b3661027d57005b600080fd5b34801561028e57600080fd5b506102a261029d366004612d11565b610874565b60405190151581526020015b60405180910390f35b3480156102c357600080fd5b5060ff546102d7906001600160a01b031681565b6040516001600160a01b0390911681526020016102ae565b3480156102fb57600080fd5b5061030f61030a366004612d3b565b61089f565b6040519081526020016102ae565b34801561032957600080fd5b5061030f6101015481565b34801561034057600080fd5b5061030f61034f366004612d5d565b60009081526065602052604090206001015490565b34801561037057600080fd5b506103796108d1565b6040516102ae929190612dc6565b34801561039357600080fd5b506103a76103a2366004612df3565b61096a565b005b3480156103b557600080fd5b506103a76103c4366004612e23565b610a0e565b3480156103d557600080fd5b506103a76103e4366004612e23565b610a38565b3480156103f557600080fd5b5061030f61010b5481565b34801561040c57600080fd5b5060fd546102d7906001600160a01b031681565b34801561042c57600080fd5b50610379610ab6565b34801561044157600080fd5b506103a7610450366004612d5d565b610acc565b34801561046157600080fd5b50610106546102d7906001600160a01b031681565b6103a7610484366004612f3b565b610b9f565b34801561049557600080fd5b506103a76104a436600461306a565b610c6a565b3480156104b557600080fd5b506103a76104c436600461309e565b610d05565b3480156104d557600080fd5b50610105546104ee90600160a01b900463ffffffff1681565b60405163ffffffff90911681526020016102ae565b34801561050f57600080fd5b506102d761051e366004612d3b565b611062565b34801561052f57600080fd5b506102a261053e366004612e23565b611081565b34801561054f57600080fd5b5060fb546102d7906001600160a01b031681565b34801561056f57600080fd5b5061030f600081565b34801561058457600080fd5b5060fc546102d7906001600160a01b031681565b3480156105a457600080fd5b506105b86105b33660046130d0565b6110ac565b6040516102ae9190613199565b3480156105d157600080fd5b506103a76105e03660046131ac565b61119e565b3480156105f157600080fd5b506103a76106003660046131f9565b611315565b34801561061157600080fd5b5061030f610620366004612d5d565b61010e6020526000908152604090205481565b34801561063f57600080fd5b5061065361064e366004612d5d565b61139f565b6040516102ae9190613216565b34801561066c57600080fd5b5061030f61067b366004612d5d565b611402565b34801561068c57600080fd5b506103a761069b36600461325a565b611419565b3480156106ac57600080fd5b5061030f6101005481565b3480156106c357600080fd5b5061030f6106d2366004612d5d565b611a3d565b3480156106e357600080fd5b506103a76106f2366004612e23565b611ae1565b34801561070357600080fd5b506103a761071236600461306a565b611b06565b34801561072357600080fd5b5061030f600080516020613c2683398151915281565b34801561074557600080fd5b5061030f6101025481565b34801561075c57600080fd5b5061077061076b366004612d5d565b611b9a565b6040516102ae939291906132fb565b34801561078b57600080fd5b5061030f6101035481565b3480156107a257600080fd5b5061030f6101045481565b3480156107b957600080fd5b506103a76107c8366004613323565b611c7b565b3480156107d957600080fd5b506103a76107e8366004613351565b611d10565b3480156107f957600080fd5b5060fe546102d7906001600160a01b031681565b34801561081957600080fd5b50610105546102d7906001600160a01b031681565b6103a7611de5565b34801561084257600080fd5b50610867604051806040016040528060058152602001640312e302e360dc1b81525081565b6040516102ae91906133fb565b60006001600160e01b03198216635a05180f60e01b1480610899575061089982612261565b92915050565b61010d60205281600052604060002081815481106108bc57600080fd5b90600052602060002001600091509150505481565b610107805461010880549192916108e79061340e565b80601f01602080910402602001604051908101604052809291908181526020018280546109139061340e565b80156109605780601f1061093557610100808354040283529160200191610960565b820191906000526020600020905b81548152906001019060200180831161094357829003601f168201915b5050505050905082565b610103544211156109965760405162461bcd60e51b815260040161098d90613448565b60405180910390fd5b600080516020613c268339815191526109ae81612296565b610105805463ffffffff60a01b1916600160a01b63ffffffff8581168202929092179283905560405192041681527f94ef22170df1c9a0e250ce2eae5fd3abc6d1379de9f9855fee7e490f15ddda87906020015b60405180910390a15050565b600082815260656020526040902060010154610a2981612296565b610a3383836122a3565b505050565b6001600160a01b0381163314610aa85760405162461bcd60e51b815260206004820152602f60248201527f416363657373436f6e74726f6c3a2063616e206f6e6c792072656e6f756e636560448201526e103937b632b9903337b91039b2b63360891b606482015260840161098d565b610ab282826122c5565b5050565b610109805461010a80549192916108e79061340e565b61010354421115610aef5760405162461bcd60e51b815260040161098d90613448565b600080516020613c26833981519152610b0781612296565b610104548211610b695760405162461bcd60e51b815260206004820152602760248201527f526f756e643a204c6573736572207468616e2063757272656e74206d6174636860448201526608185b5bdd5b9d60ca1b606482015260840161098d565b6101048290556040518281527f36407b7517f93b8dd6bf87384f27398dc6c7158776015e7492bbae639be60bdd90602001610a02565b426101025411158015610bb55750610103544211155b610c015760405162461bcd60e51b815260206004820152601a60248201527f526f756e643a20526f756e64206973206e6f7420616374697665000000000000604482015260640161098d565b60fe5460405163fc6d4e3960e01b81526001600160a01b039091169063fc6d4e39903490610c359085903390600401613478565b6000604051808303818588803b158015610c4e57600080fd5b505af1158015610c62573d6000803e3d6000fd5b505050505050565b61010354421115610c8d5760405162461bcd60e51b815260040161098d90613448565b600080516020613c26833981519152610ca581612296565b7ffd4633953debc7fbfababf529ffe33c4a6dd78c9ff13db552b571df08847864161010983604051610cd89291906134a2565b60405180910390a18151610109908155602083015183919061010a90610cfe908261358f565b5050505050565b61010354421115610d285760405162461bcd60e51b815260040161098d90613448565b600080516020613c26833981519152610d4081612296565b838510610daa5760405162461bcd60e51b815260206004820152603260248201527f526f756e643a204170706c69636174696f6e20656e64206973206265666f726560448201527108185c1c1b1a58d85d1a5bdb881cdd185c9d60721b606482015260840161098d565b818310610dc95760405162461bcd60e51b815260040161098d9061364e565b82851115610e305760405162461bcd60e51b815260206004820152602e60248201527f526f756e643a20526f756e64207374617274206973206265666f72652061707060448201526d1b1a58d85d1a5bdb881cdd185c9d60921b606482015260840161098d565b81841115610e935760405162461bcd60e51b815260206004820152602a60248201527f526f756e643a20526f756e6420656e64206973206265666f7265206170706c6960448201526918d85d1a5bdb88195b9960b21b606482015260840161098d565b84421115610ee35760405162461bcd60e51b815260206004820152601e60248201527f526f756e643a2054696d652068617320616c7265616479207061737365640000604482015260640161098d565b426101005410158015610ef95750610100548514155b15610f42576101005460408051918252602082018790527f1fde68e630df12a4f2baa029dd016929d2c6bccc0fdd80dec2a787b01035517e910160405180910390a16101008590555b426101015410158015610f585750610101548414155b15610fa1576101015460408051918252602082018690527fa7fbc7103523f0d44281a3a3ba5aa119e9cab30ae02c09932eb2524c7d81f463910160405180910390a16101018490555b426101025410158015610fb75750610102548314155b15611000576101025460408051918252602082018590527fbd905b0cf9e380e3eaf972d7cb542694f66361043fcce248341d90626d467476910160405180910390a16101028390555b4261010354101580156110165750610103548214155b15610cfe576101035460408051918252602082018490527fc0395d95a518149baa3521bb5b3c6988c7806a48ea42726ee3a9686bbd2a08cd910160405180910390a15061010355505050565b600082815260976020526040812061107a90836122e7565b9392505050565b60009182526065602090815260408084206001600160a01b0393909316845291905290205460ff1690565b604080516000815260208101909152606090826001600160401b038111156110d6576110d6612e53565b60405190808252806020026020018201604052801561110957816020015b60608152602001906001900390816110f45790505b50915060005b83811015611196576111663086868481811061112d5761112d6136bd565b905060200281019061113f91906136d3565b8560405160200161115293929190613720565b6040516020818303038152906040526122f3565b838281518110611178576111786136bd565b6020026020010181905250808061118e90613747565b91505061110f565b505092915050565b4261010054111580156111b45750610101544211155b6112175760405162461bcd60e51b815260206004820152602e60248201527f526f756e643a204170706c69636174696f6e7320706572696f64206e6f74207360448201526d3a30b93a32b21037b91037bb32b960911b606482015260840161098d565b61010c604051806060016040528084815260200161010b5481526020018361123e90613760565b905281546001818101845560009384526020938490208351600490930201918255838301519082015560408201518051600283019081559381015192939192909190600384019061128f908261358f565b505050600084815261010d6020908152604080832061010b80548254600181018455928652939094200191909155905490518593507fca792622046325e9cd4e24b490cb000ef72acea3a15284efc14ee709307a5e0092506112f39190859061376c565b60405180910390a261010b805490600061130c83613747565b91905055505050565b610103544211156113385760405162461bcd60e51b815260040161098d90613448565b600080516020613c2683398151915261135081612296565b61010680546001600160a01b0319166001600160a01b0384169081179091556040519081527f88ae92ef8eb8a634a01f4e404d706ac67bc00a88bdf46af83630c6ade6e9795390602001610a02565b600081815261010d60209081526040918290208054835181840281018401909452808452606093928301828280156113f657602002820191906000526020600020905b8154815260200190600101908083116113e2575b50505050509050919050565b600081815260976020526040812061089990612318565b600054610100900460ff16158080156114395750600054600160ff909116105b806114535750303b158015611453575060005460ff166001145b6114b65760405162461bcd60e51b815260206004820152602e60248201527f496e697469616c697a61626c653a20636f6e747261637420697320616c72656160448201526d191e481a5b9a5d1a585b1a5e995960921b606482015260840161098d565b6000805460ff1916600117905580156114d9576000805461ff0019166101001790555b6000808080808080806114ee8b8d018d61398e565b9750975097509750975097509750975042876000015110156115525760405162461bcd60e51b815260206004820152601e60248201527f526f756e643a2054696d652068617320616c7265616479207061737365640000604482015260640161098d565b86516020880151116115b15760405162461bcd60e51b815260206004820152602260248201527f526f756e643a2041707020656e64206973206265666f726520617070207374616044820152611c9d60f21b606482015260840161098d565b8660200151876060015110156116145760405162461bcd60e51b815260206004820152602260248201527f526f756e643a20526f756e6420656e64206973206265666f72652061707020656044820152611b9960f21b606482015260840161098d565b866040015187606001511161163b5760405162461bcd60e51b815260040161098d9061364e565b86516040880151101561169f5760405162461bcd60e51b815260206004820152602660248201527f526f756e643a20526f756e64207374617274206973206265666f726520617070604482015265081cdd185c9d60d21b606482015260840161098d565b60fb80546001600160a01b03808d166001600160a01b031992831617909255895160fc8054918416918316821790556020808c015160fd80549186169185169190911790558a51610100558a810151610101556040808c01516101025560608c0151610103556101058054958b1695909416949094179092558251633bf206a360e21b81529251909263efc81a8c92600480830193919282900301816000875af1158015611751573d6000803e3d6000fd5b505050506040513d601f19601f820116820180604052508101906117759190613a82565b60fe80546001600160a01b0319166001600160a01b03929092169182179055604080516370e39c9560e11b8152905163e1c7392a9160048082019260009290919082900301818387803b1580156117cb57600080fd5b505af11580156117df573d6000803e3d6000fd5b5050505060fd60009054906101000a90046001600160a01b03166001600160a01b031663efc81a8c6040518163ffffffff1660e01b81526004016020604051808303816000875af1158015611838573d6000803e3d6000fd5b505050506040513d601f19601f8201168201806040525081019061185c9190613a82565b60ff80546001600160a01b0319166001600160a01b03929092169182179055604080516370e39c9560e11b8152905163e1c7392a9160048082019260009290919082900301818387803b1580156118b257600080fd5b505af11580156118c6573d6000803e3d6000fd5b50505061010487905550610105805463ffffffff60a01b1916600160a01b63ffffffff87160217905561010680546001600160a01b0319166001600160a01b03851617905581518051610107908155602082015161010890611928908261358f565b50505060208083015180516101099081559181015190919061010a9061194e908261358f565b5090505060005b8151518110156119975781518051611987916000918490811061197a5761197a6136bd565b60200260200101516122a3565b61199081613747565b9050611955565b5060005b8160200151518110156119e0576119d0600080516020613c268339815191528360200151838151811061197a5761197a6136bd565b6119d981613747565b905061199b565b506119e9612322565b50505050505050508015611a37576000805461ff0019169055604051600181527f7f26b83ff96e1f2b6a682f133852f6798a09c465da95921460cefb38474024989060200160405180910390a15b50505050565b61010c546000908210611a9c5760405162461bcd60e51b815260206004820152602160248201527f526f756e643a204170706c69636174696f6e20646f6573206e6f7420657869736044820152601d60fa1b606482015260840161098d565b6000611aa9608084613ab5565b90506000611ab8608085613ac9565b611ac3906002613add565b600092835261010e60205260409092205490911c6003169392505050565b600082815260656020526040902060010154611afc81612296565b610a3383836122c5565b61010354421115611b295760405162461bcd60e51b815260040161098d90613448565b600080516020613c26833981519152611b4181612296565b7fb625c4faee7533bf09da813b9c0e169f98d36c22d9ce5181c9e4d7577556760a61010783604051611b749291906134a2565b60405180910390a18151610107908155602083015183919061010890610cfe908261358f565b61010c8181548110611bab57600080fd5b90600052602060002090600402016000915090508060000154908060010154908060020160405180604001604052908160008201548152602001600182018054611bf49061340e565b80601f0160208091040260200160405190810160405280929190818152602001828054611c209061340e565b8015611c6d5780601f10611c4257610100808354040283529160200191611c6d565b820191906000526020600020905b815481529060010190602001808311611c5057829003601f168201915b505050505081525050905083565b600080516020613c26833981519152611c9381612296565b610105546001600160a01b0390811690841603611cfd5760405162461bcd60e51b815260206004820152602260248201527f526f756e643a2043616e6e6f7420776974686472617720726f756e6420746f6b60448201526132b760f11b606482015260840161098d565b610a3382611d0a8561238f565b85612413565b61010354421115611d335760405162461bcd60e51b815260040161098d90613448565b600080516020613c26833981519152611d4b81612296565b60005b8251811015610a33576000838281518110611d6b57611d6b6136bd565b60200260200101516000015190506000848381518110611d8d57611d8d6136bd565b602090810291909101810151810151600084815261010e909252604080832082905551909250829184917f5d498eb0ba08d4494201d7dd654e1f1c3e8a74dd0f860bb3c3e1b64eb79885c89190a35050600101611d4e565b610103544211611e375760405162461bcd60e51b815260206004820152601a60248201527f526f756e643a20526f756e6420686173206e6f7420656e646564000000000000604482015260640161098d565b600080516020613c26833981519152611e4f81612296565b61010554600090611e68906001600160a01b031661238f565b9050600060fb60009054906101000a90046001600160a01b03166001600160a01b031663918f86746040518163ffffffff1660e01b8152600401602060405180830381865afa158015611ebf573d6000803e3d6000fd5b505050506040513d601f19601f82011682018060405250810190611ee39190613af4565b62ffffff16905060008163ffffffff1660fb60009054906101000a90046001600160a01b03166001600160a01b0316638e50e5096040518163ffffffff1660e01b8152600401602060405180830381865afa158015611f46573d6000803e3d6000fd5b505050506040513d601f19601f82011682018060405250810190611f6a9190613af4565b62ffffff1661010454611f7d9190613add565b611f879190613ab5565b905060008263ffffffff1661010560149054906101000a900463ffffffff1663ffffffff1661010454611fba9190613add565b611fc49190613ab5565b90506000818361010454611fd89190613b19565b611fe29190613b19565b9050808510156120405760405162461bcd60e51b815260206004820152602360248201527f526f756e643a204e6f7420656e6f7567682066756e647320696e20636f6e74726044820152621858dd60ea1b606482015260840161098d565b82156120d35760fb546040805163803db96d60e01b815290516000926001600160a01b03169163803db96d9160048083019260209291908290030181865afa158015612090573d6000803e3d6000fd5b505050506040513d601f19601f820116820180604052508101906120b49190613a82565b610105549091506120d190829086906001600160a01b0316612413565b505b81156120f95761010654610105546120f9916001600160a01b0390811691859116612413565b6101055461210f906001600160a01b031661238f565b610105549095506001600160a01b03166121915760ff60009054906101000a90046001600160a01b03166001600160a01b031663fe169f76866040518263ffffffff1660e01b81526004016000604051808303818588803b15801561217357600080fd5b505af1158015612187573d6000803e3d6000fd5b5050505050612218565b60ff54610105546121af916001600160a01b0391821691168761243b565b60ff60009054906101000a90046001600160a01b03166001600160a01b031663fe169f766040518163ffffffff1660e01b8152600401600060405180830381600087803b1580156121ff57600080fd5b505af1158015612213573d6000803e3d6000fd5b505050505b60408051868152602081018590529081018390527fd3680093ec73f97fd84953765908e9ecbc0c567d97ee6e5465e742ace7b18bfc9060600160405180910390a1505050505050565b60006001600160e01b03198216637965db0b60e01b148061089957506301ffc9a760e01b6001600160e01b0319831614610899565b6122a0813361248d565b50565b6122ad82826124e6565b6000828152609760205260409020610a33908261256c565b6122cf8282612581565b6000828152609760205260409020610a3390826125e8565b600061107a83836125fd565b606061107a8383604051806060016040528060278152602001613c4660279139612627565b6000610899825490565b600054610100900460ff1661238d5760405162461bcd60e51b815260206004820152602b60248201527f496e697469616c697a61626c653a20636f6e7472616374206973206e6f74206960448201526a6e697469616c697a696e6760a81b606482015260840161098d565b565b60006001600160a01b0382166123a6575047919050565b6040516370a0823160e01b81523060048201526001600160a01b038316906370a0823190602401602060405180830381865afa1580156123ea573d6000803e3d6000fd5b505050506040513d601f19601f820116820180604052508101906108999190613b2c565b919050565b6001600160a01b03811661242b57610a33838361269f565b610a336001600160a01b03821684845b604080516001600160a01b038416602482015260448082018490528251808303909101815260649091019091526020810180516001600160e01b031663a9059cbb60e01b179052610a339084906127b8565b6124978282611081565b610ab2576124a48161288d565b6124af83602061289f565b6040516020016124c0929190613b45565b60408051601f198184030181529082905262461bcd60e51b825261098d916004016133fb565b6124f08282611081565b610ab25760008281526065602090815260408083206001600160a01b03851684529091529020805460ff191660011790556125283390565b6001600160a01b0316816001600160a01b0316837f2f8788117e7eff1d82e926ec794901d17c78024a50270940304540a733656f0d60405160405180910390a45050565b600061107a836001600160a01b038416612a3a565b61258b8282611081565b15610ab25760008281526065602090815260408083206001600160a01b0385168085529252808320805460ff1916905551339285917ff6391f5c32d9c69d2a47ea670b442974b53935d1edc7fd64eb21e047a839171b9190a45050565b600061107a836001600160a01b038416612a89565b6000826000018281548110612614576126146136bd565b9060005260206000200154905092915050565b6060600080856001600160a01b0316856040516126449190613bba565b600060405180830381855af49150503d806000811461267f576040519150601f19603f3d011682016040523d82523d6000602084013e612684565b606091505b509150915061269586838387612b7c565b9695505050505050565b804710156126ef5760405162461bcd60e51b815260206004820152601d60248201527f416464726573733a20696e73756666696369656e742062616c616e6365000000604482015260640161098d565b6000826001600160a01b03168260405160006040518083038185875af1925050503d806000811461273c576040519150601f19603f3d011682016040523d82523d6000602084013e612741565b606091505b5050905080610a335760405162461bcd60e51b815260206004820152603a60248201527f416464726573733a20756e61626c6520746f2073656e642076616c75652c207260448201527f6563697069656e74206d61792068617665207265766572746564000000000000606482015260840161098d565b600061280d826040518060400160405280602081526020017f5361666545524332303a206c6f772d6c6576656c2063616c6c206661696c6564815250856001600160a01b0316612bfd9092919063ffffffff16565b905080516000148061282e57508080602001905181019061282e9190613bd6565b610a335760405162461bcd60e51b815260206004820152602a60248201527f5361666545524332303a204552433230206f7065726174696f6e20646964206e6044820152691bdd081cdd58d8d9595960b21b606482015260840161098d565b60606108996001600160a01b03831660145b606060006128ae836002613add565b6128b9906002613b19565b6001600160401b038111156128d0576128d0612e53565b6040519080825280601f01601f1916602001820160405280156128fa576020820181803683370190505b509050600360fc1b81600081518110612915576129156136bd565b60200101906001600160f81b031916908160001a905350600f60fb1b81600181518110612944576129446136bd565b60200101906001600160f81b031916908160001a9053506000612968846002613add565b612973906001613b19565b90505b60018111156129eb576f181899199a1a9b1b9c1cb0b131b232b360811b85600f16601081106129a7576129a76136bd565b1a60f81b8282815181106129bd576129bd6136bd565b60200101906001600160f81b031916908160001a90535060049490941c936129e481613bf8565b9050612976565b50831561107a5760405162461bcd60e51b815260206004820181905260248201527f537472696e67733a20686578206c656e67746820696e73756666696369656e74604482015260640161098d565b6000818152600183016020526040812054612a8157508154600181810184556000848152602080822090930184905584548482528286019093526040902091909155610899565b506000610899565b60008181526001830160205260408120548015612b72576000612aad6001836136aa565b8554909150600090612ac1906001906136aa565b9050818114612b26576000866000018281548110612ae157612ae16136bd565b9060005260206000200154905080876000018481548110612b0457612b046136bd565b6000918252602080832090910192909255918252600188019052604090208390555b8554869080612b3757612b37613c0f565b600190038181906000526020600020016000905590558560010160008681526020019081526020016000206000905560019350505050610899565b6000915050610899565b60608315612beb578251600003612be4576001600160a01b0385163b612be45760405162461bcd60e51b815260206004820152601d60248201527f416464726573733a2063616c6c20746f206e6f6e2d636f6e7472616374000000604482015260640161098d565b5081612bf5565b612bf58383612c0c565b949350505050565b6060612bf58484600085612c36565b815115612c1c5781518083602001fd5b8060405162461bcd60e51b815260040161098d91906133fb565b606082471015612c975760405162461bcd60e51b815260206004820152602660248201527f416464726573733a20696e73756666696369656e742062616c616e636520666f6044820152651c8818d85b1b60d21b606482015260840161098d565b600080866001600160a01b03168587604051612cb39190613bba565b60006040518083038185875af1925050503d8060008114612cf0576040519150601f19603f3d011682016040523d82523d6000602084013e612cf5565b606091505b5091509150612d0687838387612b7c565b979650505050505050565b600060208284031215612d2357600080fd5b81356001600160e01b03198116811461107a57600080fd5b60008060408385031215612d4e57600080fd5b50508035926020909101359150565b600060208284031215612d6f57600080fd5b5035919050565b60005b83811015612d91578181015183820152602001612d79565b50506000910152565b60008151808452612db2816020860160208601612d76565b601f01601f19169290920160200192915050565b828152604060208201526000612bf56040830184612d9a565b803563ffffffff8116811461240e57600080fd5b600060208284031215612e0557600080fd5b61107a82612ddf565b6001600160a01b03811681146122a057600080fd5b60008060408385031215612e3657600080fd5b823591506020830135612e4881612e0e565b809150509250929050565b634e487b7160e01b600052604160045260246000fd5b604080519081016001600160401b0381118282101715612e8b57612e8b612e53565b60405290565b604051601f8201601f191681016001600160401b0381118282101715612eb957612eb9612e53565b604052919050565b60006001600160401b03821115612eda57612eda612e53565b5060051b60200190565b60006001600160401b03831115612efd57612efd612e53565b612f10601f8401601f1916602001612e91565b9050828152838383011115612f2457600080fd5b828260208301376000602084830101529392505050565b60006020808385031215612f4e57600080fd5b82356001600160401b0380821115612f6557600080fd5b818501915085601f830112612f7957600080fd5b8135612f8c612f8782612ec1565b612e91565b81815260059190911b83018401908481019088831115612fab57600080fd5b8585015b83811015612ff857803585811115612fc75760008081fd5b8601603f81018b13612fd95760008081fd5b612fea8b8983013560408401612ee4565b845250918601918601612faf565b5098975050505050505050565b60006040828403121561301757600080fd5b61301f612e69565b90508135815260208201356001600160401b0381111561303e57600080fd5b8201601f8101841361304f57600080fd5b61305e84823560208401612ee4565b60208301525092915050565b60006020828403121561307c57600080fd5b81356001600160401b0381111561309257600080fd5b612bf584828501613005565b600080600080608085870312156130b457600080fd5b5050823594602084013594506040840135936060013592509050565b600080602083850312156130e357600080fd5b82356001600160401b03808211156130fa57600080fd5b818501915085601f83011261310e57600080fd5b81358181111561311d57600080fd5b8660208260051b850101111561313257600080fd5b60209290920196919550909350505050565b600081518084526020808501808196508360051b8101915082860160005b8581101561318c57828403895261317a848351612d9a565b98850198935090840190600101613162565b5091979650505050505050565b60208152600061107a6020830184613144565b600080604083850312156131bf57600080fd5b8235915060208301356001600160401b038111156131dc57600080fd5b830160408186031215612e4857600080fd5b803561240e81612e0e565b60006020828403121561320b57600080fd5b813561107a81612e0e565b6020808252825182820181905260009190848201906040850190845b8181101561324e57835183529284019291840191600101613232565b50909695505050505050565b60008060006040848603121561326f57600080fd5b83356001600160401b038082111561328657600080fd5b818601915086601f83011261329a57600080fd5b8135818111156132a957600080fd5b8760208285010111156132bb57600080fd5b602092830195509350508401356132d181612e0e565b809150509250925092565b805182526000602082015160406020850152612bf56040850182612d9a565b83815282602082015260606040820152600061331a60608301846132dc565b95945050505050565b6000806040838503121561333657600080fd5b823561334181612e0e565b91506020830135612e4881612e0e565b6000602080838503121561336457600080fd5b82356001600160401b0381111561337a57600080fd5b8301601f8101851361338b57600080fd5b8035613399612f8782612ec1565b81815260069190911b820183019083810190878311156133b857600080fd5b928401925b82841015612d0657604084890312156133d65760008081fd5b6133de612e69565b8435815285850135868201528252604090930192908401906133bd565b60208152600061107a6020830184612d9a565b600181811c9082168061342257607f821691505b60208210810361344257634e487b7160e01b600052602260045260246000fd5b50919050565b602080825260169082015275149bdd5b990e88149bdd5b99081a185cc8195b99195960521b604082015260600190565b60408152600061348b6040830185613144565b905060018060a01b03831660208301529392505050565b60408152825460408201526000600180850160406060850152600081546134c88161340e565b80608088015260a0858316600081146134e8576001811461350257613533565b60ff1984168983015282151560051b890182019450613533565b8560005260208060002060005b8581101561352a5781548c820186015290890190820161350f565b8b018401965050505b505050508481036020860152612d0681876132dc565b601f821115610a3357600081815260208120601f850160051c810160208610156135705750805b601f850160051c820191505b81811015610c625782815560010161357c565b81516001600160401b038111156135a8576135a8612e53565b6135bc816135b6845461340e565b84613549565b602080601f8311600181146135f157600084156135d95750858301515b600019600386901b1c1916600185901b178555610c62565b600085815260208120601f198616915b8281101561362057888601518255948401946001909101908401613601565b508582101561363e5787850151600019600388901b60f8161c191681555b5050505050600190811b01905550565b60208082526026908201527f526f756e643a20526f756e6420656e64206973206265666f726520726f756e64604082015265081cdd185c9d60d21b606082015260800190565b634e487b7160e01b600052601160045260246000fd5b8181038181111561089957610899613694565b634e487b7160e01b600052603260045260246000fd5b6000808335601e198436030181126136ea57600080fd5b8301803591506001600160401b0382111561370457600080fd5b60200191503681900382131561371957600080fd5b9250929050565b82848237600083820160008152835161373d818360208801612d76565b0195945050505050565b60006001820161375957613759613694565b5060010190565b60006108993683613005565b828152604060208201528135604082015260006020830135601e1984360301811261379657600080fd5b83016020810190356001600160401b038111156137b257600080fd5b8036038213156137c157600080fd5b60406060850152806080850152808260a0860137600060a0828601015260a0601f19601f830116850101925050509392505050565b60006080828403121561380857600080fd5b604051608081018181106001600160401b038211171561382a5761382a612e53565b8060405250809150823581526020830135602082015260408301356040820152606083013560608201525092915050565b60006040828403121561386d57600080fd5b613875612e69565b905081356001600160401b038082111561388e57600080fd5b61389a85838601613005565b835260208401359150808211156138b057600080fd5b5061305e84828501613005565b600082601f8301126138ce57600080fd5b813560206138de612f8783612ec1565b82815260059290921b840181019181810190868411156138fd57600080fd5b8286015b8481101561392157803561391481612e0e565b8352918301918301613901565b509695505050505050565b60006040828403121561393e57600080fd5b613946612e69565b905081356001600160401b038082111561395f57600080fd5b61396b858386016138bd565b8352602084013591508082111561398157600080fd5b5061305e848285016138bd565b600080600080600080600080888a036101808112156139ac57600080fd5b60408112156139ba57600080fd5b506139c3612e69565b89356139ce81612e0e565b815260208a01356139de81612e0e565b602082015297506139f28a60408b016137f6565b965060c08901359550613a0760e08a016131ee565b9450613a166101008a01612ddf565b9350613a256101208a016131ee565b92506101408901356001600160401b0380821115613a4257600080fd5b613a4e8c838d0161385b565b93506101608b0135915080821115613a6557600080fd5b50613a728b828c0161392c565b9150509295985092959890939650565b600060208284031215613a9457600080fd5b815161107a81612e0e565b634e487b7160e01b600052601260045260246000fd5b600082613ac457613ac4613a9f565b500490565b600082613ad857613ad8613a9f565b500690565b808202811582820484141761089957610899613694565b600060208284031215613b0657600080fd5b815162ffffff8116811461107a57600080fd5b8082018082111561089957610899613694565b600060208284031215613b3e57600080fd5b5051919050565b7f416363657373436f6e74726f6c3a206163636f756e7420000000000000000000815260008351613b7d816017850160208801612d76565b7001034b99036b4b9b9b4b733903937b6329607d1b6017918401918201528351613bae816028840160208801612d76565b01602801949350505050565b60008251613bcc818460208701612d76565b9190910192915050565b600060208284031215613be857600080fd5b8151801515811461107a57600080fd5b600081613c0757613c07613694565b506000190190565b634e487b7160e01b600052603160045260246000fdfeec61da14b5abbac5c5fda6f1d57642a264ebd5d0674f35852829746dfb8174a5416464726573733a206c6f772d6c6576656c2064656c65676174652063616c6c206661696c6564a26469706673582212204522b245bff1f1d3dd65bcfed8c21aadc4d3320e4fd635c7cd41318d5f8d124864736f6c63430008130033",
  "devdoc": {
    "events": {
      "Initialized(uint8)": {
        "details": "Triggered when the contract has been initialized or reinitialized."
      },
      "RoleAdminChanged(bytes32,bytes32,bytes32)": {
        "details": "Emitted when `newAdminRole` is set as ``role``'s admin role, replacing `previousAdminRole` `DEFAULT_ADMIN_ROLE` is the starting admin for all roles, despite {RoleAdminChanged} not being emitted signaling this. _Available since v3.1._"
      },
      "RoleGranted(bytes32,address,address)": {
        "details": "Emitted when `account` is granted `role`. `sender` is the account that originated the contract call, an admin role bearer except when using {AccessControl-_setupRole}."
      },
      "RoleRevoked(bytes32,address,address)": {
        "details": "Emitted when `account` is revoked `role`. `sender` is the account that originated the contract call:   - if using `revokeRole`, it is the admin role bearer   - if using `renounceRole`, it is the role bearer (i.e. `account`)"
      }
    },
    "kind": "dev",
    "methods": {
      "applyToRound(bytes32,(uint256,string))": {
        "params": {
          "newApplicationMetaPtr": "appliction metaPtr",
          "projectID": "unique hash of the project"
        }
      },
      "getApplicationIndexesByProjectID(bytes32)": {
        "params": {
          "projectID": "unique hash of the project"
        },
        "returns": {
          "_0": "applicationIndexes indexes of the applications"
        }
      },
      "getApplicationStatus(uint256)": {
        "params": {
          "applicationIndex": "index of the application"
        },
        "returns": {
          "_0": "status status of the application"
        }
      },
      "getRoleAdmin(bytes32)": {
        "details": "Returns the admin role that controls `role`. See {grantRole} and {revokeRole}. To change a role's admin, use {_setRoleAdmin}."
      },
      "getRoleMember(bytes32,uint256)": {
        "details": "Returns one of the accounts that have `role`. `index` must be a value between 0 and {getRoleMemberCount}, non-inclusive. Role bearers are not sorted in any particular way, and their ordering may change at any point. WARNING: When using {getRoleMember} and {getRoleMemberCount}, make sure you perform all queries on the same block. See the following https://forum.openzeppelin.com/t/iterating-over-elements-on-enumerableset-in-openzeppelin-contracts/2296[forum post] for more information."
      },
      "getRoleMemberCount(bytes32)": {
        "details": "Returns the number of accounts that have `role`. Can be used together with {getRoleMember} to enumerate all bearers of a role."
      },
      "grantRole(bytes32,address)": {
        "details": "Grants `role` to `account`. If `account` had not been already granted `role`, emits a {RoleGranted} event. Requirements: - the caller must have ``role``'s admin role. May emit a {RoleGranted} event."
      },
      "hasRole(bytes32,address)": {
        "details": "Returns `true` if `account` has been granted `role`."
      },
      "initialize(bytes,address)": {
        "details": "encodedParameters  - _initAddress Related contract / wallet addresses  - _initRoundTime Round timestamps  - _feePercentage Fee percentage  - _matchAmount Amount of tokens in the matching pool  - _token Address of the ERC20/native token for accepting matching pool contributions  - _initMetaPtr Round metaPtrs  - _initRoles Round roles",
        "params": {
          "encodedParameters": "Encoded parameters for program creation"
        }
      },
      "multicall(bytes[])": {
        "custom:oz-upgrades-unsafe-allow-reachable": "delegatecall",
        "details": "Receives and executes a batch of function calls on this contract."
      },
      "renounceRole(bytes32,address)": {
        "details": "Revokes `role` from the calling account. Roles are often managed via {grantRole} and {revokeRole}: this function's purpose is to provide a mechanism for accounts to lose their privileges if they are compromised (such as when a trusted device is misplaced). If the calling account had been revoked `role`, emits a {RoleRevoked} event. Requirements: - the caller must be `account`. May emit a {RoleRevoked} event."
      },
      "revokeRole(bytes32,address)": {
        "details": "Revokes `role` from `account`. If `account` had been granted `role`, emits a {RoleRevoked} event. Requirements: - the caller must have ``role``'s admin role. May emit a {RoleRevoked} event."
      },
      "setApplicationStatuses((uint256,uint256)[])": {
        "params": {
          "statuses": "new statuses"
        }
      },
      "supportsInterface(bytes4)": {
        "details": "See {IERC165-supportsInterface}."
      },
      "updateApplicationMetaPtr((uint256,string))": {
        "params": {
          "newApplicationMetaPtr": "new applicationMetaPtr"
        }
      },
      "updateMatchAmount(uint256)": {
        "params": {
          "newAmount": "new Amount"
        }
      },
      "updateRoundFeeAddress(address)": {
        "params": {
          "newFeeAddress": "new fee address"
        }
      },
      "updateRoundFeePercentage(uint32)": {
        "params": {
          "newFeePercentage": "new fee percentage"
        }
      },
      "updateRoundMetaPtr((uint256,string))": {
        "params": {
          "newRoundMetaPtr": "new roundMetaPtr"
        }
      },
      "updateStartAndEndTimes(uint256,uint256,uint256,uint256)": {
        "details": "Only updates if new time is in the future and current set time is also in the future",
        "params": {
          "newApplicationsEndTime": "new applicationsEndTime",
          "newApplicationsStartTime": "new applicationsStartTime",
          "newRoundEndTime": "new roundEndTime",
          "newRoundStartTime": "new roundStartTime"
        }
      },
      "vote(bytes[])": {
        "params": {
          "encodedVotes": "encoded vote"
        }
      },
      "withdraw(address,address)": {
        "params": {
          "recipent": "recipient address",
          "tokenAddress": "token address"
        }
      }
    },
    "version": 1
  },
  "userdoc": {
    "events": {
      "ApplicationMetaPtrUpdated((uint256,string),(uint256,string))": {
        "notice": "Emitted when the application form metaPtr is updated"
      },
      "ApplicationsEndTimeUpdated(uint256,uint256)": {
        "notice": "Emitted when application end time is updated"
      },
      "ApplicationsStartTimeUpdated(uint256,uint256)": {
        "notice": "Emitted when application start time is updated"
      },
      "MatchAmountUpdated(uint256)": {
        "notice": "Emitted when match amount is updated"
      },
      "NewProjectApplication(bytes32,uint256,(uint256,string))": {
        "notice": "Emitted when a project has applied to the round"
      },
      "PayFeeAndEscrowFundsToPayoutContract(uint256,uint256,uint256)": {
        "notice": "Emitted when protocol & round fees are paid"
      },
      "ProjectsMetaPtrUpdated((uint256,string),(uint256,string))": {
        "notice": "Emitted when projects metaPtr is updated"
      },
      "RoundEndTimeUpdated(uint256,uint256)": {
        "notice": "Emitted when a round end time is updated"
      },
      "RoundFeeAddressUpdated(address)": {
        "notice": "Emitted when a Round wallet address is updated"
      },
      "RoundFeePercentageUpdated(uint32)": {
        "notice": "Emitted when a Round fee percentage is updated"
      },
      "RoundMetaPtrUpdated((uint256,string),(uint256,string))": {
        "notice": "Emitted when the round metaPtr is updated"
      },
      "RoundStartTimeUpdated(uint256,uint256)": {
        "notice": "Emitted when a round start time is updated"
      }
    },
    "kind": "user",
    "methods": {
      "ROUND_OPERATOR_ROLE()": {
        "notice": "round operator role"
      },
      "alloSettings()": {
        "notice": "Allo Config Contract Address"
      },
      "applicationMetaPtr()": {
        "notice": "MetaPtr to the application form schema"
      },
      "applicationsEndTime()": {
        "notice": "Unix timestamp from when round stops accepting applications"
      },
      "applicationsStartTime()": {
        "notice": "Unix timestamp from when round can accept applications"
      },
      "applyToRound(bytes32,(uint256,string))": {
        "notice": "Submit a project application"
      },
      "getApplicationIndexesByProjectID(bytes32)": {
        "notice": "Get all applications of a projectID"
      },
      "getApplicationStatus(uint256)": {
        "notice": "Get application status"
      },
      "initialize(bytes,address)": {
        "notice": "Instantiates a new round"
      },
      "matchAmount()": {
        "notice": "Match Amount (excluding protocol fee & round fee)"
      },
      "payoutStrategy()": {
        "notice": "Payout Strategy Contract Address"
      },
      "payoutStrategyFactory()": {
        "notice": "Payout Strategy Factory Contract Address"
      },
      "roundEndTime()": {
        "notice": "Unix timestamp of the end of the round"
      },
      "roundFeeAddress()": {
        "notice": "Round fee address"
      },
      "roundFeePercentage()": {
        "notice": "Round fee percentage"
      },
      "roundMetaPtr()": {
        "notice": "MetaPtr to the round metadata"
      },
      "roundStartTime()": {
        "notice": "Unix timestamp of the start of the round"
      },
      "setApplicationStatuses((uint256,uint256)[])": {
        "notice": "Set application statuses"
      },
      "setReadyForPayout()": {
        "notice": "Pay Protocol & Round Fees and transfer funds to payout contract (only by ROUND_OPERATOR_ROLE)"
      },
      "token()": {
        "notice": "Token used to payout match amounts at the end of a round"
      },
      "updateStartAndEndTimes(uint256,uint256,uint256,uint256)": {
        "notice": "Update application, round start & end times (only by ROUND_OPERATOR_ROLE)"
      },
      "vote(bytes[])": {
        "notice": "Invoked by voter to cast votes"
      },
      "votingStrategy()": {
        "notice": "Voting Strategy Contract Address"
      },
      "votingStrategyFactory()": {
        "notice": "Voting Strategy Factory Contract Address"
      },
      "withdraw(address,address)": {
        "notice": "Withdraw funds from the contract (only by ROUND_OPERATOR_ROLE)"
      }
    },
    "notice": "Contract deployed per Round which would be managed by a group of ROUND_OPERATOR via the RoundFactory",
    "version": 1
  },
  "storageLayout": {
    "storage": [
      {
        "astId": 800,
        "contract": "contracts/round/RoundImplementation.sol:RoundImplementation",
        "label": "_initialized",
        "offset": 0,
        "slot": "0",
        "type": "t_uint8"
      },
      {
        "astId": 803,
        "contract": "contracts/round/RoundImplementation.sol:RoundImplementation",
        "label": "_initializing",
        "offset": 1,
        "slot": "0",
        "type": "t_bool"
      },
      {
        "astId": 1917,
        "contract": "contracts/round/RoundImplementation.sol:RoundImplementation",
        "label": "__gap",
        "offset": 0,
        "slot": "1",
        "type": "t_array(t_uint256)50_storage"
      },
      {
        "astId": 2297,
        "contract": "contracts/round/RoundImplementation.sol:RoundImplementation",
        "label": "__gap",
        "offset": 0,
        "slot": "51",
        "type": "t_array(t_uint256)50_storage"
      },
      {
        "astId": 174,
        "contract": "contracts/round/RoundImplementation.sol:RoundImplementation",
        "label": "_roles",
        "offset": 0,
        "slot": "101",
        "type": "t_mapping(t_bytes32,t_struct(RoleData)169_storage)"
      },
      {
        "astId": 481,
        "contract": "contracts/round/RoundImplementation.sol:RoundImplementation",
        "label": "__gap",
        "offset": 0,
        "slot": "102",
        "type": "t_array(t_uint256)49_storage"
      },
      {
        "astId": 22,
        "contract": "contracts/round/RoundImplementation.sol:RoundImplementation",
        "label": "_roleMembers",
        "offset": 0,
        "slot": "151",
        "type": "t_mapping(t_bytes32,t_struct(AddressSet)3607_storage)"
      },
      {
        "astId": 144,
        "contract": "contracts/round/RoundImplementation.sol:RoundImplementation",
        "label": "__gap",
        "offset": 0,
        "slot": "152",
        "type": "t_array(t_uint256)49_storage"
      },
      {
        "astId": 2023,
        "contract": "contracts/round/RoundImplementation.sol:RoundImplementation",
        "label": "__gap",
        "offset": 0,
        "slot": "201",
        "type": "t_array(t_uint256)50_storage"
      },
      {
        "astId": 10120,
        "contract": "contracts/round/RoundImplementation.sol:RoundImplementation",
        "label": "alloSettings",
        "offset": 0,
        "slot": "251",
        "type": "t_contract(AlloSettings)11230"
      },
      {
        "astId": 10124,
        "contract": "contracts/round/RoundImplementation.sol:RoundImplementation",
        "label": "votingStrategyFactory",
        "offset": 0,
        "slot": "252",
        "type": "t_contract(IVotingStrategyFactory)11314"
      },
      {
        "astId": 10128,
        "contract": "contracts/round/RoundImplementation.sol:RoundImplementation",
        "label": "payoutStrategyFactory",
        "offset": 0,
        "slot": "253",
        "type": "t_contract(IPayoutStrategyFactory)8353"
      },
      {
        "astId": 10131,
        "contract": "contracts/round/RoundImplementation.sol:RoundImplementation",
        "label": "votingStrategy",
        "offset": 0,
        "slot": "254",
        "type": "t_address"
      },
      {
        "astId": 10134,
        "contract": "contracts/round/RoundImplementation.sol:RoundImplementation",
        "label": "payoutStrategy",
        "offset": 0,
        "slot": "255",
        "type": "t_address_payable"
      },
      {
        "astId": 10137,
        "contract": "contracts/round/RoundImplementation.sol:RoundImplementation",
        "label": "applicationsStartTime",
        "offset": 0,
        "slot": "256",
        "type": "t_uint256"
      },
      {
        "astId": 10140,
        "contract": "contracts/round/RoundImplementation.sol:RoundImplementation",
        "label": "applicationsEndTime",
        "offset": 0,
        "slot": "257",
        "type": "t_uint256"
      },
      {
        "astId": 10143,
        "contract": "contracts/round/RoundImplementation.sol:RoundImplementation",
        "label": "roundStartTime",
        "offset": 0,
        "slot": "258",
        "type": "t_uint256"
      },
      {
        "astId": 10146,
        "contract": "contracts/round/RoundImplementation.sol:RoundImplementation",
        "label": "roundEndTime",
        "offset": 0,
        "slot": "259",
        "type": "t_uint256"
      },
      {
        "astId": 10149,
        "contract": "contracts/round/RoundImplementation.sol:RoundImplementation",
        "label": "matchAmount",
        "offset": 0,
        "slot": "260",
        "type": "t_uint256"
      },
      {
        "astId": 10152,
        "contract": "contracts/round/RoundImplementation.sol:RoundImplementation",
        "label": "token",
        "offset": 0,
        "slot": "261",
        "type": "t_address"
      },
      {
        "astId": 10155,
        "contract": "contracts/round/RoundImplementation.sol:RoundImplementation",
        "label": "roundFeePercentage",
        "offset": 20,
        "slot": "261",
        "type": "t_uint32"
      },
      {
        "astId": 10158,
        "contract": "contracts/round/RoundImplementation.sol:RoundImplementation",
        "label": "roundFeeAddress",
        "offset": 0,
        "slot": "262",
        "type": "t_address_payable"
      },
      {
        "astId": 10162,
        "contract": "contracts/round/RoundImplementation.sol:RoundImplementation",
        "label": "roundMetaPtr",
        "offset": 0,
        "slot": "263",
        "type": "t_struct(MetaPtr)11239_storage"
      },
      {
        "astId": 10166,
        "contract": "contracts/round/RoundImplementation.sol:RoundImplementation",
        "label": "applicationMetaPtr",
        "offset": 0,
        "slot": "265",
        "type": "t_struct(MetaPtr)11239_storage"
      },
      {
        "astId": 10206,
        "contract": "contracts/round/RoundImplementation.sol:RoundImplementation",
        "label": "nextApplicationIndex",
        "offset": 0,
        "slot": "267",
        "type": "t_uint256"
      },
      {
        "astId": 10210,
        "contract": "contracts/round/RoundImplementation.sol:RoundImplementation",
        "label": "applications",
        "offset": 0,
        "slot": "268",
        "type": "t_array(t_struct(Application)10204_storage)dyn_storage"
      },
      {
        "astId": 10215,
        "contract": "contracts/round/RoundImplementation.sol:RoundImplementation",
        "label": "applicationsIndexesByProjectID",
        "offset": 0,
        "slot": "269",
        "type": "t_mapping(t_bytes32,t_array(t_uint256)dyn_storage)"
      },
      {
        "astId": 10219,
        "contract": "contracts/round/RoundImplementation.sol:RoundImplementation",
        "label": "applicationStatusesBitMap",
        "offset": 0,
        "slot": "270",
        "type": "t_mapping(t_uint256,t_uint256)"
      }
    ],
    "types": {
      "t_address": {
        "encoding": "inplace",
        "label": "address",
        "numberOfBytes": "20"
      },
      "t_address_payable": {
        "encoding": "inplace",
        "label": "address payable",
        "numberOfBytes": "20"
      },
      "t_array(t_bytes32)dyn_storage": {
        "base": "t_bytes32",
        "encoding": "dynamic_array",
        "label": "bytes32[]",
        "numberOfBytes": "32"
      },
      "t_array(t_struct(Application)10204_storage)dyn_storage": {
        "base": "t_struct(Application)10204_storage",
        "encoding": "dynamic_array",
        "label": "struct RoundImplementation.Application[]",
        "numberOfBytes": "32"
      },
      "t_array(t_uint256)49_storage": {
        "base": "t_uint256",
        "encoding": "inplace",
        "label": "uint256[49]",
        "numberOfBytes": "1568"
      },
      "t_array(t_uint256)50_storage": {
        "base": "t_uint256",
        "encoding": "inplace",
        "label": "uint256[50]",
        "numberOfBytes": "1600"
      },
      "t_array(t_uint256)dyn_storage": {
        "base": "t_uint256",
        "encoding": "dynamic_array",
        "label": "uint256[]",
        "numberOfBytes": "32"
      },
      "t_bool": {
        "encoding": "inplace",
        "label": "bool",
        "numberOfBytes": "1"
      },
      "t_bytes32": {
        "encoding": "inplace",
        "label": "bytes32",
        "numberOfBytes": "32"
      },
      "t_contract(AlloSettings)11230": {
        "encoding": "inplace",
        "label": "contract AlloSettings",
        "numberOfBytes": "20"
      },
      "t_contract(IPayoutStrategyFactory)8353": {
        "encoding": "inplace",
        "label": "contract IPayoutStrategyFactory",
        "numberOfBytes": "20"
      },
      "t_contract(IVotingStrategyFactory)11314": {
        "encoding": "inplace",
        "label": "contract IVotingStrategyFactory",
        "numberOfBytes": "20"
      },
      "t_mapping(t_address,t_bool)": {
        "encoding": "mapping",
        "key": "t_address",
        "label": "mapping(address => bool)",
        "numberOfBytes": "32",
        "value": "t_bool"
      },
      "t_mapping(t_bytes32,t_array(t_uint256)dyn_storage)": {
        "encoding": "mapping",
        "key": "t_bytes32",
        "label": "mapping(bytes32 => uint256[])",
        "numberOfBytes": "32",
        "value": "t_array(t_uint256)dyn_storage"
      },
      "t_mapping(t_bytes32,t_struct(AddressSet)3607_storage)": {
        "encoding": "mapping",
        "key": "t_bytes32",
        "label": "mapping(bytes32 => struct EnumerableSetUpgradeable.AddressSet)",
        "numberOfBytes": "32",
        "value": "t_struct(AddressSet)3607_storage"
      },
      "t_mapping(t_bytes32,t_struct(RoleData)169_storage)": {
        "encoding": "mapping",
        "key": "t_bytes32",
        "label": "mapping(bytes32 => struct AccessControlUpgradeable.RoleData)",
        "numberOfBytes": "32",
        "value": "t_struct(RoleData)169_storage"
      },
      "t_mapping(t_bytes32,t_uint256)": {
        "encoding": "mapping",
        "key": "t_bytes32",
        "label": "mapping(bytes32 => uint256)",
        "numberOfBytes": "32",
        "value": "t_uint256"
      },
      "t_mapping(t_uint256,t_uint256)": {
        "encoding": "mapping",
        "key": "t_uint256",
        "label": "mapping(uint256 => uint256)",
        "numberOfBytes": "32",
        "value": "t_uint256"
      },
      "t_string_storage": {
        "encoding": "bytes",
        "label": "string",
        "numberOfBytes": "32"
      },
      "t_struct(AddressSet)3607_storage": {
        "encoding": "inplace",
        "label": "struct EnumerableSetUpgradeable.AddressSet",
        "members": [
          {
            "astId": 3606,
            "contract": "contracts/round/RoundImplementation.sol:RoundImplementation",
            "label": "_inner",
            "offset": 0,
            "slot": "0",
            "type": "t_struct(Set)3292_storage"
          }
        ],
        "numberOfBytes": "64"
      },
      "t_struct(Application)10204_storage": {
        "encoding": "inplace",
        "label": "struct RoundImplementation.Application",
        "members": [
          {
            "astId": 10198,
            "contract": "contracts/round/RoundImplementation.sol:RoundImplementation",
            "label": "projectID",
            "offset": 0,
            "slot": "0",
            "type": "t_bytes32"
          },
          {
            "astId": 10200,
            "contract": "contracts/round/RoundImplementation.sol:RoundImplementation",
            "label": "applicationIndex",
            "offset": 0,
            "slot": "1",
            "type": "t_uint256"
          },
          {
            "astId": 10203,
            "contract": "contracts/round/RoundImplementation.sol:RoundImplementation",
            "label": "metaPtr",
            "offset": 0,
            "slot": "2",
            "type": "t_struct(MetaPtr)11239_storage"
          }
        ],
        "numberOfBytes": "128"
      },
      "t_struct(MetaPtr)11239_storage": {
        "encoding": "inplace",
        "label": "struct MetaPtr",
        "members": [
          {
            "astId": 11235,
            "contract": "contracts/round/RoundImplementation.sol:RoundImplementation",
            "label": "protocol",
            "offset": 0,
            "slot": "0",
            "type": "t_uint256"
          },
          {
            "astId": 11238,
            "contract": "contracts/round/RoundImplementation.sol:RoundImplementation",
            "label": "pointer",
            "offset": 0,
            "slot": "1",
            "type": "t_string_storage"
          }
        ],
        "numberOfBytes": "64"
      },
      "t_struct(RoleData)169_storage": {
        "encoding": "inplace",
        "label": "struct AccessControlUpgradeable.RoleData",
        "members": [
          {
            "astId": 166,
            "contract": "contracts/round/RoundImplementation.sol:RoundImplementation",
            "label": "members",
            "offset": 0,
            "slot": "0",
            "type": "t_mapping(t_address,t_bool)"
          },
          {
            "astId": 168,
            "contract": "contracts/round/RoundImplementation.sol:RoundImplementation",
            "label": "adminRole",
            "offset": 0,
            "slot": "1",
            "type": "t_bytes32"
          }
        ],
        "numberOfBytes": "64"
      },
      "t_struct(Set)3292_storage": {
        "encoding": "inplace",
        "label": "struct EnumerableSetUpgradeable.Set",
        "members": [
          {
            "astId": 3287,
            "contract": "contracts/round/RoundImplementation.sol:RoundImplementation",
            "label": "_values",
            "offset": 0,
            "slot": "0",
            "type": "t_array(t_bytes32)dyn_storage"
          },
          {
            "astId": 3291,
            "contract": "contracts/round/RoundImplementation.sol:RoundImplementation",
            "label": "_indexes",
            "offset": 0,
            "slot": "1",
            "type": "t_mapping(t_bytes32,t_uint256)"
          }
        ],
        "numberOfBytes": "64"
      },
      "t_uint256": {
        "encoding": "inplace",
        "label": "uint256",
        "numberOfBytes": "32"
      },
      "t_uint32": {
        "encoding": "inplace",
        "label": "uint32",
        "numberOfBytes": "4"
      },
      "t_uint8": {
        "encoding": "inplace",
        "label": "uint8",
        "numberOfBytes": "1"
      }
    }
  }
}